:020000021000EC
:100000006F50722800000000001801180028012815
:100010000228032800290129022903290429052986
:10002000062907290829002A012A022A032A042A64
:10003000052AA62AE85E0300D81D01003603002029
:10004000A41E0100381E0100261E0100FE02002031
:10005000B61F0100E21F010024200100FC21010065
:100060008C220100D41C0100001C01006A1C01004C
:100070002C1C0100BE2601008E040020AC1F0100D4
:100080000A24010016100300E811030060120300A7
:10009000D6CF0200E6CF02008E3D0200B43102004E
:1000A0005C0A030040240100ACD70200B0D201007A
:1000B0003AD3010092D30100C22B01000E2C0100A3
:1000C000782A01009E8F0100948A0100FC980100AB
:1000D000CC9C010078A00100BC7C01005A7C01008E
:1000E00056800100087D0100307C0100B47C0100D5
:1000F000E27B01008C7D0100E47D0100947D010024
:10010000987D0100327E0100EC7D01001E7E010021
:10011000528301005A830100887D0100907D010017
:10012000307E010056830100F27E01008E840100C2
:10013000C4AE010042AF010080AF0100BE910100DA
:10014000D691010012920100D8750100B876010025
:1001500020770100024A010050450100146C0100A3
:10016000CA45010088670100803E03008E3B030002
:10017000C8460300A65503008054030088580300B6
:10018000705803008058030020590300222A0300FE
:10019000B0580300464C03006C4C0300944C030021
:1001A000905903009252030028520300005A0300A2
:1001B000842C0300242D03004C2D0300EE2C03009F
:1001C000CEF00200A6DD020032E1020070DE020085
:1001D00092E60200060B0300E2090300562A030020
:1001E000C02701007AD102008CD7020062D8020039
:1001F000A6030300EC03030070040300BC95010098
:100200007CF002000CE7020036ED020098E90200E3
:100210005EDD0200042301008CD10200AC58030013
:10022000745803007C5803007858030092210100A1
:1002300000000000000000000000000000000000BE
:10024000A16785072A876399F500B727002083C730
:1002500087A90145E9EB8280014569CBE1C9B30774
:10026000E0408D8BBA97C207C18313074003636CCC
:10027000F70237270020032547BB372700208326B6
:10028000C7BA6397A60237270020032747C3014553
:1002900051CF4111C20706C60545DD8D0297B24018
:1002A00001454101828037270020032507BBF1B7B4
:1002B000035765003DE7035745006364F706B3063F
:1002C000F7402148372600206378D80283280500AC
:1002D000032886BB938687001D8FAA96611723A0EB
:1002E00016012392E6002393060014C1130788FF2A
:1002F0002312F500232CE6BA21672313B500050766
:100300006399E500B726002003C786A97D17238CD3
:10031000E6A8832586BB2105B387F540232CF6BAD2
:1003200082800841B9BF01451DFB8280828009CDD2
:10033000B727002003A347BBB727002083A8C7BA6D
:1003400081469A8763E31701828003A807006363ED
:10035000F50A6361A80A13878700E367E5FE03D601
:100360006700216705076319E60037260020034769
:1003700086A90507230CE6A837270020032687BB9C
:1003800083D54700239307002E96232CC7BA638793
:10039000670237250020032505BB6301F50203D55D
:1003A000660009ED83D7460023A006012106BE950D
:1003B000A1052392B600232CC7BAB6879443E385E0
:1003C00016F937260020032606BBE38FC6F603D6B0
:1003D00066003DFA03D6470083D5460094422106C5
:1003E0002E9694C32392C700832787BBA107232C93
:1003F000F7BA8280BE86C287B1B701114AC83729D1
:100400000020930789EC06CE22CC26CA03C77700CA
:100410008D4763F0E710B727002083C747EF918B24
:10042000EDEBB7240020938704BC83C61700B727E1
:10043000002003A6C7BF130989EC8147938404BC3D
:1004400063C2D70637240020930744C083C737010F
:10045000D844130444C0636EF70A6800974002E072
:10046000E78040A4FD576304F50C8347340132470D
:1004700063F1E70AD844634F070221213247DC4485
:100480006373F700BA8703473401998F3E9583075A
:10049000440163C60702B707C0A86362F502B70745
:1004A000405761A01397170032970357070035E3B1
:1004B000850779B703074401635307061D8D83271A
:1004C000890199CBB727002083A647F03707CDFFD6
:1004D0007D179C46F98F9CC619E13705C0A85C5072
:1004E000829701ED832789018DC797E002E0E780BD
:1004F000008E97D002E0E780C0E28327890191CB8C
:10050000B727002003A747F0B70633001C47D58F55
:100510001CC7F2406244D244424905618280E37FB5
:10052000F5F83707C0A8B307F7403E9549BFDC444C
:10053000E3C107FEB92603473401DC44B9B719CD3E
:1005400091CD09CE81473387F500834607003307F5
:10055000F50085072300D700E397C7FE828019C9FD
:1005600091C909CA910583A7C5FF11057D16232EE0
:10057000F5FEC5BF8280854715C18DC105C2814783
:10058000B306F5003387F50083C60600034707006E
:100590006398E6008507E315F6FE85473E85828071
:1005A0008147EDBF797152CC372A002022D4032431
:1005B0000AC006D626D24AD04ECE56CA5AC85EC601
:1005C00062C479C4B7290020372900208144B72BA1
:1005D0000020938949C0130909BCB70AC0A8370B8A
:1005E00040578357240089EF5C4489E82320FAC0F0
:1005F000032CC4002285253B628441A0DCC4CDBF0E
:1006000083A78BC482971C44636DF5023307F540C2
:10061000635C070203A7490209CF03874901635DB1
:1006200007003387A7408327C9006374F700232698
:10063000E900A284404491A00147E386A7FED69733
:10064000CDB7898F63D80706232609008355240078
:1006500003450400972001E0E78020BA5C4058443D
:10066000A1C71444B6978386490163C5060063E3B6
:100670005701DA971CC4A2843A8425F4B7270020D6
:10068000938707BCD847914663F0E6047117D8C733
:10069000B250225492540259F249624AD24A424B11
:1006A000B24B224C4561828081E42320EAC089B7A5
:1006B000D8C43DBF03A749022DDF0327C900E3FAD1
:1006C000E7F62326F900B5B723A60700D1B7011135
:1006D0004AC837290020832749BE06CE22CC26CA25
:1006E0004EC652C481C78297232209BE930749BED2
:1006F000DC4391C38297832749BE63930714B724D1
:100700000020938784EC83C75700938484EC858B07
:10071000D5CF03C77400A38204008D4763E0E702CE
:10072000EF00306C83C77400890713972700B72741
:100730000020938747BEBA979C43829737240020B6
:10074000B7270020930604BC03A7C7BF03C6160043
:100750003E8A930904BC834704BC93961700BA965B
:1007600083D60600ADCE834704BC63E2C708832767
:1007700049BE230004BCE9E783C7940089CF03C7BF
:1007800074009307E00F6318F700A384040097D068
:1007900002E0E780E0F3B727002083A787C4CDC33A
:1007A000FD5723A6F900FD3BB727002083A787C28A
:1007B00091C3A131B727002083A747C4D1C3829733
:1007C00083A709013E9523A8A9009DA8B72700206B
:1007D00083C747EF918BBDD3EF10C02685B7850740
:1007E00093F7F70F2300F4BCE3E7C7F6ADBF860726
:1007F0003E978355070023100700034504BCB72725
:10080000002083A707BE13172500BA979C43829741
:10081000834704BC139717008327CABFBA9703D72F
:100820000700598D2390A700834704BC81C7850723
:100830002300F4BC034704BC83C71900E379F7F233
:10084000F2406244D2444249B249224A0561828060
:10085000AD6737C70040BD072326F7200F10000003
:10086000B7270020938707BC884F83278726BD665C
:10087000BD0693C7F7FF99836A052326D7205D8DB0
:1008800082804111B7170040985F3AC6945F3247A3
:10089000E39CE6FE3245410182800327851119E37E
:1008A000054582808347C50093F7C70F2306F500EF
:1008B000034687008356C70093158601E18563D8F8
:1008C000050A13781600835565186302080613E6B7
:1008D00017002306C50063F8D50237260020034819
:1008E000E504034656C1A30AB5006376C80093E742
:1008F00017012306F5008D8E2316D7008547A30C1C
:10090000F50001458280104309CE3726002083453B
:10091000E504034656C163F6C50093E717012306B5
:10092000F500A30AD5008947A304F700C1BF13E867
:10093000270023060501E3F5D5F68D8E130810F880
:1009400013661600A30407012304C7002316D7006B
:10095000372700208346E504034757C163F6E600C6
:1009600093E727012306F500A30AB50041BF054818
:1009700093E527006314060193E517002306B500ED
:10098000A30AD5008947A304F7001C43A5DBB727BA
:1009900000200347E50483C757C1E371F7F693E5E9
:1009A00005012306B50099BFB727002083A787E973
:1009B000411122C406C62A84C5EB4165130525F5FD
:1009C000974002E0E780C00F45C18347A50023158B
:1009D000F50083270412BDE32320A4122322A412CE
:1009E0008547231EF40423200500834764015441F6
:1009F0002316F5000347D4002304E5003727002021
:100A0000032707EE1385170215811C437D15137507
:100A1000F50F9CC25C43DCC21C479CC65C47DCC62D
:100A20001C4B9CCA5C4BDCCA1C4F9CCE5C4FDCCE82
:100A300019CD9386060213070702C1BF832744120C
:100A400088C38357C4052322A412850759BFB7273B
:100A50000020938707DA03D7270205072391E702CF
:100A6000B2402244410182808347C400230904002C
:100A7000054593C747002306F400DDB78347E5012A
:100A800093F7E70F91CB014582800145B2402244A4
:100A900092440249410182808347F501EDF7834684
:100AA00025010347C50089CAB72700200346E5048E
:100AB00083C797C16367F60093770701E9D781473A
:100AC00089C6418B8357451801C703578518BA97C4
:100AD000DDDB411137270020930647C006C622C43C
:100AE00026C24AC083C64601130747C01396860133
:100AF0006186635B06049387C71313D45700B72737
:100B000000208344E70183A647E37D59B705C0A8C9
:100B100083A7860A03D7C609635A06043387E740CA
:100B2000637327013A899442E5F6B727002083A72B
:100B300087C48297E36BA9F43305A9402694333424
:100B400085001345140099B7858A9387C71289CA0F
:100B50008A071384F7039307D0073354F40245B789
:100B600086071384F7019307D003C5BFE3F8E7FABC
:100B7000AE976DB7B7260020938706DA03A747091B
:100B800063010742797126D2B7240020938744C0BD
:100B900006D622D44AD04ECE52CC56CA5AC85EC6C9
:100BA000938606DA8388470183A5C60901457D58E7
:100BB000938444C03703C0A80326870A8357C70914
:100BC00063DA0810B307F64063F50701BA853E887B
:100BD0000545184375F319C123AEB60803A4C60929
:100BE000856937290020370AC0A8B70A4057054B46
:100BF0009389B947832789C4832B840A8297637FAB
:100C0000752983C7E4010357C409B38BAB40BA9776
:100C100063E1771D83578405A30E040022858507B1
:100C2000231CF40483479402D5CB152122859730E9
:100C300002E0E780005041E5838644012307040475
:100C40008327840A8359C40963DC0608B3893741C2
:100C50000327440A2320340BBA9763C90600B7065A
:100C6000C0A863E5D700B7064057B6978346B400DF
:100C70002324F40A8547639DF606835764090356C7
:100C800044056367F606034604016313D60683260C
:100C90008411B9EE8326C40BA1EE0346F40093063B
:100CA000000C6317D604B387E7020327C40AB3D73F
:100CB000E70203C7D4010507BA97231EF408B25010
:100CC000225492540259F249624AD24A424BB24BE0
:100CD00045618280E378F6EE1A96EDB5E124B9B766
:100CE000E3F637F73705C0A83E95B30935418DB710
:100CF000832789C482978387440163D00708B38917
:100D0000A940638D09088327440A63F9F90897D03D
:100D100002E0E780A09997D002E0E780E0A43727BF
:100D20000020832647EEB567BD07DCC60F10000024
:100D3000832747EE9A09096723A2370798C7372701
:100D40000020130787EC930600F82302D7003D67C5
:100D50003D07D8C70347B400854781456315F702AF
:100D600037C5020013050526971001E0E780C07F14
:100D7000930700FD2307F40099B7E3F2A9F8B7073A
:100D8000C0A8BE99ADBF37750200130585979710AF
:100D900001E0E780607D930710FCE9BF0347B400E2
:100DA000854703A304036317F7009545E30903F0A0
:100DB000154529A0E30503F0954519452254B25085
:100DC00092540259F249624AD24A424BB24B4561AF
:100DD000028363D60B068357840522858507231C6F
:100DE000F40483479402B1CB9D242285973002E01E
:100DF000E78020340327440A8327840ABA970387AD
:100E000044016345070063E34701D6972324F40AAE
:100E10008347B40063976701228597B002E0E780BB
:100E200060098347D40185458507A30EF4009C58CB
:100E3000E38207DC1545829775BBAD227DB703C7FA
:100E400044018357640593168701E1868E0763D7B3
:100E500006021307204EB387E7029583E3F177E795
:100E6000A1452285973002E0E78020242302A402D6
:100E700003A304038945E31D03F291B5058B11C754
:100E800013078002B387E702D1BF05671307B7478F
:100E9000B387E702938707049D83C9B703C744015B
:100EA00083576405B30B754193168701E1868E075E
:100EB00063D0060A1307204EB387E702958363F2D7
:100EC000FB0C832789C4829783578405AA8B2285CC
:100ED0008507231CF40483479402C1CB8D2A228505
:100EE000973002E0E780E024E31B05DC0327440A97
:100EF0008327840ABA97038744016345070063E3A5
:100F00004701D6972324F40A8347D40113F7070F28
:100F100039CF2285973002E0E78060D9A30E040024
:100F20008327840AE3FFFBF88347B40063956705D2
:100F30000357640983574405E3FEE7CA228597B047
:100F400002E0E78020F79C58E38607CA8D45DDB5AF
:100F5000058B11C713078002B387E7028DB7B387EC
:100F60003703938707049D8399BF2D288DBF85077D
:100F7000A30EF40075B79C58E38E07C68D4519453E
:100F80005DBDE3CE0BD2A1452285973002E0E7801C
:100F9000C0112302A40203A30403E30203D2914578
:100FA00001BD8280797126D206D622D44AD04ECE97
:100FB00052CC56CA5AC85EC662C48347C5040344AD
:100FC0007513AA843E941374F40F9307400263F6DA
:100FD00087001304B4FD1374F40F03AA841383AAC7
:100FE000C413A38B841222865285D685975003E0C2
:100FF000E78040D6058905ED03CBD412014981492C
:10100000337B6403130C50024A865285D685975071
:1010100003E0E78020D40589937BF90F11C56306AF
:101020003B03850993F9F90F0509E31F89FD238B1C
:101030008412B250225492540259F249624AD24A5E
:10104000424BB24B224C456182805E84CDB78327F0
:10105000050B03568505797193D60701BD8EC2062F
:10106000C182358E1357764093575640898B058B36
:101070005D8F93573640918B5D8F93571640A18BB0
:101080005D8F93171600C18B5D8F9317360093F712
:1010900007025D8F931756009355860093F7070458
:1010A0001E065D8F1376F60F518F93D7554013D6DA
:1010B0003540118A898BD18F13D67540D18F13D6C5
:1010C0001540218AD18F13961500418AD18F13962E
:1010D000350013760602D18F139655001376060459
:1010E0009E05D18F93F5F50FCD8FA20745465D8FF5
:1010F0003307C70222D42A8426D252CC56CA032AE6
:101100008413832AC4135AC806D6369742074183EC
:1011100093577740135557400989858BC98F1355CD
:1011200037401189C98F135517402189C98F13156D
:1011300017004189C98F1315370013750502C98F30
:101140001315570093558700137505041E07C98FA3
:101150001377F70FD98F13D5354013D75540118921
:10116000098B498F13D57540498F13D515402189B7
:10117000498F139515004189498F139535001375D3
:101180000502498F13955500137505049E05498F77
:1011900093F5F50F4D8F2207D98FB387C7024AD039
:1011A0004ECE5EC662C4B697C207C18313D77740DE
:1011B00013D557400989058B498F13D537401189BD
:1011C000498F13D517402189498F139517004189FD
:1011D000498F1395370013750502498F13955700F2
:1011E00093D58700137505049E07498F93F7F70F72
:1011F000D98F13D5354013D755401189098B498FA5
:1012000013D57540498F13D515402189498F139502
:1012100015004189498F1395350013750502498FD3
:1012200013955500137505049E05498F93F5F50F29
:101230004D8F2207D98FB387C702130650025285FC
:10124000D685B697BD8E93940601C18033F6C4024D
:10125000137BF60F975003E0E780C0AF05890DEDD3
:101260008347D41201498149B3849702130C500279
:10127000C1804A865285D685975003E0E78080ADCD
:101280000589937BF90F11C563863403850993F9AA
:10129000F90F0509E31F89FD230B6413B250225493
:1012A00092540259F249624AD24A424BB24B224C02
:1012B000456182805E8BCDB70111B727002022CC1B
:1012C00003A407E626CA4AC84EC606CEAA84130956
:1012D0002500854915C083C7140003473400858B5A
:1012E0006304F700405CFDB71946930544004A8546
:1012F000EFF06FA8E31835FF2285F2406244D24434
:101300004249B249056182804111B727002022C4B9
:1013100003A407E626C24AC006C693042500054971
:1013200001E82285B2402244924402494101828070
:10133000A6851305A402978002E0E7802037E30228
:1013400025FF405CF1BF4111B727002022C403A450
:1013500007E626C24AC006C693042500054901E8EF
:101360002285B24022449244024941018280A685EE
:101370001305A401978002E0E7804033E30225FFD4
:10138000405CF1BF0111B727002022CC03A407E67F
:1013900026CA4AC806CE2AC42EC6B284054919E018
:1013A00001453DA003479100834734006318F702CD
:1013B0001946930544001305A100EFF0CF9B631F6E
:1013C0002501A6851305A402978002E0E780002E80
:1013D000F2406244D244424905618280405CC1B718
:1013E000011122CC0324850826CA4AC84EC652C41D
:1013F00006CEAA841D499309A509054A83A7C408F6
:101400006364F4000545B9A003C7D40083474400D2
:10141000631A2705638427010040CDB703475400B2
:1014200083C79409E31AF7FE1946CE8513056400B5
:10143000EFF06F94E31245FF8357E4000357C400B5
:10144000C207D98FD85093F707F0137707F0E395C9
:10145000E7FC0145F2406244D2444249B249224A83
:1014600005618280E31AF7FA0347540083C79409A1
:10147000E314F7FA1946CE8513056400EFF0AF8F39
:10148000E31C45F9F9B70111B727002022CC03A4CA
:1014900087E526CA06CE2AC42EC6854419E401452E
:1014A000F2406244D24405618280034714008347BE
:1014B00091006304F7000044D5B719469305A100D5
:1014C00013052400EFF02F8BE31795FE0545C9BFE8
:1014D0005D7136D4B72600203AD203A706EA3ED083
:1014E00026DC1C5F4ACA86C6998396C49AC29EC0EF
:1014F00022DE2ADA2ED832D642CE46CC72C876C642
:101500007AC47EC2858BB68437290020A5C71C5FAC
:101510003724002093F7F7F91CDF834784EC13048A
:1015200084EC93F7070499C7B727002083A787C4E3
:10153000829708C88547A302F4008347440093F7C5
:10154000070499EBB727002083A747EE5844F8D348
:10155000930700FC2302F40083476400130700088C
:10156000631AF7008327C9E99C439983858BADE70C
:101570002303040003A704EA1C5F9183858B99CBA6
:101580001C5FBD9B1CDFB7270020938787EC0547B6
:101590002382E7008327C9E9D8430583058B19C750
:1015A000D843759BD8C3D843799BD8C37254B640EF
:1015B000A64216438643E2545255C2553256A256AD
:1015C000125782577248E2485249424EB24E224F59
:1015D000924F616173002030930700FC2303F400F5
:1015E00051BFB7260020138786EC83C786EC858B16
:1015F00089EB83471700858B89E783474700858BF5
:10160000EDD7828037270020832607EA05459C5EB8
:101610009583858BADE309C69C5ABD832300F600F4
:1016200081CDB7270020938787EC83C76700930697
:10163000000C09456391F604032707EA09461C5B81
:10164000144337270020C607B1828D8AC983130748
:10165000A7AA6393C602918393F607208DC693E7EA
:1016600007C08316070089C6B6978946B3C7D70255
:101670002310F700014582808D8393F6074081C6D1
:1016800093E70780F9BFC207C187E1BFB7280020F1
:1016900083A708EA372300203706330023A4070076
:1016A000984B1375F51F370EFCFF1367F70398CBA4
:1016B00098437971370F04001377F7E798C398437D
:1016C000914F7D1E1377F7E71367071098C38326A2
:1016D00043F08542930E80029846518F98C6372773
:1016E0000020032747EE9306900D014634CBF84FB8
:1016F000F576FD16137707E0498FF8CF9843758F7D
:1017000098C3814703A708EA032843F09376F60FAE
:10171000231C0704231007060325C80275992326F6
:10172000A802032807001375F607137808F8336535
:10173000A80008C348533365E50148D3035587051E
:10174000E3FEAFFE48533375C50148D30357070680
:10175000280032951377F70F2300E50019EF13D710
:1017600036002E97034507009D8AB396D200850761
:10177000C98E93F7F70F2300D7000506E314D6F9B7
:10178000854611488548130380026363F8040146C7
:10179000814728003295034505001377F60F63E172
:1017A000A602135537002E95034E05001D8B339767
:1017B000E80085073367C70193F7F70F2300E500BB
:1017C0000506E31866FC850693F6F60FE39F06FB15
:1017D0004561828041E5B727002083A647EE41118D
:1017E00022C406C62E873E84FC52FDFF3A85B28590
:1017F00097C002E0E78060CAB727002083A707EA06
:10180000B70680009843558F98C3D857719BD8D797
:10181000832744EE094798C3B7F700E003A707D131
:101820006D9B23A8E7D003A707D15D9B23A8E7D032
:1018300073005010B7270020938787EC03C7270059
:10184000058B09EB03C73700058B09E703C7470082
:10185000058B6DD7B2402244410182808D47631FC2
:10186000F502B727002083A707EAB7068000984350
:10187000558F98C3D857719BD8D7B7270020938727
:1018800087EC03C72700058B51E303C73700058B9F
:1018900035EF03C74700058B6DD782808547E31E70
:1018A000F5FCB727002083A647EE35673D07D8C66D
:1018B0000F10000037270020832607EA09469842C8
:1018C00031830D8B6317C70203A747EE93062044AD
:1018D00074D303A747EE8967930600F81CC7B727A0
:1018E0000020938787EC2382D700BD67BD075CC7C4
:1018F00069B7984283A647EE31830D8B09E713073A
:101900006019F8D2F9B71307E01BE5BF8280B7264C
:10191000002037270020938786EE130687EA0346C8
:10192000B60183C7D700938686EE130787EAB2977E
:1019300093F7F70F7D466361F604A300F700834732
:101940001700484B05463316F600A386F600698E4D
:1019500005EE03C6160113080002814633F6C702DE
:101960008147B355F500858993F8F70F99C9631737
:10197000D600A300170182808117C1B7850693F6B0
:10198000F60F8507E39F07FD8280B727002083A716
:1019900087C4011122CC26CA52C406CE4AC84EC6FC
:1019A00056C25AC08297B7240020938784EE80479E
:1019B000014A6306A406B7270020138747C0030720
:1019C0004701938484EE138947C063550706018D50
:1019D00037270020930787EA83C7A70113545500D0
:1019E000137AF501930987EA6368F402B70AC0A87D
:1019F000370B4057293F83C6A9019C4413975600D3
:101A00003E9783074901158C63C50700636357013F
:101A10005A9798C4E370D4FE1604336A4401F24026
:101A200062445285D2444249B249224A924A024B08
:101A300005618280E37D85F8B707C0A833848740BD
:101A4000229579B7B727002083A787C4411122C404
:101A50004AC006C626C2829737290020930789EE1E
:101A600080476308A406B7270020838787C113092E
:101A700089EE63D80704018DB7240020938784EA98
:101A800083C7A70113545500938484EA6363F40465
:101A9000BD3D83C7A401032789009396570036975D
:101AA0001D8C2324E900E375F4FE224403C51400D1
:101AB000B240924402498145410117E302E06700C8
:101AC000A376E37A85FAB707C0A8338487402295C6
:101AD00065B7B24022449244024941018280B7274F
:101AE000002003A747F0B75702009387079F83267C
:101AF00007091396560063580600832607091396B4
:0C1B0000660063440600FD17FDF38280C0
:101B0C00B72700203727002083A747BB0327C7BA76
:101B1C0001456313F700828083D6670081E683D684
:101B2C00470036959C43F5B7B727002083A547C0DF
:101B3C0037270020938747C013860522232AC7BA6C
:101B4C0003D74700938785FFB72600204111BA972A
:101B5C00056523A6F6BA06C61D05935637006374B1
:101B6C00E500930600203307D600372500202328F4
:101B7C00E5BA23A0E522E1162312D60023130600B2
:101B8C001CC3998FE1172312F700231307008D3F15
:101B9C00B240B727002023ACA7BA41018280B727F7
:101BAC000020B726002083A747BB03A6C6BA2A8706
:101BBC00B305B5406314F6003A8529A893868700CF
:101BCC009C43E369D7FEE377F7FE2E85E3E4D5FE6D
:101BDC00E3F2F5FE828023AC05FE1C4191E7010087
:101BEC0001000CC18280BA8703A787FF6DFF23AC6D
:101BFC00B7FE82801DC18346E5FF1307F00F9147A6
:101C0C00639EE600411106C697E0FE1FE780A04DDB
:101C1C00B24081473E854101828095473E85828056
:101C2C0001E9014582800145B24022444101828094
:101C3C00411122C42A84210542059305D004418117
:101C4C0006C697E0FE1FE780203B71DDFD57232081
:101C5C000500231285002303F5002105F1B741117E
:101C6C0026C2B724002083A7C4BB22C44AC006C620
:101C7C000144014989E7A165A52B15C401A803C737
:101C8C00E7FF6319A70205CCA165052603A7C4BB12
:101C9C00832784FF6317E40223AEF4BAFD57232C89
:101CAC0004FE230FF4FE2285B240224492440249E2
:101CBC004101828011E03E8983A787FF65BF3E8486
:101CCC00E5BF232CF9FED9BFB9C9B727002083C7BC
:101CDC0017BC411122C406C62A842E856368F40001
:101CEC00113F0D45B24022444101828083A785FFFC
:101CFC0099E703C7E5FF9307F00F6305F700DD3D98
:101D0C001545CDB737250020238F85FE1305C5BBA0
:101D1C00D93522852244B240A165410179A41545EB
:101D2C008280B727002023AE07BA8280B727002015
:101D3C0083A707C099E33E85828003D727006316EB
:101D4C00B70003C70700E308A7FEDC47E5B741115E
:101D5C00939705014AC006C622C426C2C1872E89A4
:101D6C0063DE0700ED3D11C1713521653345A900D6
:101D7C00B24022449244024941018280AA86014524
:101D8C00E5D901443D47B3578940858B9DCBB72797
:101D9C00002083A407C4BD4791E28147A2978E0718
:101DAC000545BE9433158500131405019C40C840AD
:101DBC004180829723A0040023A204003345240110
:101DCC0045BF0504E311E4FC0144CDBFB727002057
:101DDC0083A747C2411122C406C63724002013042E
:101DEC00049D85C7829708C00840B74703009387B6
:101DFC00D73F3305F502B7A72600938737ECB240DF
:101E0C003E9508C0224441018280B727002018402B
:101E1C0083A707BDBA971CC0C1BF01C919C62A96B2
:101E2C000505A30FB5FEE31DA6FE8280814733078F
:101E3C00F5000307070019E33E8582808507C5BFBF
:101E4C0001112E8626CAAA84131506019305F004E7
:101E5C00418122CC06CE32C697E0FE1FE780C01926
:101E6C002A8419C53246A68597E0FE1FE780A04854
:101E7C002285F2406244D244056182809307F6FFCA
:101E8C00BE952A966313C5008280FD1583C7150085
:101E9C000505A30FF5FEFDB7AA87014581CF09CE35
:101EAC003E96850703C7F7FF6317B700E31BF6FEE3
:101EBC00054582808280014582806DC17971B7278A
:101ECC00002022D456CA03A707C4BE8A06D626D23F
:101EDC004AD04ECE52CC5AC85EC60144F947931B29
:101EEC0034003308770103280800137BF40F6312C6
:101EFC00080AAE89C165AA84938505F041453689E7
:101F0C00328A97E0FE1FE780200F15E5B7270020E7
:101F1C0083A747C389EF0145B2502254925402590A
:101F2C00F249624AD24A424BB24B456182808145AA
:101F3C0011458297CDB7B726002003A706C031E71D
:101F4C0023A0A6C02326050023244501B94763F32B
:101F5C00670145148547B39787001337FB00C20709
:101F6C00134717002300E500C1832311F50083A755
:101F7C000AC423220500DE9784C323A23701E30C95
:101F8C0009F82300690141BF36875447F5FE48C75D
:101F9C0055BF0504E315F4F42145BDBF0945828006
:101FAC00B727002003A507BD8280B727002083C771
:101FBC0017BC6370F5023727002093171500032513
:101FCC00C7BF3E9583570500DD8D2310B500014535
:101FDC0082800D458280B727002083C717BC6372AF
:101FEC00F50237270020931715000325C7BF93C5AB
:101FFC00F5FF3E9583570500FD8D2310B500014577
:10200C0082800D458280B727002083A7C7BF0605B5
:10201C00AA9703D507008280B727002083C717BC77
:10202C006364F50001458280B727002083A787C42D
:10203C00011122CC26CA4AC84EC606CEB7290020AA
:10204C0032842E89AA848297938749C083C747011B
:10205C00938949C013978701618763590702130657
:10206C0010273304C4023D0415802A9463490700E9
:10207C00B707C0A86365F400B70740573E94CA85FC
:10208C0026856D311DC100C5054589A0858B89C785
:10209C0051463304C402D1BF05661306B647330458
:1020AC00C402130404082180C9B793E504F0C205E7
:1020BC00C181414597E0FE1FE78000F419ED83A72D
:1020CC00090381C7A685114582970145F2406244F8
:1020DC00D2444249B24905618280372700208327C8
:1020EC0007C08DE32320A7C085472326050000C524
:1020FC002311250123009500A300F50023220500E0
:10210C0061B7BA87D84775FFC8C7F9BFF54763EA07
:10211C00A706B727002083A707C4131735000111A2
:10212C00BA979C4322CC06CE26CA2A840945A9C359
:10213C009334F40093C4140026852EC6E935B947B0
:10214C00324663FC8702130714FF8547B397E700F9
:10215C00E98F094591EFB94763F3870045140545AD
:10216C003314850093150401C1812685753501450D
:10217C00F2406244D244056182808547B397870060
:10218C00C1BF09458280411122C426C24AC006C67D
:10219C00AA842E8932844935CA852685413E39C5A3
:1021AC00B727002083C787C11397870161876350C6
:1021BC000702930710273304F4023D04158040C135
:1021CC000145B24022449244024941018280858BF0
:1021DC0089C7D1473304F402DDB785679387B747C6
:1021EC003304F402130404082180D1BF2145D1BF6C
:1021FC00411122C426C24AC006C6AA842E893D3685
:10220C002A8419C123110500CA852685E9330145A5
:10221C0011E01945B24022449244024941018280A6
:10222C007547636DA70437270020832607C4411127
:10223C0026C293143500A696944222C406C6AA87D9
:10224C003A8409459DC613B5F70039471345150067
:10225C006373F700C5178545B395F500C205C181B9
:10226C00413F832704C40145A69723A0070023A25E
:10227C000700B24022449244410182800945828089
:10228C00411106C622C45D3411E50145B240224419
:10229C0041018280B727002083A787C4004582971D
:1022AC00B727002083C787C11397870161876352C3
:1022BC0007023305A440E34A05FC635207021307E7
:1022CC007034B307E5023335E502B9834A055D8DF9
:1022DC0075BFE370A4FEB706C0A83694D9BF858B32
:1022EC0081C713073033F1BF6547B307E5023335B8
:1022FC00E502A5835E05E1BF82804111B72700206E
:10230C0006C623A2A7C40295B240B727002023AA71
:10231C00A7BC014541018280954763E9B700B72707
:10232C0000208A05938747BEBE9588C182804111E3
:10233C0006C622C426C2EFF02FFF372500206146C7
:10234C008145130545BED13C3724002013060002FD
:10235C00130504BC8145D134B727002023A007C046
:10236C00B727002023A207C4B727002083C707C2C2
:10237C00130404BC9305101013D527008D8B3E95C8
:10238C008D473305F5029947B724002035051375A1
:10239C00F50F2301A4003305F5021305050F97E093
:1023AC00FE1FE78060C5B727002023A0A7C4834782
:1023BC0024001305050F23A0A4BE8A073E95B7275A
:1023CC00002023AEA7BEB13A8347140003A704BE76
:1023DC00B7260100139627003A969386A6D514C209
:1023EC0013862700850793F7F70FA300C400B240AC
:1023FC0022448A07BA9794C39244410182803727BA
:10240C000020130707BC834717008346270063F09F
:10241C00D702B726002083A606BE13861700A3009A
:10242C00C70013972700369708C33E858280930711
:10243C00F00FE5BF411122C4004106C626C24AC0B6
:10244C0089476307040E4177618FB70600208947DF
:10245C006310D70E03594500630C090CAA84194666
:10246C009305F00F59050D3C05478D476302E50CAC
:10247C0022854A8681455532372400201306C00335
:10248C008145130544C0513A1306C003A6851305B4
:10249C0044C097E0FE1FE78000E6930744C003D7D3
:1024AC00C70009E7130700202396E70003C7E700DE
:1024BC0001E705472387E70003C7F70001E76D47EE
:1024CC00A387E70003C7070101E715472388E70047
:1024DC0003C7170101E70547A388E70003C75701A6
:1024EC0009E703C70701A38AE70003C7270101E730
:1024FC002D472389E70003C7E70109E7130780028B
:10250C00238FE70003C7370109E71307D002A3891C
:10251C00E70003C7D40101E70947A38EE7009C57E6
:10252C0091C78297B72700202393A7BC0935814711
:10253C00B2402244924402493E85410182804111BD
:10254C0006C697E0FE1FE780400FB727002003C6A2
:10255C0087C1058A05CE930730333307F502B337AD
:10256C00F5023983CA07B7260020938506BCD98F9C
:10257C00D849938606BC01456307F7006370F702E0
:10258C003385E740DCC9B24041018280E54733071F
:10259C00F502B337F5022583DE07F1B737653D0841
:1025AC0009C637856F0813050590198D3E95DCCA51
:1025BC00D9BF011122CC06CE2A842EC6EFF01F8182
:1025CC00B245F240818D33A5A50222956244137564
:1025DC00F50F05618280011122CC06CE2A842EC60D
:1025EC00EFF0CFFEB245F240818D33A5A5022295C6
:1025FC0062444205418105618280011122CC06CEE4
:10260C002A842EC6EFF08FFCB245F240818D33B593
:10261C00A5022295624405618280B727002083C7FA
:10262C0087C11545139787016187634C070013F722
:10263C003700014519E713F70707154519C313D5DB
:10264C0047408280B7270020138747C018572DC3F7
:10265C00411122C426C24AC006C6138947C002973C
:10266C00B7270020138707BC035767002A8493847D
:10267C0007BC0DCBBA876373A700AA87C207C183B7
:10268C00BA866373E400A286C206C182958F514755
:10269C00635AF7008327C90291C38297EFB0A11B3D
:1026AC0023938400B2402244924402494101828027
:1026BC008280B7270020138747C05857011122CCBE
:1026CC0006CE138447C001C72AC602973245B727E6
:1026DC00002009CD23A4A7C4372501001305A55458
:1026EC002939F240624401450561828003074401A7
:1026FC006354070237270020130707BC232C07005D
:10270C00FD5637C700402324D72637070020130770
:10271C00076123A4E7C4C9B7370700201307276450
:10272C00CDBF411122C437240020930744C09C47DD
:10273C0026C206C6B7240020938404BCB1CF130470
:10274C0044C01C5CB1CBDC4C85E30345E4008357EF
:10275C00C4009305E0043305F5024205418197E07E
:10276C00FE1FE7806089C8CCC84C1DC58357C400C8
:10277C000346E4009305F00F3306F602EFF0EFE9A1
:10278C00D04C08448357C40008C28345E400B38589
:10279C00F5021C5C89818297C84C19C597E0FE1F15
:1027AC00E780609423AE0400B24022449244014579
:1027BC004101828001114AC837290020930709BCC6
:1027CC0022CCC04F4EC652C456C206CE26CAAA8AC6
:1027DC00AE89328A130909BC29E4B72400209384FA
:1027EC0044C09C4499E3A944BDA803C5E40083D725
:1027FC00C4009305E0043305F5024205418197D0EE
:10280C00FE1FE780607F2A8441C1DC58B5CF83C5A9
:10281C00E40003D7C4002A868844B385E502898185
:10282C00829791451307A005898193972500A2975C
:10283C0083C607006396E60483C61700639F56039E
:10284C0085058A054E86A295528597E0FE1FE78086
:10285C0080AA8327C901814463878700228597E07A
:10286C00FE1FE7804088F240624426854249D244EC
:10287C00B249224A924A0561828083D527006DB7FE
:10288C008327C901E38187F6228597E0FE1FE78045
:10289C00808591BFB7270020938747C09447B9C262
:1028AC00985F29C30546631FC502411122C4372412
:1028BC000020130404BC504C06C60DC283C5E700AF
:1028CC0083D7C7003685B385F50289810297484CBA
:1028DC0097E0FE1FE7802081232E0400B2402244A3
:1028EC0041018280828001114EC6B7290020938756
:1028FC0009BCDC4F22CC4AC852C406CE26CA2A8A4E
:10290C002E893284938909BCA1EFB72400209384CB
:10291C0044C003C5E40083D7C4009305E004330529
:10292C00F5024205418197D0FE1FE780E06C23AE93
:10293C00A9002A8611E92945F2406244D244424951
:10294C00B249224A05618280884419C9DC5889CB76
:10295C0083C5E40003D7C400B385E502898182975F
:10296C0003A5C90191461308A005FD5593D7260070
:10297C00C207C183139727002A9703460700631BDE
:10298C000603834817000356270063934803B306D6
:10299C00D64063CD260185078A073E954A86A285D7
:1029AC0097E0FE1FE7802095014579B7A300B7009B
:1029BC00B2866DBF37260020130646C08345E6005D
:1029CC000356C600B385C502338626011106E3E41F
:1029DC00C5F613063900719A1106B2962300070149
:1029EC00A30047012311D7007DB70145828083C71F
:1029FC0005002300F50083D72500A300F50083D73D
:102A0C002500A1832301F50083C74500A301F50030
:102A1C0011458280B727002023AA07A0B7270020E2
:102A2C0023A807A0828029C1411126C206C622C450
:102A3C00AA8401458DC52E84B765030022854146C5
:102A4C00938505C297E0FE1FE780E08A83C70400E8
:102A5C0005452306F40083C71400A306F400B24016
:102A6C00224492444101828001458280011122CC92
:102A7C0026CA06CE0947AA8432846381E5044146FE
:102A8C008147639BC500638FE6006397B6000DA872
:102A9C0041478147638EE600F2406244D2443E8552
:102AAC00056182808A852285BD3F41468A8519A8A9
:102ABC008A85953F41468A85228531A0E39AB6FCEA
:102ACC002E86A285268597E0FE1FE7804086AA8782
:102ADC00E1B7B727002023A8A7A08280B727002042
:102AEC0023AAA7A08280011122CC0354650006CE34
:102AFC0026CA4AC84EC641C083298500AE842A889E
:102B0C0003C90900814713178901618763550702BF
:102B1C00B147054563FA8704511442040355280054
:102B2C00418033878900A2864E868545EFD04009C7
:102B3C00B337A00085077D1413556900420405893D
:102B4C001379F90341802380F400A380A40023812E
:102B5C00240123928400014719C01387190098C4DB
:102B6C0009476383E7000145F2406244D24442497D
:102B7C00B249056182800545C5BFC167F917630A73
:102B8C00F502D94763F7B702011122CC2EC606CE47
:102B9C002A84EF80D068B2456368B5002285624410
:102BAC00F24005616FA0A07BF240624405450561CF
:102BBC00828005458280C167F9176314F5006F8028
:102BCC001066411106C6EFA0806811E15D45B24068
:102BDC004101828091476394F502834705002300ED
:102BEC00F6008347250003471500A207D98F231150
:102BFC00F6008347350001452302F600828011451B
:102C0C0082804111814522C426C206C6AA840525AC
:102C1C002A8409E9B727002083A707A181C7F945B2
:102C2C00268582972285B2402244924441018280BB
:102C3C0039714ED656D25AD006DE22DC26DA4AD864
:102C4C0052D4AA8A2E8BB28941EF36C6AD37914544
:102C5C00EF80D06DAA844D492DC9B246054A238018
:102C6C0034010544630A0B00B68513851400029BDE
:102C7C000505131405014180E20993D9894163D3F9
:102C8C000902C1455685EFA0806A654905E933867E
:102C9C008400A2852685EFC0F0342A8905E1310431
:102CAC004204418091472C085685231CF10026CE06
:102CBC00231D8100EF90907C2A8901C963070A00CB
:102CCC00268597D0FE1FE7800042F25062544A8559
:102CDC00D2544259B259225A925A025B21618280D3
:102CEC00BA84014AADBF011122CC26CA4AC84EC6CD
:102CFC0006CE2A893284B689253FAA840DE1B727EE
:102D0C00002083A747A181CF05476317E40003C4C4
:102D1C00090005041374F40FA2854A858297F240CA
:102D2C00624426854249D244B24905618280AE860E
:102D3C00B7350100014705469385A59F6DB783D72D
:102D4C0005002300F50083D70500A183A300F5003F
:102D5C000945828083D705002300F50083D7050041
:102D6C00A183A300F50083D725002301F50083D7A9
:102D7C002500A183A301F5001145828083D70500AE
:102D8C002300F50083D70500A183A300F50083D7AA
:102D9C0025002301F50083D72500A183A301F500AD
:102DAC0083C755002302F50083C76500A302F50015
:102DBC0003D58500190542054181828083D7050022
:102DCC002300F50083D70500A183A300F500094576
:102DDC00828083D705002300F50083D70500A183EB
:102DEC00A300F50083D725002301F50083D7250028
:102DFC00A183A301F5001145828003D5450006058A
:102E0C0042054181828083D705002300F50083D7DA
:102E1C000500A183A300F50003D525000905420593
:102E2C004181828083D705002300F50083D70500FC
:102E3C00A183A300F50083D725002301F50083D7D8
:102E4C002500A183A301F50003D54500110542051A
:102E5C004181828083C705002300F50005458280EF
:102E6C0083D70500411122C406C62300F50083D781
:102E7C0005002E841105A183A30EF5FE83D7250032
:102E8C009505230FF5FE83D7D5FFA183A30FF5FE80
:102E9C0003C6F5FF97D0FE1FE780E04503454400CD
:102EAC00B24022441105410182808947639CF500A0
:102EBC0083471500034705000145A207D98F23104E
:102ECC00F60082801145828003D70500D94763FE46
:102EDC00E702011122CC06CE2EC62A84EF803034B4
:102EEC00B24683D70600636DF50022856244F2403A
:102EFC00B7350100014709469385A5D405610DBB83
:102F0C00F2406244094505618280094582809147FF
:102F1C009DC583460500FD15C2058547C181639299
:102F2C00F60213D725008D89914791E9914701CB82
:102F3C0005052301D6002310E60048C281473E85D3
:102F4C00828009479147E39CE6FEC94733D7F502D7
:102F5C00B3F5F502D1BFAE86B73501000147114676
:102F6C00938505D6F1B193F7350091EB89819147A3
:102F7C0089C52310B60048C281473E85828091479F
:102F8C00EDBF03C745008947631AF702011122CC34
:102F9C002A84C84506CEAE86014719C52EC69D4566
:102FAC00EFE0FFBFB2462A8722856244F240B73574
:102FBC0001001946938585D805619DB90945828024
:102FCC0099E1114582808347050005472311F600DE
:102FDC00E379F7FEFD1593F5F50F33D7F502B387BB
:102FEC00E702E390F5FE050548C22310E600014513
:102FFC00828083C745000947AE866385E700414759
:10300C006399E700B7350100014721469385C5E672
:10301C0005B1094582802310B60091E1014548C2F3
:10302C0001458280AE86B73501000147294693855C
:10303C0085DCFDBE2310B60091E1014548C2014577
:10304C008280AE86B7350100014731469385E5DDB8
:10305C00C5B62310B60091E1014548C201458280F6
:10306C0003D74500854763FDE702011122CC2A8472
:10307C00884106CE0DC12EC68545EFE05FB22A878A
:10308C0022856244B246F240B73501003946938539
:10309C0065E0056171BEF2406244094505618280BC
:1030AC000945828091479DC5034705008D46914790
:1030BC0063F2E602FD15C205C181B3C6E502330811
:1030CC00D7026399050105052310D6002311E600EC
:1030DC0048C281473E85828083C745000947AE863A
:1030EC006385E70041476399E700B7350100014765
:1030FC0041469385C5E62DBE09458280B335B000A7
:10310C00139525008280011122CC26CA06CE03C756
:10311C0085008547AA842E8449466310F702613CDA
:10312C008357240049151306200963C8A700F240F1
:10313C006244D24409450561828003479400854767
:10314C006314F70013660604484011C58D4532C65A
:10315C00EFE0FFA43246A2866244F2402A8726851D
:10316C00D244B7350100938525E10561D1B48D4773
:10317C0063FFB7028347150003470500F115A2074B
:10318C00D98F2310F6008347350003472500C2056D
:10319C00A207C181D98F2311F6002312B60089C56D
:1031AC00110508C60145828023240600E5BF1145A0
:1031BC008280011122CC2A84884506CEAE8611C5A8
:1031CC002EC69545EFE0BF9DB2462A872285624404
:1031DC00F240B73501005946938505E3056189BC7A
:1031EC00B335B000139525008280AE86B73501004B
:1031FC0001476146938505E625BC8547114563F477
:10320C00D7028347160083450600A207CD8F2310F3
:10321C00F7009387E6FF2311F70089476386F600D2
:10322C00090650C30145828023220700E5BF0147F0
:10323C00814679468145EDBA83D705002300F50018
:10324C0083D70500A183A300F5000945828083C7BD
:10325C00250005472300F50003D505006397E7001B
:10326C000A050505420541818280C9473305F502EF
:10327C00CDBF03D505000A0542054181828083D765
:10328C0025002300F50003D5050083D72500330561
:10329C00F502050542054181828003D50500828037
:1032AC0003D50500828003D50500828083D72500D5
:1032BC002300F50003D5050083D725003305F5025F
:1032CC00050542054181828083D705002300F50066
:1032DC0083D70500A183A300F50083D72500230124
:1032EC00F50083D72500A183A301F50003D5450084
:1032FC00110542054181828083D705002300F5002A
:10330C0083D70500A183A300F50003D5250009058B
:10331C0042054181828089471145639BF6008347B2
:10332C001600834606000145A207D58F2310F7002F
:10333C00828003D70500D947AE8663F9E700B7351D
:10334C00010001470D469385452471BA09458280D9
:10335C0011456393A6028347160083460600014578
:10336C00A207D58F2310F70083473600834626002B
:10337C00A207D58F2311F700828083C7250005474C
:10338C00FD1793F7F70F6361F70483D705008DCF13
:10339C00011122CC2A84C84106CE15C12EC68945FE
:1033AC00EFE0EFFF2A8722856244B246F240B73540
:1033BC00010015469385A52505616FF0DF92F2405B
:1033CC006244094505618280094582809547114513
:1033DC0063F9D706411122C426C24AC006C68347E8
:1033EC001600BA8403470600A2073284D98F2390B3
:1033FC00F400834736000347260093054400A207D8
:10340C00D98F2391F40089472382F4000946138550
:10341C005400368997D0FE1FE780E0ED9307A9FF93
:10342C002394F4009947631BF90023A60400B240CF
:10343C002244924402490145410182801904C0C4CE
:10344C00FDB7828083D705008DCF011122CC2A8451
:10345C00C84106CE15C12EC68545EFE04FF42A872C
:10346C0022856244B246F240B73501001D46938571
:10347C00E52705616FF03F87F2406244094505611D
:10348C0082800945828099476395F60489474111EA
:10349C0006C62302F7008347160083460600B28552
:1034AC00A207D58F2310F7008347360083462600EA
:1034BC0003464700A207D58F130557002311F700C9
:1034CC00910597D0FE1FE78000E3B2400145410112
:1034DC008280D14711456394F600C1474DBF82806D
:1034EC0083D705008DCF011122CC2A84C84106CE8A
:1034FC0015C12EC68945EFE08FEA2A8722856244E2
:10350C00B246F240B735010025469385A5280561E2
:10351C006FF06FFDF24062440945056182800945F8
:10352C00828089471145639BF600834716008346CA
:10353C0006000145A207D58F2310F70082800111E8
:10354C0022CC2A84C84106CEAE8611C52EC685452E
:10355C00EFE0EFE4B2462A8722856244F240B735A9
:10356C0001002D469385652A05616FF0CFF7114553
:10357C006393A60283471600834606000145A20703
:10358C00D58F2310F7008347360083462600A20709
:10359C00D58F2311F7008280011122CC2A84C841D7
:1035AC0006CEAE8611C52EC68545EFE04FDFB2467E
:1035BC002A8722856244F240B7350100354693854F
:1035CC00C52A05616FF02FF293F71600114589EBB0
:1035DC0089476387F60085822312D70010C3014503
:1035EC008280011122CC2A84C84106CE15C12EC678
:1035FC008545EFE0CFDA2A8722856244B246F24055
:10360C00B73501003D469385252B05616FF0AFED75
:10361C00F240624409450561828083D705008DCF55
:10362C00011122CC2A84C84106CE15C12EC689456B
:10363C00EFE0EFD62A8722856244B246F240B735D6
:10364C00010045469385852B05616FF0CFE9F2406B
:10365C00624409450561828009458280854763FC87
:10366C00D7022304A700A304B700834716008345A1
:10367C000600A207CD8F2310F7009387E6FF2311D6
:10368C00F70089476386F600090650C3014582801E
:10369C0023220700E5BF11458280014781464D4634
:1036AC0081456FF04FE48D47114563FBD70283478B
:1036BC00160083450600A207CD8F2310F700834721
:1036CC00360083452600A207CD8F2311F700938780
:1036DC00C6FF2312F7006386A600110610C701452A
:1036EC00828023240700E5BF011122CC2A8488455F
:1036FC0006CEAE8611C52EC69545EFE04FCAB24632
:10370C002A8722856244F240B73501005D469385D5
:10371C00452D05616FF02FDD854711456397F60048
:10372C008347060001452300F7008280014781464C
:10373C00654681456FF02FDB011122CC2A84C841EC
:10374C0006CEAE86014719C52EC68D45EFE02FC5B6
:10375C00B2462A8722856244F240B73501006D4695
:10376C009385453005616FF0AFCC011122CC2A84D2
:10377C00C84106CEAE86014719C52EC68D45EFE071
:10378C000FC2B2462A8722856244F240B735010047
:10379C0075469385453005616FF08FC9011106CED2
:1037AC002EC6EF90F02601C9B245F2400355250014
:1037BC0005616FD0602CF240494505618280B727C6
:1037CC000020A38007A4B7270020238007A4B727D5
:1037DC00002023A407A2B727002023A607A2B727FF
:1037EC00002023A807A2B727002023AA07A2B727E7
:1037FC00002023A207A2B727002023A007A2B727E7
:10380C000020239607C63D469387C7C62391C7025F
:10381C0071761307400B130606B82391E700239229
:10382C00C70211671D46930600059305000A130590
:10383C00007D2392E7002393C702414705461308F6
:10384C0010F82395E7002396E7002399E700239AC5
:10385C00E700239BE700239CE7002394E7022396D1
:10386C0007032393B7002394B7002397D70023981B
:10387C00D700239DA700239E0700239F07002390BA
:10388C0007022395C702239707021308F007239812
:10389C0007022392E7042393E704239FE704239072
:1038AC00E7062391E7062392E70623990703239A59
:1038BC00C702239BC702239C0702239D0702239E5A
:1038CC000702239F0702239007042391C704239424
:1038DC000704239507042396C7042397D70423983A
:1038EC00D7042399A704239A0704239B0704239C3A
:1038FC000704239DD704239ED7042393A706239460
:10390C00070623950706239607062397B7062398E1
:10391C00B7067D5723990706239AE7068280011183
:10392C0026CAAA84214522CC06CE2E8432C636C4A1
:10393C003AC2EFE0EFAE1DC9A246124732469307DA
:10394C0000FD2300F5009947A30095002301F50025
:10395C002303D500A303E5002312C500AA85228505
:10396C006244F240D24405616FE00FB6F24062440B
:10397C00D24405618280B727002023A4A7A28280AD
:10398C00B727002023A6A7A28280B727002023A850
:10399C00A7A28280B727002023AAA7A282800111A8
:1039AC0022CC4AC806CE26CA2A890144B30489000F
:1039BC006368B400F2406244D2444249056182809B
:1039CC002EC6EFE0AFC093170501C183A183B245AA
:1039DC002380F4009307140093F7F70F850463F921
:1039EC00B700CA9709042380A7001374F40F7DBF96
:1039FC003E847DBF411122C4372400201304C4C46B
:103A0C0003556400C16706C6FD17630FF500B727A1
:103A1C00002003C687D8B7250020938585A3EF9097
:103A2C006068FD572313F400B240224441018280A8
:103A3C0009C925151375F50F1335850E134515009A
:103A4C00828001458280797122D452CC06D626D24E
:103A5C004AD04ECE2A8A2380050001442EC66371BB
:103A6C00C406B387860003C907009304140093F4BB
:103A7C00F40F63070904B307990032C46342F604D8
:103A8C00B387960083C9070036C24E8555370DC9DA
:103A9C00B2459307F9FF92462380F5002246639DB9
:103AAC004901138514003695B25022549254025990
:103ABC00F249624A456182804A941374F40F79BFCB
:103ACC000145DDB7011122CC3724002026CA4AC893
:103ADC004EC69307C4C406CE2E89D0CB8CCBC8C798
:103AEC00AA8441469305F00F4A85EFE0EFBA854969
:103AFC001304C4C4631735030848C1454D3541460A
:103B0C009305F00F2685EFE02FB9054963132503C4
:103B1C0048446244F240D2444249B249C14505612D
:103B2C00BDBD414681454A85EFE00FB7E31935FD30
:103B3C00E1B7414681452685EFE00FB6E30A25FD46
:103B4C00F2406244D2444249B2490561828041113B
:103B5C0022C43724002026C24AC0AE842A89130608
:103B6C00000281451305C4C406C6EFE00FAB9307F2
:103B7C00C4C4A3812701B7270020A38597D8EFC021
:103B8C003071854719C1814749452306F4C4B240B9
:103B9C0022449244024941018280814781CD19C956
:103BAC008547631BF50083C7550093E707FCA38289
:103BBC00F50085473E85828089476317F50083C7EA
:103BCC00550093F7F703E5B70D478547E314E5FE7A
:103BDC0003C755001377F70313670704A382E500A7
:103BEC00D1BF81478DC105C103C755009306000C99
:103BFC0085471377070C6308D700930600048D479D
:103C0C006303D70089473E858280411122C4005D41
:103C1C0006C626C21DC8AA84085009C597C0FE1F37
:103C2C00E780604C485009C597C0FE1FE780A04B49
:103C3C00085409C597C0FE1FE780E04A228597C04B
:103C4C00FE1FE780404A23AC0402B2402244924457
:103C5C004101828019E9B727002083C7E7C491C7C7
:103C6C0037250020130585A18280372500201305F8
:103C7C0045C68280B727002003C5E7C48280B727DA
:103C8C00002003A587C58280B727002003A5C7C5E0
:103C9C008280B727002083A707C688438280B72776
:103CAC0000209387C7C4D44B9842050798C203C51C
:103CBC0037009307F00F6305F50091656FE0EFAEE9
:103CCC008280011122CC06CE2E8432C6EF90A064E5
:103CDC009147B2456310F502B727002083A747A38D
:103CEC0095C303A30700630F030022856244F240CF
:103CFC0005610283B727002083A7C7A281C703A34E
:103D0C004700D5B7F2406244054505618280011138
:103D1C0022CC2A840355450006CE26CA4AC84EC674
:103D2C00EF9020463DC92A89834405008349C5008C
:103D3C00E93D4A85EFA0A03C03554400EF90205983
:103D4C0037290020130909A483470900B9CB639ACA
:103D5C009704B727002083C517A42685813419E161
:103D6C002300090003554400EF90E05A9147631F6C
:103D7C00F500B72700209387C7C48356440003D7A8
:103D8C0067006395E6007D572393E700F240624499
:103D9C00D2444249B2490561828081499304F00FB3
:103DAC0045B79307F00FE38FF4FA8346640003568C
:103DBC004400034524004E87A685953665B7797176
:103DCC005EC6AA8B2E8552CC56CA5AC806D622D4A9
:103DDC0026D24AD04ECEAE8A328B368AEF90603ADB
:103DEC006DC1045D2A89F1CC9C50614599C31305C2
:103DFC0040039C5481C751054205418163050A006B
:103E0C00710542054181DC5081C75905420541814C
:103E1C00EFD01FE12A8455C561468145EFD0FFFFE5
:103E2C00B727002083C9C7C96394090083490900D7
:103E3C00930700FD2300F400A947A300740123019C
:103E4C00F400230364018C502312540113058401E4
:103E5C0091C908C47146930A440397C0FE1FE780BA
:103E6C00804956858C5491C948C45146930A4501E2
:103E7C0097C0FE1FE78020485685630C0A0008C8CF
:103E8C007146D285930AC50197C0FE1FE780A046F4
:103E9C005685CC5099C548C8594697C0FE1FE78037
:103EAC008045A2854E85EFD03FE22254B250925409
:103EBC00F249624AD24A424BB24B4A850259456199
:103ECC00A9B3B250225492540259F249624AD24ACE
:103EDC00424BB24B4561828001114EC6AA892E8598
:103EEC004AC806CE22CC26CA2E89EF90802931C52D
:103EFC00B727002083C4C7C999E08344050019453E
:103F0C00EFD01FD22A8415C981451946EFD0FFF096
:103F1C00930700FD2300F400B947A30034012301EB
:103F2C00F40023122401A2856244F2404249B249B2
:103F3C002685D24405616FD03FD9F2406244D24409
:103F4C004249B2490561828039715ECEAA8B2E85B9
:103F5C0026DA4ED652D456D25AD006DE22DC4AD8B5
:103F6C00AE84328BB68A3A8ABE8942C6EF90602103
:103F7C0031C92A894145EFD0BFCA2A8421C541469F
:103F8C008145EFD09FE9B727002003C5C7C919E1C8
:103F9C0003450900930700FD2300F400BD472301EE
:103FAC00F400B247A30074012312940023046401AB
:103FBC00A304540123054401A30534015CC4A28568
:103FCC00EFD09FD0F2506254D2544259B259225A77
:103FDC00925A025BF24B21618280797126D2AA84BB
:103FEC0039454AD04ECE06D622D42EC6B289368951
:103FFC00EFD01FC321C1B2459307000D2310F5006C
:10400C00B1472A842312B5002301F500CE8519058A
:10401C00194697C0FE1FE780002E23062401A285B7
:10402C002254B2500259F24913F5F40F92544561DF
:10403C006FD09FC9B250225492540259F249456133
:10404C008280411126C2B72400209384C4C403C7C4
:10405C00340006C622C44AC09307F00F630CF70461
:10406C002A893945EFD0DFBB2A8429C5930700FD87
:10407C00B72500202300F500A3002501230105002E
:10408C00938545C60D05194697C0FE1FE780A026EF
:10409C0083D78400A28503C534002315F40083C79D
:1040AC0014002306F4002244B24092440249410118
:1040BC006FD09FC1B2402244924402494101828098
:1040CC0001115AC02A8B31454AC84EC652C456C239
:1040DC0006CE22CC26CA2E89B28A368ABA89EFD06D
:1040EC003FB441C52A844A85EF90A00935C90347DE
:1040FC00C500A1476314F704B727002083C4479E6B
:10410C00930700FD2300F4009D47A30064012301E5
:10411C00F400231224012313540123144401231506
:10412C003401A2856244F2404249B249224A924A81
:10413C00024B2685D24405616FD01FB9B7270020EA
:10414C0083C4579EE31E0BFAB727002083A707AF43
:10415C009C47DDD7CE865286D6854A8582974DB749
:10416C00B727002083C4F7C461BFF2406244D24435
:10417C004249B249224A924A024B0561828001119E
:10418C0052C42A8A214526CA4AC84EC606CE22CC1B
:10419C00AE84B2893689EFD0BFA825C12A84268582
:1041AC00EF80307E31C50347C500A147631DF70280
:1041BC0003450500930700FD2300F400C5472301C8
:1041CC00F400A301440123033401A30324012312AB
:1041DC009400A2856244F240D2444249B249224A38
:1041EC0005616FD07FAEB727002003C5579ED9B7A6
:1041FC00B727002003C5F7C475BFF2406244D24410
:10420C004249B249224A05618280397162CC2A8CBA
:10421C00594526DA4AD84ED652D456D25AD05ECE0A
:10422C0006DE22DCAE8432C636C4BA8B3E8BC28A22
:10423C00468A8359010403494104EFD07F9E35C55A
:10424C003246930700FDA2462300F5009547A301D3
:10425C00C500A30085012301F5002A841946110528
:10426C00A9C2B68597C0FE1FE780E008230664014B
:10427C00230A240123157401231754012318440124
:10428C0023193401A2856254F2504259B259225A70
:10429C00925A025BF24B624C2685D25421616FD04C
:1042AC00BFA28145EFD07FB7D1B7F2506254D25440
:1042BC004259B259225A925A025BF24B624C21611A
:1042CC008280411122C4372400201304C4C48347C4
:1042DC00240006C626C28DCBB7240020AA85194619
:1042EC00138584A197C0FE1FE780E00003452400DE
:1042FC00938584A1EFF07F8A2244B240138584A178
:10430C00924441016FC08079B240224492440145ED
:10431C0041018280411126C2B72400209387C4C476
:10432C0006C622C44AC003C737009307F00F938414
:10433C00C4C46304F7042A892945EFD07F8E2A84EC
:10434C000DCD930700FD2300F500A147A300250127
:10435C002301F50083C72400B7250020938585A190
:10436C00A301F5001946110597C0FE1FE780A0F8C0
:10437C0003C53400A285EFD03F9503C744008547A1
:10438C006319F702B727002083A707A381C79C47AF
:10439C0091C382972244B7270020B240924402492D
:1043AC0003C587D85D6613060670914541016FD031
:1043BC009FDDB240224492440249410182807971CE
:1043CC0022D406D626D24AD04ECE52CC56CA094456
:1043DC004DCD2A8903550500AE895144EF80705AA2
:1043EC00AA8445C537270020930787D883C7370091
:1043FC008546BA8AFD1793F7F70F494463F7F60819
:10440C000347C500A1476314F700639009089C5C3F
:10441C004544A5EF9165938545711305C00297C07E
:10442C00FE1FE78060BD88DC2A8A4D4439CD130617
:10443C00C0028145EFD07F9E8357090093064A0046
:10444C0036852311FA0071469305490036C697C08C
:10445C00FE1FE78040EA89472300FA0003C5C40029
:10446C00B2460356090083C58AD861151335150069
:10447C00EFB040682A8463860900CE852685EF90CC
:10448C00307401C42685EFF04FF82285B2502254C7
:10449C0092540259F249624AD24A45618280B72746
:1044AC00002083C7B7D80547FD1793F7F70F63783C
:1044BC00F708894751C6011122CC26CA4AC84EC6F4
:1044CC0052C406CEAA89368AB2842E89EF80704BEC
:1044DC002A84D14729C9485509C597C0FE1FE780D2
:1044EC0080C0F1452685EFD0BF9548D4CD4705CD8A
:1044FC008346C40021478147639FE600630D0A0091
:10450C000347A5010356050193062501AA854E858F
:10451C00EF906060AA8703474400630F090013679C
:10452C0067002302E400F2406244D2444249B2499B
:10453C00224A3E850561828013674700DDB7C94773
:10454C003E8582809307900363EBA700B72700207A
:10455C009387C7C606053E950355050082804165C5
:10456C007D158280011122CC2A842E8526CA06CE86
:10457C00AE84EF8010410DCDB7470F009387F72322
:10458C00094563E2870281450A854146EFD0FF88E1
:10459C00A685231081000A85418023018100A30197
:1045AC000100EFB06036F2406244D2440561828073
:1045BC004945D5BFB7270020A384A7D882806FB008
:1045CC00804B797152CC2A8A328522D426D24AD099
:1045DC004ECE56CA5AC85EC606D662C4AE8BB28AD6
:1045EC00368BBA843E89C2894684EF80903915C9CE
:1045FC002A8C63140A0213774B008347450015CFAE
:10460C0093E727012302FC008DEC631C0902639ADB
:10461C00090205E8ED9B2302FC00832B8C03639FAE
:10462C000B06B250225492540259F249624AD24AB1
:10463C00424BB24B224C45618280F59B93E70701BC
:10464C00D1B793E747002302FC0001CC1C4841463C
:10465C00A2852324FC0213058C0197C0FE1FE78062
:10466C0080C963910B02D5D80325CC0209C597C02C
:10467C00FE1FE78040A7F1452685EFD06FFC23266F
:10468C00AC0261BFE30B09F80325CC0209C597C046
:10469C00FE1FE78040A5F1454A85C5B79DC483A799
:1046AC000B0299EB916593853571714597C0FE1F8F
:1046BC00E780809423A0AB0203A50B0219C57146B9
:1046CC00A68597C0FE1FE78000C36388090283A7F5
:1046DC004B0299EB916593852571594597C0FE1F47
:1046EC00E780809123A2AB0203A54B0219C5594662
:1046FC00CE8597C0FE1FE78000C01DC483A78B0228
:10470C0099EB916593851571514597C0FE1FE78014
:10471C00A08E23A4AB0203A58B0219C55146A2851A
:10472C0097C0FE1FE78020BD2254B2509254F2492C
:10473C00B24B224CCA865A860259424BD6855285B8
:10474C00D24A624A45616FF08FE7011126CA52C402
:10475C0006CE22CC4AC84EC62A8AAE84EF8070227E
:10476C0025C5AA893945EFD0AFCB2A8431CDB727DF
:10477C00002003C9C7C96314090003C909009307C2
:10478C00000D2310F400AD472301F400938569005C
:10479C0013053400194697C0FE1FE780C0B593F788
:1047AC001400858085882306F400A3069400231545
:1047BC004401A2856244F240D244B249224A4A855D
:1047CC00424905616FD04FD0F2406244D244424915
:1047DC00B249224A05618280411122C4372400204B
:1047EC00130404A2084006C619C597C0FE1FE78033
:1047FC00808F23200400B2402244410182800111A9
:10480C0006CE22CC26CA4AC82EC6EF80901739CDC8
:10481C00B245B727002003C9C7C90CD5AA846314B5
:10482C000900034905004145EFD08FBF2A841DCDF7
:10483C009307000D2310F500A5472301F50083C74E
:10484C005400938564001105A30FF5FE194697C01B
:10485C00FE1FE78040AA9C54A285F2405CC46244CF
:10486C00D2444A85424905616FD00FC6F24062447A
:10487C00D244424905618280797122D406D62A84B9
:10488C002EC6EF8010100DCD8346C5001147AA87A8
:10489C0049456393E6029C5FB24599C383C56701A2
:1048AC000808EF90103BB7F60100938606CD100870
:1048BC0089452285EF90402BB2502254456182806D
:1048CC005145DDBFB727002083C7B7D80547FD1773
:1048DC0093F7F70F637AF704894721CA411122C471
:1048EC0026C24AC006C6B2842E89EF8090092A845B
:1048FC00D14705C5630809008347450093E72700A6
:10490C002302F5004146A6851305840197C0FE1FBE
:10491C00E780609E9C481CD48147B240224492445C
:10492C0002493E8541018280C9473E85828079716A
:10493C0022D406D62A842EC6EF80B00401CDB2450F
:10494C002285230EB1006C08EF901024B250225433
:10495C00456182805145DDBF6F80F010C1671387C0
:10496C00E7FF6395E502B727002083A7C7A291EB69
:10497C00494582804945B240224492440249410152
:10498C00828003A30700E30503FE0283411122C4C6
:10499C0026C24AC006C6FD172A892E84B284639AA1
:1049AC00F502B727002083A7C7A291CF9C4381CFE4
:1049BC00829711E9B7270020238027A5B72700206D
:1049CC00A38097A44DBFA6854A85EFE03FDD45F552
:1049DC00D5B72E85EF80E07A51DD834705000D4574
:1049EC00E39B27F922852244B2400249A6859244D2
:1049FC0041016FC060089307900363E8A704416707
:104A0C007D1789476384E504411122C426C206C67A
:104A1C00C547AE842A84631AF5001305C003338599
:104A2C00A50242054181EFC0E00B13151400372499
:104A3C0000201304C4C62295B240224423109500D2
:104A4C00814792443E854101828089473E85828020
:104A5C00011106CE2AC6EFE09FD6EF20002FEF10F3
:104A6C008061EF00D219B72700209387C7C41307C2
:104A7C0000F02391E70023820700B727002032457E
:104A8C00138787D8FD56A300D700F2402384A7D8FC
:104A9C00954505616F70C004597193970501A6D2B5
:104AAC0086D6A2D4CAD0CECED2CCD6CADAC8DEC66E
:104ABC00E2C4E6C2EAC06EDEC187AE8463D3075699
:104ACC00B72A002003C58AD8372C002037290020AC
:104ADC00EFD0EF989307CCD32A8D372B0020372AB1
:104AEC0000203ECEB72C00201304C9C463130D0262
:104AFC002165258DB650265496540659F649664ABA
:104B0C00D64A464BB64B264C964C064DF25D65612B
:104B1C00828083470D001307200A639CE7008349BA
:104B2C00340003552D00C1656A86FD15EFF06F99B1
:104B3C008DA213878AD8834917001307100963972E
:104B4C00E71683471D001547639EE7006A85EFF063
:104B5C000F9C6A85EFD00F8A03C58AD8EFD02F90AF
:104B6C002A8D69B73947639DE71603554D00856754
:104B7C00A5076316F50483258D0083CB0500639D83
:104B8C000B00850591C9372500201946130545C62C
:104B9C0097B0FE1FE78020760347C9C4854763178B
:104BAC00F71063880B00230609C45E85EFF06FC90C
:104BBC004DB789472306F9C4EFB0106E59BF89670A
:104BCC0013872700631CE504832B8D0063800B0E79
:104BDC0083C70B0089EF83C72B0003C71B00A207F9
:104BEC00D98F2314F40083C73B00A300F4000347C0
:104BFC00C9C48947631CF70A83C70B0091C72306F6
:104C0C0009C403C50B005DB783451400035584002C
:104C1C008D472306F9C4EF60B06FE5B795076319AC
:104C2C00F50083278D0003C50700EFF0AFEE15B735
:104C3C00F9771387A7FF2A9742074183914663F1BF
:104C4C00E6049387A7FCAA97C207C18371476371D7
:104C5C00F70289671387B7006310E50483278AA2DC
:104C6C00E38907EE9C43EA85E38507EE829715A05E
:104C7C00370700181307F770B357F700858BB9CBBC
:104C8C0083270BA3E38707EC9C43E38407EC6A853B
:104C9C008297E31005EC19A81387C7006311E5028E
:104CAC0083278D0083C70700E38507EA9307F00F7E
:104CBC00E381F9EAEA854E85EFD00F8171BDB90722
:104CCC00631AF500B727002083A7C7A2E38307E880
:104CDC00DC4351BF896793871704E301F5F8F9B7F3
:104CEC003D47639BE70403554D0089671387D70045
:104CFC00E30AE5FC13879701E306E5FCCD07E31710
:104D0C00F5FA03576400C167FD17631FF700B72757
:104D1C00002083A7C7A2E38E07E2DC43E38B07E204
:104D2C000965EA854D0599B7B727002083A747A3E6
:104D3C00E38107E29C43DDB71307E003E398E7F652
:104D4C0083472D0005476398E70E83476D0037278F
:104D5C000020930D07A2E1E783A70D00D5CF83CBED
:104D6C000700A14903457D00130C8D00E285EFE09F
:104D7C005FE783474D01A303AD0083580D01035832
:104D8C00ED0003574D002A8603453D003EC2835774
:104D9C002D01E286DE853EC0CE87EFF00FC783473C
:104DAC003D0095E7DD4783580D010358ED00834620
:104DBC007D0083554D003EC283572D013EC0628756
:104DCC00CE8705465E85EF80C06BA301AD0083A73F
:104DDC000D0081C71145EFF03FA0938B0CA403C5C8
:104DEC000B00E30805D6B727002083C517A4EFE016
:104DFC00FF9AE30005D683463D0093071003638AB0
:104E0C00F60003564D0083C50B004E873685EFE048
:104E1C001FB123800CA435BB834B340099B7832777
:104E2C000BA3834B3400914995DFDC4385DF81452F
:104E3C000145829705BF2947639BE70883476D00AF
:104E4C0037270020930D07A2BDE783A70D00ADC344
:104E5C0083CB0700A14903457D00130C4D01E2856E
:104E6C00EFE03FD883470D02A303AD008358CD017B
:104E7C000358AD0103574D002A8603453D003EC241
:104E8C008357ED01E286DE853EC0CE87EFF0EFB7AB
:104E9C0083473D008DFFDD478358CD010358AD019D
:104EAC0083467D0083554D003EC28357ED0139B7D3
:104EBC00834B340045B783270BA3834B34009149B4
:104ECC00D9DBDC43C9DB81450145829769B70947CA
:104EDC00639CE70083278AA2E38D07C6DC43E38A41
:104EEC0007C66A858297B5B12D476398E70083277B
:104EFC008AA2E38007C69C47DDB70D476397E7009E
:104F0C006A868D4503554D0015B119476395E70623
:104F1C009305610213051031EF00C2552C101305D7
:104F2C002031EF00225503566D0083578102035543
:104F3C004D0063E8C70083568D000357610263F789
:104F4C00E60093050002EFB0F03821B16374E6007F
:104F5C002313ED0063F4D7002314FD000357CD0099
:104F6C008356AD0003568D0083556D000148814773
:104F7C00EFB01036F9BE1D47639FE70003574D0095
:104F8C00E3E6E7D2F24706073E9783576D00F11729
:104F9C002310F70021BB31476395E7006A86B145C2
:104FAC0095B735476398E70083278AA2E38307BA4E
:104FBC00DC4735B739476395E7006A85752B51BED9
:104FCC003D476398E70083278AA2E38407B89C4B8C
:104FDC0039B741476395E7006A85FD2B9DBE454770
:104FEC006396E70013053003CD2DA5B64947639DA5
:104FFC00E70083270BA3E38B07CADC43E38807CACC
:10500C008145054582975DB14D47E391E7CA8327FA
:10501C000BA3E38D07C8DC43E38A07C8EA8509457F
:10502C00D5B793F7150089CFB727002083A787A2A0
:10503C0089C7DC4399C30145829713C514005DBC35
:10504C0093F7250091CFB727002083A707A391C71B
:10505C00DC4381C781450545829713C5240059BCA3
:10506C0093F745000145E38707A8372400209307F1
:10507C00C4C483C757001304C4C4A9CFFD1793F746
:10508C00F70FA302F400B9E7B727002083A747A2C4
:10509C0091CF85472302F400B727002083A707A3ED
:1050AC0091C7DC4381C781450545829748442C1044
:1050BC00EFA0006E2810EFF0CFA0B727002083D709
:1050CC00E7C89145A302F400B727002003C587D891
:1050DC00EFD00F9213C5440031BC011122CC2A84AD
:1050EC00554506CE26CAEFF0EFC5AA84130540023B
:1050FC00EFF04FC52AC613055002EFF0AFC4AA86D5
:10510C00228562443246F240B3359000D2440561A8
:10511C006FB0B022797122D406D68D472E84631FCE
:10512C00F50003D7A50083D6850003D6650003459B
:10513C00340083D54500EFE0BFF809A889671387D1
:10514C00D7006311E50403C5250019E58547B25066
:10515C0022543E8545618280B727002083A607A292
:10516C00F5D603C6360083C50600814802C202C0CC
:10517C000148814701479106EFF02F890545EFF073
:10518C00AFE5E9B71387E700E302E5FC13873701C6
:10519C00631AE50003C5250055D901478146014630
:1051AC00814551BFE507E303F5FAB147631DF500EF
:1051BC0083C6750003C665000345340083D54500DE
:1051CC00EFE0FFFB61B741677D178147E311E5F81D
:1051DC0003C75500C947E31BF7F683D6E50003D692
:1051EC00C5000355840083D5A500EFB0901621C1EE
:1051FC005D45EFF02FB53335A000231EA10083458C
:10520C004400035524007008EF70306B8357C101C4
:10521C0095FF0357E4008356C4000356A40083553E
:10522C008400035524000148EFB0900805B785476A
:10523C00231EF100E9B7B727002083C637A4130754
:10524C00F00F638CE60851C9411122C426C24AC032
:10525C0006C6AA840345A500138937A44105EFC0EF
:10526C003F9C2A842DC59307000D2310F500D947C8
:10527C002301F50083D744002312F50083C7640093
:10528C002303F50083C77400A303F50083C78400D0
:10529C002304F50083C79400A304F50003C6A400FF
:1052AC002305C50015C2CC44410548C497B0FE1F68
:1052BC00E7806004A285224403450900B240924471
:1052CC00024941016FC05FA023260500E5B7B2403B
:1052DC00224492440249410182808280C167138733
:1052EC00E7FF639EE500B727002083A707A29DC3B5
:1052FC0083C707000D47639DA7006FB0A07AFD1709
:10530C0049476397F500B727002083A707A2F5F755
:10531C003A8582804947EDBFB727002003A747A4F1
:10532C0019E301458280397122DC26DA06DE4AD87F
:10533C004ED652D456D25AD05ECE03470500938433
:10534C0047A485472A846308F70C03468500930617
:10535C0095009305F1000545EFE0EFEE814719C18B
:10536C00834705008346040011476380E60298409A
:10537C008D4603471700630AD70081CB19C741C17B
:10538C008546631DD7088D8BBDCB03451400130ACE
:10539C002400D285EFE0FF8437290020A300A4006D
:1053AC00832789A4AA8A130989A48149A1C7B72490
:1053BC000020930BF00F83C724A463FDF90203258F
:1053CC000900139B49005A9583470500638D7705A7
:1053DC0083471500639957051946D285090597B07F
:1053EC00FE1FE780C0F421C1832409000347040099
:1053FC00DA94B5E4834604009147639AF6020145BA
:10540C00F2506254D2544259B259225A925A025B07
:10541C00F24B2161828081470145A9B78946E3108F
:10542C00D7FE858B95B7850993F9F90F69B7832753
:10543C000900F1D737270020034627A49305F00F66
:10544C000147E30EE6FABE84C10703C507FF630EEE
:10545C00B50A05071377F70FEDB788C4F5A0914788
:10546C00631AF706C84405C5834784000346050044
:10547C006304F606034704009147631DF706C8440E
:10548C0019C597B0FE1FE78000C623A6040003458C
:10549C00840091659385E571050597B0FE1FE78043
:1054AC00A0B505C5034704009147631EF704C8C4A3
:1054BC0083478400930594000505A30FF5FE03466E
:1054CC00840097B0FE1FE78000E30345840033356A
:1054DC00A0003DB7884441BF93059400050597B0E3
:1054EC00FE1FE780C0E48547E316F5F85545EFF05D
:1054FC006F8541A0884441DD97B0FE1FE780A0BEB8
:10550C0023A4040069B788C465B72380D4008347FB
:10551C001400D28513852400A380F400194697B09B
:10552C00FE1FE78040DD0345840091659385F5718E
:10553C00050597B0FE1FE78020AC05C503470400A6
:10554C009147E31CF7F0C8C483478400930594008B
:10555C000505A30FF5FE0346840097B0FE1FE780F8
:10556C0080D9834784000545E39C07E80345040084
:10557C007D151335150069B5011122CC3724002097
:10558C00130434A40347040006CE26CA9307F00F75
:10559C00630FF7020DCD2AC65145EFC06FE8AA8400
:1055AC001DC5B245514697B0FE1FE780C0D4930786
:1055BC00000D2390F400D5472381F400034504002B
:1055CC006244F240A685D24405616FC0EFEFF24011
:1055DC006244D24405618280411122C437240020E8
:1055EC00130434A40347040006C626C29307F00F25
:1055FC00630CF70215C9AA841945EFC06FE2AA859E
:10560C0005C59307000D2310F500DD472301F500B8
:10561C0083D74400B24092442312F50003450400A2
:10562C00224441016FC04FEAB240224492444101EE
:10563C008280011122CC37240020832784A406CE3B
:10564C0026CA4AC84EC652C48DC3130484A42E8ADB
:10565C00AA840149084063129902630C0A0497B0AA
:10566C00FE1FE78040A823200400F2406244D2448D
:10567C004249B249224A0561828093194900B30715
:10568C003501884709C997B0FE1FE780C0A51C40AB
:10569C00CE9723A407001C40CE97C84709C997B0E2
:1056AC00FE1FE78040A41C40BE9923A609000509F3
:1056BC0055B745DD139644008145EFC00FF61440F5
:1056CC0081477D5613F7F70FE37197FA139747004D
:1056DC0036972300C7008507F5B779714AD037296B
:1056EC000020832749A406D622D426D24ECE52CCF3
:1056FC0056CA5AC85EC6C5C7B72A0020AA8913095C
:10570C0049A4938A2AA4014405E1B727002083A663
:10571C0087A499CA03C60A002A8481479305F00F0F
:10572C0013F7F70F6368C708131534002105EFC092
:10573C002FCFAA8401E92145EFC08FCEAA8421C5C1
:10574C000144CD49930700FD2380F4008547A380D5
:10575C0034012381F400A381840045C8938984001B
:10576C0023A23401014A372B0020930BF00F83C77F
:10577C000A006373FA0039E883270900A68503C57C
:10578C000700EFC06FD403C50A0081455D350325C2
:10579C00090097B0FE1FE780009523200900B25046
:1057AC00225492540259F249624AD24A424BB24BA9
:1057BC0045618280139747003697034707006305BE
:1057CC00B70005041374F40F850799BF83278BA4C6
:1057DC0093154A00BE9583C7050063847703238025
:1057EC00F90083C71500138529007D14A380F900E7
:1057FC00194689051374F40F97B0FE1FE780A0AF0C
:10580C00A109050A137AFA0F9DB723A20400ADB7BC
:10581C00B727002083A747A4B1C7411122C406C6ED
:10582C002A841DE10945EFE0FFD12A8601C9B7277B
:10583C00002003C587D88545EFC00FFE0545EFF066
:10584C00DF892A84054519C8B727002003C587D8E6
:10585C008545EFC0FF99228549350545B240224464
:10586C00410182800145828089679386B700631667
:10587C00D5009C4503C5070061BF9386C70063181C
:10588C00D5009C45854603C5070019C9F5B7938615
:10589C001704E300D5FE938727048146E303F5FE46
:1058AC0036858280797106D622D426D24AD04ECE45
:1058BC0052CC56CA5AC85EC662C46DC18347350005
:1058CC00AA8995C7404105C45945EFE0BFC7931A53
:1058DC00850193DA8A410149130B000DB54B372A28
:1058EC000020372C002083C73900636EF900B250BA
:1058FC00225492540259F249624AD24A424BB24B58
:10590C00224C456182808307840263C0570922853B
:10591C00EFF09FA001C583274AA481E783278CA4BD
:10592C00ADE7034584005105EFC08FAFAA8431CD9C
:10593C002310650123017501834704001946930563
:10594C002400A301F5008307840215052303F50049
:10595C0083471400A30FF5FE97B0FE1FE780A099B4
:10596C00034684002386C4001DC61385440188C8E1
:10597C009305940097B0FE1FE780E09783274AA415
:10598C00A68503C50700EFC02FB4050913049402C4
:10599C001379F90F89BF23A80400CDB7B7270020CE
:1059AC0083A747A4A9D7153B2254B250925402594D
:1059BC00F249624AD24A424BB24B224C01454561F4
:1059CC006FF0AFF1797106D622D426D24AD04ECEE2
:1059DC0052CC56CA5AC85EC662C469C583473500E4
:1059EC00AA8985C7444195C05945EFE0BFB5931AC4
:1059FC00850193DA8A410149372B0020930B00FD76
:105A0C00414C83C73900636EF900B2502254925452
:105A1C000259F249624AD24A424BB24B224C45617E
:105A2C0082808387F40063CA5707130A4BA4832729
:105A3C000A00A5C75145EFC0AF9E2A8439CD23007B
:105A4C007501A30005002301850183C704001946D5
:105A5C0093852400A301F5008387F4001505A306A4
:105A6C00F50083C71400A30FF5FE97B0FE1FE78067
:105A7C00808883C78400938594001305C400A30514
:105A8C00F400194697B0FE1FE780E08683270A00D2
:105A9C00A28503C50700EFC02FA30509C104137924
:105AAC00F90F85B7B727002083A747A4B9DFEFF01C
:105ABC00DFC22254B25092540259F249624AD24A7D
:105ACC00424BB24B224C014545616FF00FE15D71C9
:105ADC0086C6A2C4A6C2CAC04EDE52DC56DA5AD85A
:105AEC005ED662D466D26AD06ECE63080516834742
:105AFC003500AA848DCB832945006386090259455C
:105B0C00EFE05FA493178501E1873EC60144372976
:105B1C000020C94A1D4BA94B194CA54C214D83C7DC
:105B2C0034006361F402B640264496440649F259A7
:105B3C00625AD25A425BB25B225C925C025DF24DBD
:105B4C00616182808387C900324763C5E70C832774
:105B5C0049A4930D49A4DDCF03C5790113050502B2
:105B6C00EFC00F8C2A8A5DC59307000D2310F5003A
:105B7C002301550183C6090013F686004DC2AD46BC
:105B8C00A301DA0083C61900194693852900230264
:105B9C00DA0013055A0097A0FE1FE780C07583C674
:105BAC008900194693851901A305DA0083C699006B
:105BBC0013053A012306DA0083C6A900A306DA000E
:105BCC0083C6B9002307DA008386C900A307DA006D
:105BDC0083D6E9002318DA0083C609012309DA0009
:105BEC0097A0FE1FE780207103C67901A30CCA00A1
:105BFC0035C213050A02232EAA0083A5890197A09A
:105C0C00FE1FE780406F83A60D00D28503C50600FA
:105C1C00EFC08F8B0504F1091374F40F09B793F5DA
:105C2C00160013F6460099C519C2954691BFA301FB
:105C3C00A50189BF898A81CA01C6A301950199B7BB
:105C4C00A301850181B701C6A301750125BFA3017D
:105C5C0065010DBF232E0A007DB7B727002083A74F
:105C6C0047A4E38207ECEFF05FA72644B6409644C6
:105C7C000649F259625AD25A425BB25B225C925C80
:105C8C00025DF24D014561616FF02FC5B727002011
:105C9C0083A747A485CB03C707008D476315A702CD
:105CAC00B727002003C587D84111854506C6EFC02C
:105CBC002FD413050003EFF05FA2B2400145410160
:105CCC006FF0AFC1C9473E858280797126D2B72467
:105CDC000020938444A49C4006D622D44AD04ECEB5
:105CEC0052CC639A070EB727002003C7B7D8C94711
:105CFC00298B4DC791652A849385D571114597A041
:105D0C00FE1FE780602F88C0CD4749C903470400B8
:105D1C00B72700201146A285A381E7A497A0FE1FF8
:105D2C00E780605DB72700201305100283C9E7C424
:105D3C00034A3400EFE01F819374F50F93F71400BE
:105D4C0013F94400ADC71545EFE0CFFF834724009E
:105D5C002314A10019452302F100EFE0AFFE231636
:105D6C00A100630209028347240013052002A30249
:105D7C00F100EFE02FFD2315A10013053002EFE039
:105D8C006FFC2317A1007C00380054002686B33525
:105D9C00400133353001EFA0105AAA87B25022547B
:105DAC0092540259F249624A3E8545618280E1472C
:105DBC00E30609FE83472400130520022302F100A9
:105DCC00EFE04FF82314A10013053002EFE08FF73A
:105DDC002316A1004DBFC547D1B7B727002083C7F5
:105DEC00B7D85971A2D486D6A6D2CAD0CECED2CC30
:105DFC00A18B4944638B0722B727002083A747A4B4
:105E0C00414463940722AA84EFE01FB5B727002012
:105E1C0083C747D85544637AF52037290020832758
:105E2C0009A2CA8945446392072091659385C5717F
:105E3C00294597A0FE1FE780201C2320A9A24D44D2
:105E4C006305051E2946A68597A0FE1FE780A04A7C
:105E5C0013056002EFE00FEF1379F50F93775900FC
:105E6C0061446384071C1306000381450810EFB0DE
:105E7C00DFFA93771900136A29000144A5C3414541
:105E8C00EFE04FEC2316A1023D45EFE0AFEB2319F9
:105E9C00A1023545EFE00FEB231CA1023945EFE0E1
:105EAC006FEA231FA1022145EFE0CFE92312A104E1
:105EBC001D45EFE02FE983A709A22315A10483C791
:105ECC001700638D07162D45EFE0CFE72310A102D5
:105EDC003145EFE02FE72313A10205441305C0025F
:105EEC00EFE04FE6980893171400BA97239EA7FC8F
:105EFC001305B002EFE00FE5930484009C088604C0
:105F0C00BE942399A4FC13059002EFE0AFE3239C0D
:105F1C00A4FC1305A002EFE0EFE2239FA4FC130501
:105F2C008002EFE02FE2930404019C088604BE94E7
:105F3C00239AA4FC13057002EFE0CFE0239DA4FC90
:105F4C00137949006305090813056003EFE08FDF3F
:105F5C0005049C0893141400BE94239EA4FC130502
:105F6C005003EFE02FDE130984009C0806093E99CC
:105F7C002319A9FC13053003EFE0CFDC231CA9FC8B
:105F8C0013054003EFE00FDC231FA9FC1305E0020F
:105F9C00EFE04FDB41049C0806043E94231AA4FC5A
:105FAC001305D002EFE00FDA83A709A2231DA4FC8E
:105FBC0083C71700D9CB13051003EFE0AFD8239894
:105FCC00A4FC13052003EFE0EFD7239BA4FC83A7CD
:105FDC0009A203C5370093854700EFD01FBC83A6E9
:105FEC0009A2B727002083C5E7C47C1003C3260091
:105FFC003EC8930721033EC63C183EC49307E103F9
:10600C003EC2DC003EC02A869308A104130861023C
:10601C001C1052879106B335B0001A85EFA03032B0
:10602C002A8401C50D45EFE02FFB2285B65026547E
:10603C0096540659F649664A656182802545EFE01B
:10604C006FD02310A102294569B51305F002EFE0CA
:10605C006FCF2398A4FC13050003B5B7B727002016
:10606C0083C7B7D80145A18B89C7372500201305F5
:10607C0085CF6FD0FF90B72700207D57238107A4D1
:10608C00B7270020A381E7A4B727002023A407A4E7
:10609C0037670100B72700201307478723A207A4FF
:1060AC00B727002023A2E7CE37670100938747CE9E
:1060BC001307078BD8C3376701001307079D98C7D1
:1060CC00376701001307A7ADD8C73757010013076F
:1060DC00272498CB37570100B72700201307872EAA
:1060EC0023ACE7CE37570100938787CF13070712EE
:1060FC00D8C38280411122C437240020130424A465
:10610C0026C2AA8403450400854506C6EFF06FD26B
:10611C00B727002083C7B7D8A98BB5CB372500206C
:10612C0023009400130545CEB7240020EFD0BF8484
:10613C00938484A49C4099C74D45B2402244924418
:10614C00410182800345040019E10145FDB79165C9
:10615C009385B571120597A0FE1FE780E0E988C012
:10616C0061DD0346040081451206EFB01FCB834668
:10617C00040090408147FD5513F7F70FE377D7FCE8
:10618C001397470032972300B7008507F5B70145F1
:10619C0023000400EFD02FFE4DBF411122C4372441
:1061AC000020032544A206C619C597A0FE1FE78050
:1061BC0080F3232204A2B2402244410182800111C7
:1061CC001305700306CEEFE0EFB72AC61305800364
:1061DC00EFE04FB72AC413059003EFE0AFB62246A9
:1061EC00B245F240AA86054505616FA0101459719D
:1061FC00A2D437240020832744A286D6A6D2CAD0A4
:10620C00CECED2CCD6CADAC8DEC6E2C40545638887
:10621C0007169305F1031305F041EFD091160347D0
:10622C00F103B72700209387C7C4630D070C83C7FE
:10623C0027000D4789446384E700B334F0008327BB
:10624C0044A203C5370093854700EFD01F95032761
:10625C0044A29147AA8A8346270063E6D70CCD4710
:10626C0089C685476395F60AF5472301F70083270E
:10627C0044A20D4583C527002ED6EFE0AFAC2AD43F
:10628C001145EFE02FAC032444A22AD26545034705
:10629C00A400034CB4003AD0EFE0CFAA2A89694598
:1062AC00EFE04FAAAA897145EFE0CFA92A8A6D4584
:1062BC00EFE04FA92A8B7545EFE0CFA8AA8B794563
:1062CC00EFE04FA86209025792562256B255137549
:1062DC00F50F93FBFB0F137BFB0F137AFA0F93F95C
:1062EC00F90F135989412ACC5ECA5AC852C64EC4FA
:1062FC004AC262C0930844005688A6870545EFA0A1
:10630C00207FB5A883C42700B33490000DBF894704
:10631C006394F600C94791BF8D476394F600C1475B
:10632C00A9B7D54799B71546638EC600194663962B
:10633C00C60089472301F70031A09D456392B60240
:10634C00230107006545EFE0EF9F9307F007E3009B
:10635C00F5F2032744A28347270093E7070431B7DC
:10636C00A1456394B6008547F1B7A5456395B60082
:10637C002301C700C1BF29460545E38DC6FAB650B7
:10638C00265496540659F649664AD64A464BB64B9D
:10639C00264C65618280011122CC06CE26CA8D471F
:1063AC002E846315F50603C73500B7240020E94792
:1063BC0003D545009384C4C46316F70083D76400E7
:1063CC006382A706EF60F05B09C58357640023174F
:1063DC00F5000357A40083568400035664008355CC
:1063EC00440003453400EFD0BFCD0357440083D79E
:1063FC0064006309F7008547F2406244D2443E854D
:10640C0005618280FD572393F400F5B78967CD07AA
:10641C00631DF50083C7250031476385E7004547B9
:10642C00E39BE7FCEFD00FDDF9B7B147631DF50037
:10643C0083C6750003C665000345340083D545004B
:10644C00EFD0FFD34DBF41677D178147E316E5FAC7
:10645C0083C655004947E391E6FA83C545000355C9
:10646C002400300023140100EF60104069B7411183
:10647C0022C4372400201304449D0347040006C69D
:10648C0026C24AC09307F00F630DF702AA84114588
:10649C002E89EFB0EFF815C5930700FD2300F5002A
:1064AC008947A30025012301F500A3019500AA85C6
:1064BC00034504002244B2409244024941016FB0AA
:1064CC00BF80B240224492440249410182807971DA
:1064DC0052CC372A002083274AA222D406D626D2B1
:1064EC004AD04ECE4544C1EFB7290020938789D8B6
:1064FC0083C737004944958BD9C3B72700202E8911
:10650C009165238AA79CAA8493857571314597A0C0
:10651C00FE1FE78060AE2322AAA24D442DC12300AA
:10652C009500A30005002946CA85090537240020DB
:10653C0097A0FE1FE78020DC1304C4C4034724008B
:10654C008D476317F704EFD08FF32C00EF904024A6
:10655C002800EFD01FD7854745452302F400EFD024
:10656C007FFE1375F50FA302A400014409C903C5EE
:10657C0089D85D66130606709145EFB0DFC02285A1
:10658C00B250225492540259F249624A45618280B7
:10659C00EFF0FFC52A8465D5EFF03FC0CDB70111F0
:1065AC0026CAB724002083A744A222CC06CE4AC810
:1065BC004944B1CB83C707000D446396A704372920
:1065CC000020034589D88945EFB09FC2034589D87F
:1065DC00B72700209145239607A4EFB07FC1B727BA
:1065EC000020A38807C483A744A201478146A38047
:1065FC0087001306F100854785450145A307F10087
:10660C00EFA060522A842285F2406244D24442496F
:10661C0005618280011106CE22CC26CA8547631CF7
:10662C00F506372400201304C4A483570400A1CB1F
:10663C0037270020034707C539E31307B003636B03
:10664C00F702B724002003C584D88945EFB05FBAA0
:10665C00035604009307006403C584D83306F6027E
:10666C008945EFB07F9B23100400F2406244D24472
:10667C0005618280938747FC2310F400FDB7B72790
:10668C00002083A747A2F5D36244F240D24403C54D
:10669C000700056129B7B724002083A744A2F1D7CE
:1066AC0037270020930787D883C73700918BD5DF16
:1066BC0089476314F5062D452EC6EFB06FD62A8494
:1066CC004DD5B245930700FD2300F500E547A30027
:1066DC0005002301F50083C7350015051946230F66
:1066EC00F5FE83C745009505A30FF5FE97A0FE1F89
:1066FC00E78060C0B727002003C5579E9307F00FB3
:10670C006316F50083A744A203C50700A285624463
:10671C00F240D24405616FB02FDB034587D8894521
:10672C00EFB01FAD6244F240D244B727002023964D
:10673C0007A405616FF07FA6B727002083C7B7D8E1
:10674C004945958B9DC3B727002083A787A5414555
:10675C0089CF411106C6EFF09FA6B240B7270020A3
:10676C0005472387E7A4410182808280B727002058
:10677C0085450145238707A46FA0A03BB7270020C0
:10678C0083C7B7D8958B638807109307E00E63FC1B
:10679C00C70009458280F2406244D2444249B24962
:1067AC00094505618280B727002083A747A2E5C76A
:1067BC00011122CC4AC806CE26CA4EC6368932846E
:1067CC0013054600ADC591659385657197A0FE1FB5
:1067DC00E7808082AA8961D1B724002003A544A553
:1067EC00938444A509C597A0FE1FE780C08F22861D
:1067FC0013851900814523A03401EFB00FE28840C6
:10680C002286CA85050597A0FE1FE780C0AE98407A
:10681C00A2860546230087006244F240D2444249D6
:10682C00B24905078D45054505616FA0402F91655F
:10683C00938555719790FE1FE780007CAA8921DD16
:10684C00B724002003A5C4A59384C4A509C597A0AB
:10685C00FE1FE7804089228613851900814523A0FD
:10686C003401EFB08FDB88402286CA85050597A0DE
:10687C00FE1FE78040A89840A286054623008700AB
:10688C006244F240D2444249B24905078D45054560
:10689C0005616FA00029494582809307E00E63FCD7
:1068AC00A700094582800945F2406244D24442491E
:1068BC00B249056182805DC501114AC82E89916576
:1068CC0022CC938565712A8411054EC606CE26CA44
:1068DC009790FE1FE7804072AA8971D5B7240020DB
:1068EC0003A544A5938444A509C59790FE1FE78092
:1068FC00807F228681451385190023A03401EFB0D7
:10690C00CFD188402286CA85050597A0FE1FE78057
:10691C00809E9C4023808700B727002083A747A236
:10692C0095CFB727002083C7B7D8958B95CBB727C2
:10693C00002083A747A585C383C6070013871700CC
:10694C006244F240D2444249B24905468D45054560
:10695C0005616FA0C01C01478146DDB70145A9B791
:10696C00494599B7B727002083A747A29DC7B727EA
:10697C00002083C7B7D8958B9DC3B727002083A76A
:10698C0047A589CB83C607001387170005468D459D
:10699C000545C1B701478146D5BF014582804945B0
:1069AC0082809307E00E63FCA700094582800945AD
:1069BC00F2406244D2444249B249056182805DC5CD
:1069CC0001114AC82E89916522CC938555712A8470
:1069DC0011054EC606CE26CA9790FE1FE780C061F1
:1069EC00AA8971D5B724002003A5C4A59384C4A596
:1069FC0009C59790FE1FE780006F2286814513859D
:106A0C00190023A03401EFB04FC188402286CA85FB
:106A1C00050597A0FE1FE780008E9C402380870011
:106A2C00B727002083A747A295CFB727002083C79D
:106A3C00B7D8958B95CBB727002083A7C7A585C35F
:106A4C0083C60700138717006244F240D2444249C0
:106A5C00B24905468D45054505616FA0800C01477F
:106A6C008146DDB70145A9B7494599B7B72700203D
:106A7C0083A747A29DC7B727002083C7B7D8958B9C
:106A8C009DC3B727002083A7C7A589CB83C6070062
:106A9C001387170005468D450545C1B7014781464B
:106AAC00D5BF01458280494582809307B00F63F4BE
:106ABC00A70009458280797122D44AD006D626D205
:106ACC004ECE2E892A8439C991659385557111054D
:106ADC009790FE1FE7804052AA89094563830908F5
:106AEC00B724002003A584A5938484A509C5979099
:106AFC00FE1FE780405F228681451385190023A085
:106B0C003401EFB08FB188402286CA850505979075
:106B1C00FE1FE780407E9C4023808700B727002023
:106B2C0083A747A2014595CFB727002083C7B7D8C5
:106B3C004945958B9DC76C001305D030EFE0911340
:106B4C00B247014593F7070F89CFB727002083A7DA
:106B5C0087A58D45054503C6070093861700EF9062
:106B6C00107DB250225492540259F24945618280F0
:106B7C00B727002083A547A591CD411106C603C6B2
:106B8C00050085059790FE1FE780E076B240014531
:106B9C004101828009458280B727002083A747A541
:106BAC008DC7B727002083A5C7A5894785C141118B
:106BBC0006C603C6050085059790FE1FE780A073E7
:106BCC00B24081473E854101828089473E85828063
:106BDC00B727002083A747A58DC7B727002083A51B
:106BEC0087A5894785C1411106C603C605008505E1
:106BFC009790FE1FE7802070B24081473E8541018F
:106C0C00828089473E858280797106D622D426D22D
:106C1C004AD04ECE52CC8D4763FCA7000944228546
:106C2C00B250225492540259F249624A4561828010
:106C3C00B724002003C7C4C44144E312F7FE938772
:106C4C00C4C483C927009307F5FF93F7F70F854654
:106C5C002E842A899384C4C463EAF60685E5994593
:106C6C002800EFC0DFD3372A002003458AD891458E
:106C7C0023812401EFB0CFD7A38204002DC0238140
:106C8C00340171BF194681452800EFB00F991946A0
:106C9C002C0022859790FE1FE780606941F1194610
:106CAC009305F00F2800EFB04F9719462C00228562
:106CBC009790FE1FE780A06735F1A2851946280042
:106CCC009790FE1FE7802063014471BF0144E31CD1
:106CDC00E5F8C8442C00EF80B02B2A8469B7631404
:106CEC00090001442DBF2800EFD0AFDD2A8441F903
:106CFC008D47E318F9FE4545EFD0DF841375F50F8A
:106D0C00A382A40079DD03458AD85D66130606705C
:106D1C009145EFB04FC721B7B727002083C7B7D82D
:106D2C00918B8DC3372500204111130505A506C68F
:106D3C00EFC05FC6B240B72700207D572399E7C448
:106D4C004101828001456FC0FFC4B72700207D57E9
:106D5C00238AE79CB7270020238707A4B7270020A6
:106D6C00239607A4B727002023AA07A4B72700203F
:106D7C0023AE07A4B727002023AC07A43777010064
:106D8C00B7270020938787B0130727F798C3376777
:106D9C00010013070762D8C3376701001307A71F49
:106DAC0098C7376701001307A71CD8C7B76701003E
:106DBC00372700209387273A2328F7A48280411194
:106DCC0026C2B724002083A744A206C622C48DCFB6
:106DDC002A840D45EFA0DFE4AA8505C1930700FDC9
:106DEC002300F5008D47A30085002301F50083A740
:106DFC0044A203C50700EFA03FED19C42244B240E2
:106E0C00924441016FF06FB9B24022449244410167
:106E1C008280797152CC372A002083274AA24AD02B
:106E2C0006D622D426D24ECE56CA0149B1C703C9C2
:106E3C001700B72400208547AA899384C4C463072C
:106E4C00F90483C74400054985EB0D45EFA05FDDD0
:106E5C00AA8505C1930700FD2300F5009147A30007
:106E6C0035012301F50083274AA203C50700EFA0D3
:106E7C00BFE5EFF08FB20549B25022544A859254C7
:106E8C000259F249624AD24A45618280B7270020F2
:106E9C0083A747A5D28A85E30145EFD0AFEA2A86BE
:106EAC0001CAB727002003C587D88945EFB0CF9614
:106EBC0083A74AA289A803C60700938617009305E7
:106ECC00F1000545EFC03FB861D983470500858BBC
:106EDC00E1D70545EFD00FE79307B0032A8463F0A1
:106EEC00A704B727002003C587D85D661306067074
:106EFC008945EFB04FA9B7270020130444FC239613
:106F0C0087A483274AA20947A380E70083C74400CC
:106F1C0081C7238204008DB74E855535B1BF13064A
:106F2C0000643306C502ADBF411122C42A840D454D
:106F3C0006C6EFA0FFCE05C5930700FD2300F500A4
:106F4C00CD472301F500A30085002244B72700207C
:106F5C00B240AA8503C5479D41016FA0FFD6B24040
:106F6C00224441018280035745000111896706CEF6
:106F7C0022CC26CA938667006319D7001C450145AD
:106F8C0083C50700EFF0AFCE35A893868700631753
:106F9C00D7001C45054583C50700EDB793869700C0
:106FAC006314D702B727002083A747A201449DC7CB
:106FBC0018450345070059E90547A380E700054537
:106FCC00EF90102E054419A89386A700631ED700D6
:106FDC001C4503C50700EFF0DFE32A842285F2404D
:106FEC006244D2440561828093866703E308D7F834
:106FFC0093867703E30FD7F893868703631BD70435
:10700C00B724002083A744A20144E9DB1C4503C537
:10701C0007000DED05447D45A3048100EFD08FD210
:10702C002315A10013050002EFD0CFD183A744A2F2
:10703C002316A1007800A38087009306A1001306F5
:10704C00910085450545EF90102EADBFEFF03FD771
:10705C0095BF93869703E30DD7F69386E7036317E3
:10706C00D7001C45094583C5070029BF9387F70343
:10707C006316F7021C4503C507002DE96C001305C8
:10708C00D030EFE0213FB247414793F7070FE38B36
:10709C00E7F285450545EF90D0292DB78967938791
:1070AC0007040144E31CF7F21C4583C40700B7270F
:1070BC00002083C7E7A4268595EB0D45EFA05FB6AE
:1070CC00AA850544E30C05F0930700FD2300F500A9
:1070DC00D147A30095002301F500B727002083A713
:1070EC0047A203C50700EFA03FBECDBDEFF0DFE325
:1070FC00D1BDB727002083C7B7D8411106C6958BE1
:10710C0099CB37250020130585B0EFC01F884D455E
:10711C00B240410182800145EFC03F870145CDBFA0
:10712C0003C70500937625009377D70F99C2936711
:10713C002700131885011358884113F7F707635478
:10714C00080013E70708937685009377770F99C2A9
:10715C00936787001377050293F6F70D19C393E62F
:10716C0007022380D500634508009377A50281CBE5
:10717C008347060093E7C7002300F60082807DFD5D
:10718C0083470600CD9BCDBF2D456317071403C85D
:10719C0005000947631EE812C84103471500034563
:1071AC0005002207498F42070D654187930825A0EA
:1071BC006309170B011122CC26CA4AC84EC606CE4B
:1071CC00BE89B68432842E8963CEE800930705A06D
:1071DC00630DF702130515A0630EA704239004009A
:1071EC000545A5A0930745A06307F7086346F70676
:1071FC00130565AAE314A7FE85472390F600DC452A
:10720C0083C707002300F60081A0C845EFA01FC26A
:10721C00420541814E86637335012A862390C40052
:10722C00420641828325C90022859790FE1FE78084
:10723C00800C19A8DC4583D7070023900601230096
:10724C00F600A183A300F6000145F2406244D2444B
:10725C004249B2490561828099472390F60019464C
:10726C00D1B785472390F600DC45014583C707005D
:10727C002300F6008280DC45A9CB21472390E60051
:10728C0003D707002300E60003D707002183A300E0
:10729C00E60003D727002301E60003D7270021834C
:1072AC00A301E60003D747002302E60003D74700FB
:1072BC002183A302E60003D767002303E60083D7EC
:1072CC006700A183A303F60041B723900600ADBF6E
:1072DC002390060005458280828083C8050089477B
:1072EC006397F814DC41797122D406D626D24AD0A1
:1072FC004ECE52CC03C8170083C707002E84220839
:10730C003368F80042088D6713580841138327A08F
:10731C00630068102A8A3A89B684B285634C0301EB
:10732C00138707A0630AE802938717A06305F80880
:10733C00854711A8138737A06307E80A138767AA44
:10734C008D47E317E8FEB250225492540259F24989
:10735C00624A3E8545618280484432C6EFA01FAD2B
:10736C00420541819D47E36025FFB3099900D5474C
:10737C00B24563D43701B547F9B748442686C209EC
:10738C004A959790FE1FE78000F7484493D909016E
:10739C0059463306364181454E95EFA01FA8B727B5
:1073AC00002083A747A699E3814771BF9C43814581
:1073BC00E5DF52853DA0AD47E31709F8E39D16FBC9
:1073CC0083471600834606005844A207D58F231026
:1073DC00F700B727002083A747A6F9D79C4385451C
:1073EC00E1D78297D1B7AD47E31F09F49947E394EE
:1073FC00F6F8484419469790FE1FE780C0EFB72770
:10740C00002083A747A6CDD39C43D9DF8D4555B724
:10741C00AD4715FB8547E390F6F603470600930747
:10742C000008E3E2E6F2DC452380E700B5BF8547C0
:10743C003E858280B72700203727002023A207A68D
:10744C00B72E00208947230CF79C130F879D81478B
:10745C00938ECEB15947B386FE0023800600850774
:10746C00E39BE7FEB7250020B707A0009385C59DD9
:10747C00938707059CC1B707E803DCC1B727002039
:10748C00238107A637660300B72700209387C78C94
:10749C0013060616D0C3372E0020376603000947A3
:1074AC00130E5E9D130646132300EE00D0C723AEC9
:1074BC00E70123AEC70337230020B7280020372865
:1074CC0000203725002037660300376F0300376E26
:1074DC0003008546130646149388989D130303A650
:1074EC001308789D1305659D130FCF14130ECE133F
:1074FC002380E8002380E7002388E7002380E7024D
:10750C002388E7022380E7042300E8002384D700C4
:10751C0023950700D0CB238CD700239D070023A2F3
:10752C00E7032384D7022395070223A6D703D0DBD6
:10753C00238CD702239D070223A2C7052384D704DB
:10754C0023950704231003002300D50023A667040A
:10755C002388E70423AE17052380E7062388E70674
:10756C002380E708B7680300376703001307071485
:10757C009388C81523A2E708F0CB238CD704239D4E
:10758C00070423A217072384D70623950706ECD7F5
:10759C00F0DB238CD706239D070623AE0707238435
:1075AC00D7082395070823A6A70837770100B72724
:1075BC0000209387C7951307471998C337770100A5
:1075CC001307672ED8C323A407008280A54763ED59
:1075DC00A70CB7670300938707C30A053E951C41A8
:1075EC00411122C426C206C64AC0B2842E848287A8
:1075FC00D547614563E3B7023729002059468145D9
:10760C001305C9B1EFA07F812286A6851305C9B1E8
:10761C009790FE1FE78020CE0145B2402244924451
:10762C0002494101828089476145E398F5FE035781
:10763C000600B72700202390E7A6F9BFA1476145B4
:10764C00E39DF5FC372500202146A6851305C59D35
:10765C00EFE0C150D1B785476145E390F5FCB72504
:10766C0000209385C58CD04D9385850203C50400FD
:10767C00EFF01FAB55B785476145E390F5FAB72599
:10768C0000209385C58CD05D93858504C5B785474F
:10769C006145E394F5F803470600B7270020238BD8
:1076AC00E79C9DBF094595BF094582800547630C42
:1076BC00E5024111AA8706C62E8599CB1147638C2A
:1076CC00E70225476381E7040945B2404101828006
:1076DC00B725002055469385C5B19790FE1FE780CE
:1076EC0080C10145DDB7B727002083D707A6014528
:1076FC002390F5008280B725002021469385C59DF7
:10770C00EFE0C145F9BFB727002083C7679D2380F1
:10771C00F500C1BFB7270020938727A603C7070032
:10772C0015E305472380E700058909CDB72600201E
:10773C00372500209386C6954146A5451305C58C73
:10774C006F3080770145828001111388F5FF06CEDA
:10775C0022CC26CA4AC84EC652C41378F80FAD457F
:10776C0063ED050BB76503000A08938585C52E9854
:10777C003E8A83270800BA893689B2848287854578
:10778C00EFC0EFBC2A8419E1EFF0BF962285F240DE
:10779C006244D2444249B249224A056182808945F9
:1077AC00EFC0EFBA2A847DF12685EFE0BF94F9BFD4
:1077BC009145EFC0CFB92A8471F95286CE854A859E
:1077CC00EFC04FB0EFF0FF92EFF00FD5EF808030AD
:1077DC0075BFA145EFC0AFB72A844DF95286CE854F
:1077EC004A85EFC02FAE2685EFE0DF90EFE01F87D4
:1077FC00EF80800F61BFB145EFC06FB52A8459F59A
:10780C005286CE854A85EFC0EFAB2685EFE09F8E82
:10781C00EFE0DF84EF80400D75B7094485BF7971C7
:10782C004ECEAE896C0022D426D24AD006D62A89F6
:10783C00B284EF1060032A840DE1CE854A85EFB047
:10784C006FFE2A8419E93245B736010026879386E4
:10785C0026022D468145EF10001C2285B250225481
:10786C0092540259F2494561828079714ECEAE89AB
:10787C006C0022D426D24AD006D62A89B284EF00D4
:10788C00B07E2A840DE1CE854A85EFB0DF872A844D
:10789C0019E93245B73601002687938686104D4686
:1078AC008145EF1040172285B25022549254025950
:1078BC00F24945618280397126DAAE844C0022DCB3
:1078CC004AD84ED652D406DEAA893289368AEF00BF
:1078DC00B0792A8431EDA6856303090283D70400AD
:1078EC002C002314F10083D724002315F1009307F7
:1078FC0020302316F100930780022307F1004E85F8
:10790C00EFB02FEF2A840DE55946A6851305A1008B
:10791C00230421019790FE1FE780E09D1245B736A6
:10792C00010052879386C6FC25462C00EF10A00E52
:10793C002285F2506254D2544259B259225A2161D2
:10794C008280797126D2AE846C0022D44AD04ECE7D
:10795C0006D6AA893289EF0030712A840DE1A685FA
:10796C004E85EFB00FEE2A8419E93245B736010087
:10797C004A87938606043546A685EF10C0092285F2
:10798C00B250225492540259F24945618280BD474B
:10799C00638CF50663E9B702A5476387F50663EDCB
:1079AC00B7009947638CF5049D47638FF5049547A1
:1079BC00638CF50401458280B5476387F50463E168
:1079CC00B704AD47F5B7DD47638EF50263EAB70040
:1079DC00C947638BF502D9476386F502C547C9BF12
:1079EC00F5476383F50263E4B700ED47D1B793071E
:1079FC002005638BF5009307200D5DBF4845828001
:107A0C000841828008458280484182809307F00FAC
:107A1C00630CF506011126CAAA841305000222CCB8
:107A2C004AC84EC652C456C206CE3A89B689B28AE4
:107A3C002E8AEFA0EF9E2A844D4515C8930700FBB4
:107A4C002300F400A3005401231144012302340148
:107A5C0013058400614663050902CA859790FE1FD1
:107A6C00E7806089A2852685EFA00FA60145F2402C
:107A7C006244D2444249B249224A924A0561828008
:107A8C008145EFA08FB9F9BF09458280011122CC45
:107A9C0006CE2A842306B100A306C100EF50606E07
:107AAC0005C10347C500A1476310F702B7270020A3
:107ABC0003C5479E78009306E0070146A285B937B7
:107ACC00F240624405618280B7270020780093065B
:107ADC00E0070146A28503C5579ED5B70111B7270C
:107AEC00002026CA4AC806CE22CC138747C00347BB
:107AFC0047012A89938447C0131587016185635810
:107B0C00050437440F00130404243306860213546F
:107B1C005600B727002083A787C436C62EC4829789
:107B2C008387440133068500A245B24663C907002A
:107B3C00B707C0A86365F600B70740573E96624486
:107B4C00F240D2444A85424905616FA00FB7058BBC
:107B5C0019C72164130404D0330486025DBF3704B3
:107B6C00400013040406330686021306060413545D
:107B7C00760045B705C903470500854693072700DE
:107B8C0093F7F70F63F0F602411122C42A843A8569
:107B9C0006C6EFA0EFE8FD572300F400B2402244E4
:107BAC00410182808280035705009307000B631309
:107BBC00F702834745004947639CE70003471501DB
:107BCC0085476399E7000355250085456F30D065DF
:107BDC006D47C5BF828001112314B1006C0022CC0B
:107BEC0026CA4AC806CE2A89B6842315C100EF00DE
:107BFC00B0472A840DE12C004A85EFB0CFB52A841A
:107C0C0019E93245B736010026879386A6F1154649
:107C1C002C00EF0050602285F2406244D24442496D
:107C2C00056182807971930720302314B1002315EC
:107C3C00C1002316F1002C0093078002014606D6E2
:107C4C002307F100EFF03FC7B25045618280C17746
:107C5C00797185073EC4894726D22316F100AE847C
:107C6C00930780024C0022D44AD006D62A892307D7
:107C7C00F100EF00703F2A840DE12C004A85EFB033
:107C8C00AFC52A8419E91245B736010026879386B9
:107C9C00060B45462C00EF0010582285B25022549A
:107CAC009254025945618280B28605466FF0BFC07E
:107CBC00797126D2AE846C0022D44AD04ECE06D630
:107CCC00AA893289EF00503A2A840DE1A6854E85A7
:107CDC00EFB08F9F2A8419E93245B73601004A87E5
:107CEC00938666EB0D46A685EF00F0522285B250C6
:107CFC00225492540259F24945618280797193075A
:107D0C0020202314B1002315C1002316F1002C00F0
:107D1C0093078002014606D62307F100EFF0BFB9A6
:107D2C00B25045618280011122CC06CE2A842EC627
:107D3C0032C436C2EF50E0440DCD8346C500A14796
:107D4C0012472246B245639EF600B727002003C5B2
:107D5C00479EB2862E86A2856244F24005616FF082
:107D6C00FFCAB7270020B28603C5579E2E86A28570
:107D7C00E5B7F24062440545056182806FF03FAA89
:107D8C006FF0FFA96FF0FFBB6FF0BFBB79714ECEE8
:107D9C00AE896C0022D426D24AD006D62A89B28467
:107DAC00EF00902C2A840DE1CE854A85EFB04FABC5
:107DBC002A8419E93245B736010026879386E605F1
:107DCC003D468145EF0030452285B25022549254F5
:107DDC000259F24945618280B28601466FF0BFAD0F
:107DEC00011122CC2E846C0026CA06CEAA84EF0088
:107DFC00B027DD47630AF500930710102314F40035
:107E0C00A2852685EFB02FB0F2406244D2440561C2
:107E1C0082802394050083D7850099E36FF0FFA43B
:107E2C0009458280FDB70111B72700204AC803C954
:107E3C0067A922CC26CA06CE2A84AE84EF803116DE
:107E4C00637525036C002285EF00102209E9930766
:107E5C0000102394F400A6852285EFB0CFAAF2403F
:107E6C006244D2444249056182805945CDBFB7274F
:107E7C00002023A4A7A68280B727002023A6A7A6AC
:107E8C008280011122CC26CA06CE2A84AE84EF5001
:107E9C00402FA6852285EFA05FCE1DE522852316F7
:107EAC009100EF50002E0DC10347C500A14763128E
:107EBC00F702B727002003C5479E78009306F0070A
:107ECC000146A285EFF09FB4F2406244D2440561B2
:107EDC008280B727002078009306F0070146A28520
:107EEC0003C5579EC5B7011126CA06CEB68422CC4F
:107EFC00DD4663E2B608D94663FED50AA546638122
:107F0C00D50A63EEB6049546638CD508994663870B
:107F1C00D50A054441687D18631606093AC6EFA0D8
:107F2C009FC9330685403247420641824204418054
:107F3C003305C4004205BA85418132C6EF30103F8B
:107F4C00AA8749C181C432462390C400B30580403E
:107F5C006244F240D2443E8505616F905FC4C546D1
:107F6C006380D504C9460D44E395D5FAC167FD1766
:107F7C00E31EF6FA65B7F5466380D50463E4B600F4
:107F8C00ED46D5B7930620056388D5029306200DE0
:107F9C00E391D5F8C167FD170D446319F600BDBF19
:107FAC0009448DBF9306200DE392D5F831064206A5
:107FBC004182ADBF15445DBF0D444DBFC167FD1778
:107FCC001D447DB7F2406244D244056182800111A8
:107FDC0022CC26CA06CE03C645002E841307000207
:107FEC0081469945AA84EFF01FF02AC629CD835704
:107FFC00040003464400930554002310F1008357FA
:10800C0024002311F10089472312F1009307800209
:10801C002303F1009780FE1FE780E02D8347440087
:10802C008A8526852314F100EFA0BFF52A8411C59B
:10803C0032459780FE1FE780000B2285F240624498
:10804C00D244056182804D44CDBF5D7186C6A2C409
:10805C00A6C2CAC04EDE89476306F600C147094472
:10806C00631AF6040144B9C52E894C0832C6B68988
:10807C00AA84EF00607F2A8432460DEDC177850714
:10808C00CA851305D1013ECC230EC1009780FE1F7B
:10809C00E78060262C082685EFF07FF32A8419E907
:1080AC005245B73601004E87938626F71D462C089D
:1080BC00EF0070162285B640264496440649F259C4
:1080CC0061618280797122D436844AD04ECE52CCF2
:1080DC00B2892E8A3A898146130710022286D94525
:1080EC0026D206D6AA84EFF01FE02AC629C1228622
:1080FC00CA85231481002312410123133101978077
:10810C00FE1FE780401F4C002685EFB08F8A2A8423
:10811C0011C532459780FE1FE780E0FC2285B250E6
:10812C00225492540259F249624A456182804D446C
:10813C00F5B7011122CC26CA06CE4AC8DD472A84DF
:10814C00AE84638DF5028147035504006C00230651
:10815C00F100EFB08F890545638EA40803458400B8
:10816C00B165938505B8EF907FFAE5472301F400DC
:10817C00B73701009387C71E5CC0A5A803475501FC
:10818C003149B2863306270318499C423297104373
:10819C00E31BF6FA83D7460003564700E315F6FABD
:1081AC008C4608479780FE1FE780601849DD83479F
:1081BC00540103474401850793F7F70FA30AF40012
:1081CC0063F0E704B3872703184803550400BA97F4
:1081DC00984783D6470003D6270083D50700EFF0D6
:1081EC007FEE35F103458400B165938505B8EF90BA
:1081FC00FFF15945F2406244D24442490561828004
:10820C008347640191B7011122CC26CA06CEDD4703
:10821C002A84AE84639CF50603550500EFA0BF9934
:10822C000356C40183562401035744016D162A9644
:10823C0042064182B307D640C207231EC400C18345
:10824C0063F1E7089305C5FF3308F740635CB80298
:10825C00BA96918EC206184C83550401035504003E
:10826C00C1823E97EFF01FE615E103458400B1652E
:10827C00938505B8EF909FE95945F2406244D2448A
:10828C00056182806D1593160501F1B78147035581
:10829C0004006C002306F100EFA03FF50545E38ECA
:1082AC00A4FC03458400B165938505B8EF901FE6E7
:1082BC00E5472301F400B73701009387C71E5CC064
:1082CC0065BF8547E9B7397126DAAE842C0022DC0C
:1082DC004AD84ED606DE2A89B28979232A8421ED22
:1082EC004A85EFA05F8D83D644006D1563C5A6004B
:1082FC0093160501C182984403D6240083D504004B
:10830C004A85EFF03FDC2A841DE53146A685080836
:10831C00230601009780FE1FE780E0FD83D7240031
:10832C002245B73601004E879386A6175D466C0032
:10833C00231EF100CD252285F2506254D2544259AD
:10834C00B259216182806FF01FF86FF0DFF77971FD
:10835C0026D206D622D44AD04ECE52CC56CA894406
:10836C00BDC935CA32892E84AA893A8AB68AEFA049
:10837C009F8413064400814771150357060063560A
:10838C00A706850793F7F70F3106E318F9FE8A85E0
:10839C004E85D929AA8421E11844835644000356FA
:1083AC002400835504004E85EFF0DFD1AA8405E547
:1083BC000245B7360100854752879386A6175D465E
:1083CC004C002302F10022C423062101A306010064
:1083DC00230751018925B250225426850259925403
:1083EC00F249624AD24A45618280ED44EDB7797117
:1083FC004ECE37660300AE89C16526D20147AA84EA
:10840C00894613068616FD15054522D406D64AD094
:10841C00EF105015054431CD2A89130730028146DF
:10842C001146F5452685EFF01FAC2AC6554431C1DF
:10843C008357A900CE8601462314F10091472315DA
:10844C00F10085472300F500B2472C002685A38058
:10845C0007003247FD572301F7003247A301F7000D
:10846C00EF1010062A8411C532459780FE1FE78055
:10847C0080C72285B250225492540259F249456168
:10848C008280411106C6EFF08FD019C5B240410170
:10849C001783FE1F670023C5B24041018280B727B6
:1084AC000020A382A79E8280B72700202382A79E4C
:1084BC008280011106CE2AC6EFA0CFD5FD573727F3
:1084CC000020A302F79E3727002032452302F79E97
:1084DC00B727002023A407A6B727002023A607A6AA
:1084EC009145B72700202380A7D0EF30605FF24082
:1084FC0005616F20503393970501C18763DB071229
:10850C00B727002003C507D0797122D44AD006D6EC
:10851C0026D22E89EF90AFF42A8451CD0347050063
:10852C009307000A6316F70885474C08A305F1006A
:10853C00EFA06FDBAA840DED834761017147637572
:10854C00F708138717FE1377F70F9306000263F4EF
:10855C00E608858BD5C7B727002083A787A6994443
:10856C0081CB035524001306B1004C088297AA84D2
:10857C008347B10099C7084409C59780FE1FE7805F
:10858C0080B695E05247B7070001938707F07D8FBF
:10859C00B707120093870710630CF70003476101BC
:1085AC00ED476317F700035524008545EF30C047AE
:1085BC002285EF902FE4B250225421653345A90057
:1085CC00925402594561828037073014050733579E
:1085DC00F700058B3DDF372700200327C7A649DBB3
:1085EC000347510151F72306F10099472308F10085
:1085FC00035524006C0023170100EFA04FF38DBF2F
:10860C00B727002083A7C7A69DC3035524001306D4
:10861C00B1004C08829729DDAA8483475101A9FB3C
:10862C0083476101230891002306F100D1B79944D7
:10863C00EDB701458280397122DC26DA06DE4AD894
:10864C004ED652D456D25AD0A5472A84B2846399B6
:10865C00F5108347450203570600835A2600850709
:10866C002302F5029307F7FFB387FA025442C207BD
:10867C00C183B69703C9170083C707008346C5009B
:10868C0022093369F90085476390F60233075703D3
:10869C00231006008149014A130B3501931A070177
:1086AC0093DA0A0163E15907C167FD176302F90CFC
:1086BC0083570401637EF90A050942098346C40005
:1086CC001359090123172401054703550400930589
:1086DC00E400639FE6002315F10093072030231676
:1086EC00F10093078002231421012307F1002C00D1
:1086FC00EFA03F9003458400B165938505B8EF90DA
:10870C00FFA05945BDA083D62400DC40834524013D
:10871C00ED1613865900C206C1823E965A85EFA00B
:10872C00EFB405C9630C3A01C84003D62400B30565
:10873C00350152959780FE1FE780E0BB83D724005C
:10874C003E9A83D70400420A135A0A0185072390E4
:10875C00F40083D72400BE99C20993D9090199B7B3
:10876C0003474600A9476310F7028347450281CFB0
:10877C000145F2506254D2544259B259225A925A7B
:10878C00025B216182808346240113093401376521
:10879C0003004A86894513050516EFA02FAD19C1B4
:1087AC000545C1BF83462401376503004A868945C8
:1087BC0013054516EFA08FAB65F58346240137658D
:1087CC0003004A86894513058515EFA02FAA69F980
:1087DC0083462401376503004A86894513054514F1
:1087EC00EFA0CFA855FD03C74400BD47E3EAE7FA65
:1087FC00A56793874712B3D7E700858BD5D38347FB
:10880C00440285072302F40203D9240071BDB72763
:10881C00002003C647D8B727002003A707A7814726
:10882C006315F600814636858280BA861307870267
:10883C00835587FDE389A5FE850793F7F70FCDB721
:10884C00011106CE2EC6EFF09FFC01CD8347A5008B
:10885C00B245138717006396E50093F707F82305D5
:10886C00F500F24005618280011106CE2EC6EFF0B4
:10887C001FFA05C5B24591C188C18347850013070E
:10888C00E00F5D456388E7001307F00F0145638334
:10889C00E7005945F240056182800945E5BF411169
:1088AC0022C42A84210506C626C24AC0EFF08FAC2A
:1088BC0083472400A51793F7D70F91EB0347C40008
:1088CC008547631EF7041C48814431499DEFFD57D1
:1088DC0023010400A304F400230204021305C400C2
:1088EC002244B240924402496146814541016F9055
:1088FC00CFD2B38724033E95084509C59770FE1F58
:10890C00E780607E850493F4F40F834744010848A4
:10891C00E3E1F4FE9770FE1FE780E07C4DBF084C4E
:10892C0075F975B7411122C4416406C626C2930776
:10893C00E4FF630EF500AA8485E1EFF05FED01E939
:10894C001305F4FFEFF0BFEC19C123109500B240F2
:10895C00224492444101828085476395F504EFF0EF
:10896C001FEB2A846DD5FD572310F5008347840037
:10897C001307F00F6385E7021307E00F638BE70023
:10898C00834624000345940001475146A685EFF029
:10899C00EF872285EFF0BFF0FD572304F400230589
:1089AC00040075B78947E394F5FA8545EF40301814
:1089BC0059FD2685EFF0BFE52A844DF949BF39C929
:1089CC00034785009307F00F6306F704011122CCCF
:1089DC0006CE2A8483462500835505000345950061
:1089EC0001475D46EFF08F8203472400E14763198E
:1089FC00F700035504006C0023060100EFA0EFFE06
:108A0C00F9572304F4002285EFF07FE9F240624429
:108A1C000561828082809307F00F6306F7060111CF
:108A2C0022CC26CA2A844EC6AE84B689AA85930661
:108A3C008500379501004AC852C43A89328A130519
:108A4C00A59C794606CEEFF06F89A304240123017F
:108A5C0044012322340185C01305C4006244F24052
:108A6C004249B249224AA685D24461460561178320
:108A7C00FE1F67004388F2406244D2444249B24927
:108A8C00224A056182808280B7270020238AA7A60C
:108A9C0082809547639CF50683474502854685078A
:108AAC002302F50283570600584203462600FD17A1
:108ABC00C207C1836318D6048A07BA9703C7170085
:108ACC0083C707002207D98F0357E50063F9E70432
:108ADC00411106C622C485072316F5002A84930586
:108AEC00C50003550500EFA00FC703458400B16511
:108AFC00938505B8EF908FE1B2402244D9473E856B
:108B0C0041018280C946B387D70245BF83464600E0
:108B1C00294785476396E6000347450211C3814701
:108B2C003E8582809D476392F506834745028356B6
:108B3C00E50085072302F502835706005842FD170E
:108B4C008A073E978347170003470700A207D98F70
:108B5C00014763F6D704411106C622C485072A844F
:108B6C002316F5009305C50003550500EFF02FC63D
:108B7C0003458400B165938505B8EF902FD9B240B9
:108B8C00224459473A854101828083464600A947D1
:108B9C0005476396F60003474502133717003A85DD
:108BAC008280411122C406C626C2B5472A84639B23
:108BBC00F50483474502B28485072302F502035569
:108BCC000500EF905FFF83D704001307F5FF014505
:108BDC0063C5E7020357E400035504009305C40082
:108BEC00BA972317F400EFA0CFC503458400B165F5
:108BFC00938505B8EF908FD15945B24022449244E9
:108C0C0041018280034746009D470545E317F7FE67
:108C1C000345440213351500CDB7C547639EF506D1
:108C2C008357060003572600FD17B387E702034757
:108C3C00450205072302E5025842C207C1833E974D
:108C4C008347370003472700A207D98F41677D1759
:108C5C006395E70081473E858280138717002316B2
:108C6C00E5000357E500E3F7E7FE411122C4930545
:108C7C00C5002A840355050006C6EFA0EFC50345C1
:108C8C008400B165938505B8EF904FC8B24022447B
:108C9C00D9473E8541018280834646002947854756
:108CAC00E39BE6FA0347450255F775B7011122CC51
:108CBC0026CA4AC852C406CE4EC683C725001547DD
:108CCC002A8AAE8432843689639DE7043686A2856F
:108CDC002685EFF01FDCAA8955E985476318F40A4D
:108CEC0003474900A9476301F70203C594004A876B
:108CFC0085460146D285EFE07FD119E585454A8549
:108D0C00EFE0FFC81334150083C6240003C594009C
:108D1C0001476946D285EFE07FCF2685EFF03FB85B
:108D2C0051A01D476398E7003686A2852685EFF093
:108D3C007FDF55B725476398E7003686A2852685E1
:108D4C00EFF07F8F49BF35476398E7003686A285E1
:108D5C002685EFF01FE541B745476398E700368657
:108D6C00A2852685EFF07FEBBDB75D47639FE700DB
:108D7C0003C7C50085473686A2852685631DF70285
:108D8C00EFF02FBB8547631BF5048549A547631797
:108D9C00F402835709009DE30544E38709F6D9479C
:108DAC00E39DF9F62285F2406244D2444249B2492D
:108DBC00224A05618280EFF00FC5E9B703C5940024
:108DCC004A87A2860146D285EFE05FC471F5A28581
:108DDC004A85EFE0DFBB13341500C1B70544D9B7A2
:108DEC00397122DC06DE26DA4AD84ED652D456D257
:108DFC005AD083D705001944B1E783CA2500AA8944
:108E0C00328A93875AFE93F7D70FAE84C5EBB727F8
:108E1C00002083C647A71307F00F138B47A71944ED
:108E2C006382E602F5476395FA04EFF05F9E2A89A8
:108E3C0029C10346A50015CE93178601E18763DE91
:108E4C00070001442285F2506254D2544259B2595F
:108E5C00225A925A025B21618280F5454E85EFE0E1
:108E6C00FFC28347A90093E707F82305F900D1BF98
:108E7C00014983D64400904483C5140003C5040003
:108E8C003800EFA08FB72A8455FD83C62400034514
:108E9C000B0038000146CE85EFE05FB72A845DF108
:108EAC00B24799C323000A0083C724007547E39A8D
:108EBC00E7F8E30809F82305F90069B7EFF03F95E7
:108ECC002A8941D185476391FA0683D544008844A9
:108EDC003000EF903FD02A8435F503472900C54771
:108EEC0063F2E706DD476301F708B7270020034567
:108EFC00990083C707D0639CA70601440347290048
:108F0C008D47631FF700835781000357C90063F433
:108F1C00E7002316F9008355C9004E85EFE07FF674
:108F2C004A85EFF0DF9739BF834725001144E39B57
:108F3C0057F15C41E38807F083D544008844300046
:108F4C00829751BFB72702009387072AB3D7E70050
:108F5C00858BC1DF03C624003400CA854E85EFF033
:108F6C00FFD42300AA00F9BD83270901DDB783C60E
:108F7C00240038000146CE85EFE05FA92A843DFD30
:108F8C0083C524002800EFE09FA025D923000A0008
:108F9C00B5B7011126CAB724002003C544D89307DE
:108FAC00800291653305F5029385657006CE22CC5F
:108FBC004AC84EC652C49770FE1FE780E003B7271D
:108FCC00002023A8A7A61DCD138907A70144130AC7
:108FDC008002FD5983C744D8636FF40237950100B2
:108FEC001305C5DEEFE0BFE8379501001305C58416
:108FFC00EF903FAE3795010013050593EF40802AA3
:10900C00014511A04D45F2406244D2444249B24957
:10901C00224A05618280B307440303250900614697
:10902C00814505041374F40F3E952310350123017B
:10903C000500231435012305050023020502310523
:10904C00EF80BFDD41BF0145828083D70500638778
:10905C00A70083D745006395A70091052E858280D4
:10906C0083D78500A105E38BA7FE8145C5BF0DCD38
:10907C00834725000547890793F7F70F6376F702B7
:10908C00411122C406C62A848355050003453500C8
:10909C000147F9465D46EFE07F97F9572311F4003D
:1090AC00B240224441018280828001458280372671
:1090BC0000201306369F930700022300F600372783
:1090CC000020FD572309F79E37270020A303F79EA6
:1090DC00372700202303F79E8545B72700202398C8
:1090EC00B79EB7270020239B07A6B727002023AEE7
:1090FC0007A6B727002023A407A8B727002023A082
:10910C0007A8B7260020B76703009386869E93872F
:10911C004715DCC2B7270020238C07A6B7270020F1
:10912C009387879609472380E6002380E7002388EE
:10913C00E7002380E7022388E70237670300D4C7E0
:10914C0013078714B7660300D8DB938646140D47C4
:10915C00D4CB238CE70237650300B76603003727AF
:10916C000020130747B31305051693868616D8DF20
:10917C00C8C32384B70023950700238CB700239D15
:10918C000700D0CFD4D3238407022395070223A64C
:10919C000702239D070237970100B727002093870A
:1091AC00879A1307272723A00700D8C323A40700F7
:1091BC008280411106C6EFF05FE911C50345250019
:1091CC00B240410182800145E5BF411122C426C253
:1091DC004AC006C6AA842E893284EFF01FE711E933
:1091EC004165CA857D15EFF05FE6C54711C52310B3
:1091FC009500230185008147B240224492440249E4
:10920C003E854101828029E78948354763931605DD
:10921C00011106CE22CC26CA0347160003460600CF
:10922C0093C7F7FF2207598EF18F32C68DE7C445DD
:10923C002A84A685EFF0FFF732460147630FA6009C
:10924C0022856244F240A685D24405616FF0FFF797
:10925C002D473A85828013070008F2406244D244BD
:10926C003A850561828083C8050009486395080327
:10927C0003A845008347180003480800A207B3E77A
:10928C000701C2070D68C187130828906395070171
:10929C0089476FF05FF705458280011122CC372496
:1092AC0000201304749E0347040006CE26CA4AC845
:1092BC004EC69307F00F6300F704AA892945B284C0
:1092CC002E89EF80FF9505C99307100B2310F5002D
:1092DC0023020500231135012313250123149500C6
:1092EC00AA85034504006244F240D2444249B24983
:1092FC0005616F807F9DF2406244D2444249B2497D
:10930C0005618280411126C2AE84B7250020938569
:10931C0045B322C406C62A84EFF0BFE9098909C9FE
:10932C0022852244B240A685924441016FF02F8CD5
:10933C00B24022449244054541018280411122C42D
:10934C0026C24AC006C6AA841304450013090504A4
:10935C00835704008DC3084409C59770FE1FE7802E
:10936C0080D8228531468145EF803FAB3104231AEA
:10937C0004FEE31F24FDB2402244FD572390F40069
:10938C000249924441018280B727002083A747A855
:10939C0003D707006300A70283D6070413870704CB
:1093AC006388A6001387070883D707086396A7006E
:1093BC003A8582803E87EDBF0147DDBFB72700208D
:1093CC0083A787A889CB03D747006314A7008847D6
:1093DC0082809C43C5BF01458280411106C6EFF0D7
:1093EC00FFFD09C50845B240410182800145E5BF3A
:1093FC00011126CA9384450022CC4EC606CE4AC81B
:10940C0052C456C25AC026878149014481468147BD
:10941C0015450356070045CEC9E203544700835750
:10942C002700B286A297C207C18385093107E39250
:10943C00A9FE35C42E899165938545702285977058
:10944C00FE1FE78060BB2A8B39C9814A014A8C44D4
:10945C0085C503D6440033054B019770FE1FE7808A
:10946C0080E983D7440088443E9A420A135A0A0181
:10947C009770FE1FE78020C763870A00314681453D
:10948C002685EF809F99850AB104E3C23AFD232615
:10949C00690123148900054521A0630DD6000145FF
:1094AC00F2406244D2444249B249224A924A024BA7
:1094BC000561828003562700E313F6FE035647002E
:1094CC003294B2974204C2074180C183B9BF0545AB
:1094DC00E35835FDB9BFB727002083A707A899E348
:1094EC000145828098470357A7006315A700138591
:1094FC00470082809C43E5B7411106C6EFF0BFFDE3
:10950C0011C503550500B240410182800145E5BFFC
:10951C00411106C6EFF03FFC11C503452500B240D2
:10952C00410182804145E5BF411122C42A842E8528
:10953C0006C6EFF0FFFDAA8505462285EF30904761
:10954C0095476305F500BD476313F5002145B2400F
:10955C002244410182804111B727002022C406C653
:10956C0003A407A88146938707A829C0184403566B
:10957C00A70018406317A60285CA98C22E8581C918
:10958C002146930544009770FE1FE780C0D62285C4
:10959C009770FE1FE78020B50145B240224441017F
:1095AC008280A2863A84D1B798C3C9BF0545F5B766
:1095BC0037270020832787A80146130787A8A9C748
:1095CC0003D847009443631CA802011106CE22CC99
:1095DC0026CA0DCA14C2AA843E852E849770FE1F1B
:1095EC00E78060B02C002685EFF0FFF601E519C08E
:1095FC00B2471CC0F2406244D244056182803E8670
:10960C00B68775BF14C3C1BF05458280411122C402
:10961C002A84090506C6EFE0EFD5FD57A301F40037
:10962C00B240224441018280B727002083D687B5FF
:10963C002A87938787B56381A60283D66700638FD9
:10964C00A60083D6C70001456397E6000945194774
:10965C003305E5023E9582800145D5BF0545C5BF62
:10966C00411122C4416406C626C29307E4FF630E6F
:10967C00F500AA8485E1EFF03FFB01E91305F4FF47
:10968C00EFF09FFA19C123109500B2402244924486
:10969C004101828085476394F504EFF0FFF82A843A
:1096AC006DD5FD572310F500834724001307F00FE9
:1096BC006384E7021307E00F638AE7000345340075
:1096CC000147F9465146A685EFE04FB42285EFF0ED
:1096DC00FFF3FD572301F400230204007DB78947F3
:1096EC00E395F5FA8545EF30904445F12685EFF08A
:1096FC00BFF32A8455F951BF1D71A6CACEC686CEBA
:10970C00A2CCCAC8D2C4D6C2DAC05EDEAE8483C5CF
:10971C002500F947AA896397F504EFF0FFF02A8436
:10972C0011ED01442285F6406644D6444649B649BB
:10973C00264A964A064BF25B2561828083472500B8
:10974C000547890793F7F70FE37DF7FC03453500D1
:10975C000147F9460146CE85EFE04FAB2285EFF08D
:10976C00FFEAC1B703AB0400B7070001938707F00A
:10977C0037071200B377FB0013070710B28A638A0E
:10978C00E7022EC6EFF05FEA2A89B24505C503460B
:10979C0045000DC293178601E187E3C407F84E8597
:1097AC00EFE0CFAE8347490093E707F82302F900B7
:1097BC008DBF0149372A002003472A9F9307F00FDA
:1097CC00130A2A9F1944E30FF7F4E147E3ECB7F4CB
:1097DC0093D71500FD1713973700B76703009387CE
:1097EC0087C8BA9703A80700E30E08F283AB4700BB
:1097FC00E38A0BF2420B135B0B0163050B00C947A9
:10980C00E392F5F283D64400904483C5140003C55B
:10981C000400380802982A84E31605F02C084E85BB
:10982C00829B2A8421C983C71400E39D07EE83C75A
:10983C002400230AA10039472308F1006399E702A9
:10984C0062478347170003470700A207D98F0C080C
:10985C004E852319F100EF908FCDE30405EC14082D
:10986C000546D9454E85EFE00FCC2A8465BD83575C
:10987C008101F1BF83C624009147E384F6EA0345D6
:10988C000A0038080146CE85EFE04F982A84E31B86
:10989C0005E883C524002808EFE06F8F19C12380E9
:1098AC000A009840B7070001938707F07D8FB70730
:1098BC00120093870710E306F7E6E30409E683C773
:1098CC0024002302F900B9BD011106CE2EC6EFF01B
:1098DC00BFD501CD83474500B2451387170063966A
:1098EC00E50093F707F82302F500F240056182804A
:1098FC00B727002003A707A819E3014615A81C47A2
:10990C0003D8A700636B050183584700B386080191
:10991C006355D5008146639416011843F1BF3E860A
:10992C00C10703D3A7FF6317A30099C123900501B7
:10993C00328582808506C206C182F1BF397152D44C
:10994C002E8A4ED69305E101AA89528522DC4AD88B
:10995C0056D206DE26DA328936C63AC4BE8AEFF013
:10996C003FF9054435C5AA840355E1013944EFF0AC
:10997C00FFA439CD03284500630C08042247B246E6
:10998C00D6874A86A6854E8502982A8431E19307AC
:10999C00E00F638FFA0203C704008947631AF702CA
:1099AC00D8408347170003470700A207D98FC20787
:1099BC000D67C18713072790639CE7008347190045
:1099CC0003460900D285A2075D8E4E85EFF0FF8C11
:1099DC002285F2506254D2544259B259225A925AA8
:1099EC0021618280797122D4035425004ECEAA893C
:1099FC00228556CA06D626D24AD052CC5AC85EC642
:109A0C0062C4AE8AEFF05F9801E92285EF901FD215
:109A1C00594429E90144B9A003C789008547AA84A0
:109A2C000144631AF702AA8513858900EFF05F9C45
:109A3C0029CD03D7640083D68400D04483D5440059
:109A4C0003D52900E147EFF07FEFD9472A8463184B
:109A5C00F50223A604002685EFF05F8E49C0D94796
:109A6C00E30AF4FA2285B250225492540259F24974
:109A7C00624AD24A424BB24B224C4561828061DD34
:109A8C0083D744002390FA00F9B713894400014AA4
:109A9C00914B594C154B83550900D5DDE1476306B5
:109AAC007A010357C90011C3D947035729008356BC
:109ABC0049000326890003D52900EFF03FE82A84EA
:109ACC006319850123240900050A3109E3156AFD90
:109ADC0059B77DD9835709002390FA00F5B703D500
:109AEC0029002DB701112317C1009307E00F1306AE
:109AFC00E1000147894606CEEFF05FE4F2400561D4
:109B0C008280797122D42A840355850026D2AE84B2
:109B1C009305210106D64AD0EFF09FDD6308050EB0
:109B2C008347850093F7070295CF2AC60355210179
:109B3C00EFF0BF8AAA87B24501ED835784003945FF
:109B4C002390F400B2502254925402594561828001
:109B5C00035524004946829711C5835784002390EE
:109B6C00F400CDB7035924004A85EFF0FF8111EDC5
:109B7C0041657D15EFF05F8119E58357840025451C
:109B8C002390F400C1B7231025011307450081472A
:109B9C009546035607002DE63147B387E7021309B4
:109BAC0084003146CA8591073E959760FE1FE78079
:109BBC0080743146CA8548089760FE1FE780A07301
:109BCC000356C4000355240041478146DD45EFE0B0
:109BDC008FB12ACE19E58357840045452390F400B4
:109BEC0095B70C480356C4009760FE1FE780A07021
:109BFC00035524004C08EF903FAF29D5594599B730
:109C0C0085073107E397D7F8254581BF0545B1B7DF
:109C1C00797122D42A840355850026D2AE8493050B
:109C2C00E1014AD006D63289EFF09FCC51C583476B
:109C3C00850093F70702A9E7034714019307200552
:109C4C0019E3834744008356A40050448355840091
:109C5C00035524000147EFF07FCEAA8721E9834703
:109C6C00140199E703552400EF903FA3D94711E164
:109C7C008147B2502254925402593E8545618280EC
:109C8C002AC60355E101EFF04FF5AA8705C9B24585
:109C9C000355240049468297AA8759DD035784004F
:109CAC002390E4000347140161F7E1B75947E31728
:109CBC00E5FE230009006DBF8547CDB7B947F9BF55
:109CCC00397122DC4AD84ED652D406DE26DAAA895D
:109CDC002E8A32C63689EFF03F95094415C5834765
:109CEC0025001307E00FAA845D44638FE700130778
:109CFC00F00F5944639AE700324605E2D2854E854F
:109D0C00EF90BFA62A8415CD2285F2506254D2540E
:109D1C004259B259225A2161828003550A00930597
:109D2C00E101231F0100EFF0BFBC0355E101EFF08F
:109D3C002FFEAA8505464E85EF30C0472A845DDD8F
:109D4C00E1B79307F00FE301F9FC37950100938617
:109D5C0024007946A6851305A507EFD03FD8A3812B
:109D6C0024015DB73971B727002026DA83A407A830
:109D7C0052D45AD05ECE62CC06DE22DC4AD84ED605
:109D8C0056D266CA2A8BAE8B328C368A99E08149C0
:109D9C00B9A0804483DC44000149835AA4006314B5
:109DAC0099018440E5B78357A400A28963F8670141
:109DBC0005094209135909014104D5B7E3EAFBFE31
:109DCC00630C0A00834504004840D28662863AC67A
:109DDC00EF80DFC9324769DD19C323105701F250F8
:109DEC0062544E85D2544259B259225A925A025B4D
:109DFC00F24B624CD24C2161828003D7050083D692
:109E0C002500854763E9E60439C7411183C645003F
:109E1C0026C2376503009384550022C426862E84FF
:109E2C0013050516894506C6EF805FC4C14711CDE1
:109E3C0083464400835524000355040001472686BD
:109E4C00EFF05FF2814711E1A947B24022449244FE
:109E5C003E85410182803E8582802E860355060018
:109E6C0083D52500854763E2A50205C183464600DC
:109E7C0041110147150606C6EFF0DFEE814711E1EF
:109E8C00A947B2403E85410182803E8582802E8664
:109E9C000355060083D52500854763E2A50205C15D
:109EAC008346460041110147150606C6EFF09FEBAD
:109EBC00814711E1A947B2403E85410182803E8530
:109ECC00828039714ED683D7250083D9050006DEF2
:109EDC0022DC26DA4AD852D456D25AD05ECE62CC84
:109EEC0066CA6AC863E037198547638E0914416BEB
:109EFC00AE8A2A8A2314010002C6014401497D1B43
:109F0C00894B054CC94C054D83D52A000147814628
:109F1C0001464E8523130100EFF0DFE4AA846300B1
:109F2C00051209EC13072002930661005A86954529
:109F3C005285EFD05FFB2A8463080512035781001A
:109F4C0083C7040045C70347A100630CA70741471B
:109F5C006385E7022C005285EF902FC209CD3400A7
:109F6C001546D9455285EFD01FDC11C53245976097
:109F7C00FE1FE78040178147F9A083D7A400414614
:109F8C00130524002300F40083D7A400A183A300AD
:109F9C00F400CC409760FE1FE780E03549048357FE
:109FAC0081008507C207C1832314F10063F92709D7
:109FBC0083D7A400638567098509C20993D9090170
:109FCC00A1B7E39977F983D7A400094613052400B8
:109FDC002300F40083D7A400A183A300F400CC4099
:109FEC009760FE1FE7802031110455BF22C603592C
:109FFC00610003C7A400130524006382770333595F
:10A00C009903230571012300E40083D7A400414682
:10A01C00A183A300F400CC401379F90FA5BF23054D
:10A02C0081012300E40083D7A4001359290013797C
:10A03C00F90FA183A300F4000946CC4055B7835710
:10A04C00810089FBA947F2506254D2544259B2594B
:10A05C00225A925A025BF24B624CD24C424D3E85D4
:10A06C00216182808547C5B7C547F1BF7971B72794
:10A07C0000204ECE83C967A922D426D24AD006D658
:10A08C002A84AE843289EF608171637D3505228527
:10A09C00EFF08FD901C9034725009307E00F5D4509
:10A0AC006308F700631D0900A6852285EF90CFE8B1
:10A0BC00B250225492540259F2494561828003D520
:10A0CC0004009305E10023170100EFF07F82035594
:10A0DC00E100EFF0EFC3AA8505462285EF30800D35
:10A0EC0061D5F9B75945E9B713F7050201C7B28530
:10A0FC006FF08FC3411126C24AC006C622C413F9A1
:10A10C008500AA8463170900139785016187635D35
:10A11C00070232853684EFF0AFBFAA85054663137C
:10A12C00090001462685EF30E00801E90145B240FF
:10A13C002244924402494101828083479400E5DB2A
:10A14C0083478400E5F7E5B793F72500E5F30D4564
:10A15C00F9BF7971AE8622D42A8403D50600930503
:10A16C00E10106D636C6EFF0AFF809CD8345850080
:10A17C00B2460356E1012285EFF01FF7B25022548C
:10A18C00456182800545DDBF13F7050201C7B28525
:10A19C006FF08FB9411122C426C206C693F4850014
:10A1AC002A8491E4139785016187635007023285F5
:10A1BC00EFF00FB6AA85054691E0014622852244B0
:10A1CC00B240924441016F20F07E93F72500014587
:10A1DC0091E30D45B2402244924441018280797151
:10A1EC00AE8622D42A8403D506009305E10136C637
:10A1FC0006D6EFF0EFEFB24601CD8345850003564E
:10A20C00E1012285EFF05FF8B25022544561828063
:10A21C000545DDBF797126D2AA840355A500C16717
:10A22C0022D44AD04ECE06D623170100FD17328415
:10A23C00B6890149630DF500050583C60400D040BD
:10A24C0042051307E1004181EFF0DFB12A8983C693
:10A25C000400D04037650300894513050516EF80CF
:10A26C00FF801DC503D4A4002285EFF0EFA809C51B
:10A27C007D142A9442044180638409002390890050
:10A28C00B25022544A8592540259F2494561828057
:10A29C0083C60400D0403765030089451305451675
:10A2AC00EF80CFFC61F183C60400D040376503001A
:10A2BC00894513054514EF806FFB19C9E30609FAAC
:10A2CC008357E100E39287FA0354A9007D145DB72C
:10A2DC0003D4A40055B7397122DC26DA4AD84ED6FD
:10A2EC0052D456D25AD062CC06DE5ECEBE8983C71B
:10A2FC0085002A8AAE84C18B328C36843A89C28A14
:10A30C00468B9DE783CB04008947638BFB046285F6
:10A31C00EFF0CF8A1DC183280500638008025A889C
:10A32C00D6874E87CA862286A6855285829839A002
:10A33C003285EFF08F8AAA8711ED3945F2506254BD
:10A34C00D2544259B259225A925A025BF24B624C85
:10A35C00216182802946A6855285829745D5F9BF11
:10A36C00D8408347170003470700A207D98FC207BD
:10A37C000D67C187930607906380D72263CCF606DE
:10A38C0093062780638CD70C63C1F60213070780F2
:10A39C00E3CFE7F62D45E39309FADC4403C6070047
:10A3AC00CC432310C900228559A213073780E390B0
:10A3BC00E7F62D45E39409F885472310F900DC44B2
:10A3CC00814583C707002300F40003D5A4000505CD
:10A3DC0042054181EFF0CFD1835709006315051277
:10A3EC0091072310F9001146814513051400EF70F5
:10A3FC00DFA229A2930627906381D71863CED712C8
:10A40C0093063790638AD71813074790E391E7F0C8
:10A41C002D45E39509F2DC441D472310E90003C7E1
:10A42C0007002300E40003C71700A300E40003D7D0
:10A43C0027002301E40003D727002183A301E400B4
:10A44C0003C747002302E40003D76700A302E4001C
:10A45C0083D76700A1832303F4004DA02D45E39F10
:10A46C0009ECDC446C0083C9170003C70700A20980
:10A47C00B3E9E90011472310E90083C707004E85B3
:10A48C002300F400DC4483C71700A300F400EFF0B2
:10A49C002FC6AA8435C50356C100C1659306E100D9
:10A4AC00FD158329C500EFF0FFD619ED83C6040016
:10A4BC00D04037650300894513054516EF800FDB47
:10A4CC0001E5FD572317F10003C709008947631005
:10A4DC00F70283A549000946130544009760FE1F47
:10A4EC00E78060E18357090089072310F90083573F
:10A4FC00E1002301F400A183A301F40001453DBD5B
:10A50C0023173101EDB7034705008907BA972310CC
:10A51C00F9008357A500A300F4008357A500A1837D
:10A52C002301F400034605004C41130534009760E9
:10A53C00FE1FE78040DCD9B7C844EF703F8F9317FC
:10A54C000501C1832A871D45E3EA37DF6399F900CA
:10A55C0023100900CC4403560900CE95A9B5420737
:10A56C00B3863A01418363C7E600B38737412310B2
:10A57C00F900CDB723105901F1BF2D45E39009DC4B
:10A58C00CC445285EFE0FFC2231079012300A400D4
:10A59C002181A300A4009DB72D45E39109DADC4489
:10A5AC002310790183C707002300F400DC4483C720
:10A5BC001700A300F40099B71D71CAC82A89035566
:10A5CC002500A2CCCEC6D2C4D6C2DAC05EDE62DC16
:10A5DC0066DA6ED686CEA6CA6AD8AE8AEF80AFDDB2
:10A5EC00130CF5FF93170C01B72B0020C1832A8A9B
:10A5FC00814913840BB43EC6372B0020B72C0020A6
:10A60C00C16D8357C90063F6F9008357040063CC0E
:10A61C0087010355290093850BB4EF809FFC2A8D8D
:10A62C0015CD594D25A8832789001397190093053B
:10A63C00E101BA9783C4170083C70700A204DD8C1D
:10A64C002685EFF0EFAAAA8515E923909A004840D9
:10A65C00054D09C59760FE1FE780E0A8F6406644EB
:10A66C006A85D6444649B649264A964A064BF25B59
:10A67C00625CD25C425DB25D256182803248834867
:10A68C00490083A6CCA70356E10103552900814755
:10A69C0013076BA7EFF03FC42A8D1388CCA709C50D
:10A6AC0023909A00484075B75C4085E70355290014
:10A6BC00514781461386FDFFBD45EFD0DF82B7279A
:10A6CC00002048C01388C7A709E523909A00454D80
:10A6DC0071B78357040003576BA793046BA73E977E
:10A6EC006347470113C7F7FF52972390E400484094
:10A6FC0003D60400832508003E9585099760FE1F4C
:10A70C00E78060BF8357040003D70400C20993D9C4
:10A71C000901BA972310F400EDB5397122DC2A84B3
:10A72C000355250006DE26DA4AD84ED652D45AD026
:10A73C005ECE62CC66CA2E8B56D26AC8EF80AFC78B
:10A74C002A8A8346C4008355A400035584007800EC
:10A75C001306D400130CBAFF651AEFF0AFE0420AEF
:10A76C0037290020AA898144135A0A01B72B0020EB
:10A77C00B72C0020130909B46386090463D484053B
:10A78C00938ACCA78348440083A60A000356C100D1
:10A79C00035524005288814713876BA7CE85138DF0
:10A7AC006BA7EFF05FB315C5814A0356C100835503
:10A7BC00A4004E859306E100EFF0DFA5AA89639D06
:10A7CC000A065DF9E5E08357840029452310FB0058
:10A7DC0089A083570D0003560401E317F6FC83A5EB
:10A7EC000A0048489760FE1FE78060B455DD832758
:10A7FC004900A1E3035524004166454781467D1677
:10A80C009D45EFD04FEE05E5835784004545231059
:10A81C00FB00F2506254D2544259B259225A925A05
:10A82C00025BF24B624CD24C424D2161828023225E
:10A83C00A90083DAA90095BF83274900A697238036
:10A84C00570193871400139707018327490041830D
:10A85C0093DA8A00BA972380570113872400832642
:10A86C00490093873400420791044183C207C20414
:10A87C00C183C180369711CD8356E1002300D700E8
:10A88C0003274900BA970357E10021832380E7008F
:10A89C00E5B5FD562300D70003274900BA9723805E
:10A8AC00D7000DB703552400B725002089802390CD
:10A8BC0095B4938505B4EF80FFB821DD594591BF60
:10A8CC00411122C406C693F705012A84328585C33B
:10A8DC00EFE01FC4AA8505462285EF20B00D9547F1
:10A8EC006305F500BD47631DF502214515A893F7D7
:10A8FC00450099CBEFE0DFC10546AA8522852244AD
:10A90C00B24041016F20100B93F7050489C7EFE0AB
:10A91C003FC00146DDB713F51500133515000605CC
:10A92C00B24022444101828079714AD04ECE52CC41
:10A93C0006D622D426D22A8AAE89014983D7490069
:10A94C006364F9000145A1A083A709001314190041
:10A95C00930414003387970003470700A29703C59D
:10A96C00070022079305E100598DEFE07FF805E918
:10A97C0083A7090005453E94034704002380E700A4
:10A98C0083A70900BE9403C70400A380E700B2505C
:10A99C00225492540259F249624A4561828083459D
:10A9AC0085000356E1005285EFF09FF105C183A7A6
:10A9BC0009003E94034704002380E70083A70900A5
:10A9CC00BE9403C70400A380E700D1B70509420970
:10A9DC0013590901A5B7011122CC2A8403D505000E
:10A9EC009305E10006CEEFE0BFF001CD8345850075
:10A9FC000356E1002285EFF0BFECF24062440561A2
:10AA0C0082800545DDBF1D71CAC82A890355250002
:10AA1C0086CEA2CCA6CAD2C4D6C2DAC05EDE62DCB6
:10AA2C0066DA2E8ACEC66AD86ED6EF80CF982AC642
:10AA3C008346C9008355A90003558900780813067D
:10AA4C00D900EFF02FB2B247B7240020416B938AA4
:10AA5C00A7FFC20AAA8B014493DA0A01372C002003
:10AA6C00B72C0020938404B47D1B63810B1A03560E
:10AA7C00C10183C58B0003552900EFF07FE4AA8D3B
:10AA8C00631105188348490083A6CCA70356C1015E
:10AA9C00035529005688814713076CA7DE85EFF014
:10AAAC009F83AA8D93096CA7138DCCA7631B0514E8
:10AABC0029C003D7090083D7240011076397E70047
:10AACC003247A2976D1763CAE706B7250020938714
:10AADC0005B403D7270003552900938505B43354D7
:10AAEC00E40223908700EF805FB3AA8D15C1D94D86
:10AAFC0005A003552900494781465A86C545EFD024
:10AB0C008FBEC8C015E583D7AB00C54D2310FA0026
:10AB1C00F64066446E85D6444649B649264A964A5E
:10AB2C00064BF25B625CD25C425DB25D2561828059
:10AB3C0083D7090091072391F400DC4003D7AB00C5
:10AB4C009306E101A2972380E70093071400139763
:10AB5C000701DC4041835E85BA9703D7AB002183A4
:10AB6C002380E7000356C1018355A900EFF08FEA5B
:10AB7C0013072400D4409307340042071104418387
:10AB8C00C2074204AA8BC1834180369721E1FD564E
:10AB9C002300D700D84083250D00BA972380D70017
:10ABAC00C84003D6090022959750FE1FE780A07479
:10ABBC0083D709003E944204418001F883578900F1
:10ABCC002310FA00E3960DF4A94D99B78356E101D1
:10ABDC0083250D002300D700D840BA970357E10115
:10ABEC0021832380E700C84003D6090022959750A3
:10ABFC00FE1FE780407083D709003E9442044180D9
:10AC0C00ADB583D7AB002310FA0045BF814D75B7A6
:10AC1C005D71A6C2CAC0AA840359850003552500DC
:10AC2C00A2C44EDE52DC5AD85ED662D466D286C638
:10AC3C0056DA6AD06ECE2E8BEF70FFF7930BD5FFE2
:10AC4C007115131A0501B72900200144135A0A0182
:10AC5C00372C0020B72C0020938909B46359741544
:10AC6C0083C6C40083D5A4001307E1001386D40067
:10AC7C004A85EFF02F8F2A8D630B05120359A5001F
:10AC8C00834585000356E10003D52400EFF05FC334
:10AC9C006314051283C8440083A6CCA70356E100B5
:10ACAC0003D524005288814713076CA7EA85EFF07F
:10ACBC008FE2930D6CA71388CCA7631F050E1DC8DC
:10ACCC0083D70D0003D729008907630CF706B72536
:10ACDC000020138705B48357270003D524009385E0
:10ACEC0005B43354F40223108700EF806FFF15C5B1
:10ACFC00594525A003D5240041664D4781467D1654
:10AD0C00A545EFD04F9EB727002023A2A90013889A
:10AD1C00C7A71DE123102B014545B6402644964498
:10AD2C000649F259625AD25A425BB25B225C925C7F
:10AD3C00025DF24D6161828083D70D0089072391FA
:10AD4C00F90083D70D00A29763D3770783A7490037
:10AD5C000357AD00930A2400A2972380E700050453
:10AD6C009317040103A44900C183C20A3E9483577C
:10AD7C00AD008325080093DA0A01A1832300F400B7
:10AD8C0003A5490003D60D0056959750FE1FE7808A
:10AD9C00805603D40D00C167FD17569442044180C0
:10ADAC00E30EF9EA050942091359090145BD294584
:10ADBC0019FC23102B0195B76DDC11BF83570500CF
:10ADCC0099E309458280411126C2444122C406C63A
:10ADDC004AC083C60400D0402A84376503008945E5
:10ADEC0013050516EF709FC859C5834724002547E6
:10ADFC006145E51793F7F70F636BF70837290020C8
:10AE0C000357099F05451309099F51C38357040034
:10AE1C00BA974167634DF706916593852570314567
:10AE2C009750FE1FE780401DAA844D45ADC0835747
:10AE3C0004008355090001460147B386E500C206AC
:10AE4C00C182634CF704AE97C207C18319C22310A9
:10AE5C00F90023A004002146A285138544009750D5
:10AE6C00FE1FE7804049B7270020938707A8984327
:10AE7C001DEF84C381A083C60400D0403765030056
:10AE8C00894513054516EF707FBE25F10945B24083
:10AE9C0022449244024941018280504013154700DC
:10AEAC0005072A962315D600054641BF3E871C434D
:10AEBC00F5FF04C30145E1BF011106CE22CC26CA21
:10AECC004AC809E98944F240624426854249D24481
:10AEDC00056182802AC62A84280036892314B10091
:10AEEC002305C100EFF09FEDAA8471FDE30D09FC71
:10AEFC008357A400E1DB91659385557031459750DC
:10AF0C00FE1FE780600F15C58357A40023200500A2
:10AF1C00232425012312F500B7270020938787A847
:10AF2C00984301E788C345B73E871C43F5FF08C328
:10AF3C0059BFCD4449BFB7270020938787A703C7C4
:10AF4C00070015E305472380E700058909CDB726DF
:10AF5C000020372500209386869A4146914513059B
:10AF6C0085966FF07FF501458280B7270020A3837B
:10AF7C00A79E828041677D176310E5027D57239061
:10AF8C00E500238105002392E5002383050023942B
:10AF9C00E500238505008280411106C6EFE0EF8AAB
:10AFAC0011C5FD572310F50023010500B2404101E6
:10AFBC00828001114AC806CE22CC26CA85472A892E
:10AFCC006393F5044A85EFE02FBC39E9C164376619
:10AFDC0003009385F4FF1307E100894613068614DA
:10AFEC000545EFE03FD82A84FD140DC44C444A8536
:10AFFC00EFF05FF80356E10022858146A685EFF05D
:10B00C006FA12A84DDB789476396F5008545EF204B
:10B01C0000324DD9F2406244D244424905618280EB
:10B02C00EFE0CFB165B74111B727002006C6938773
:10B03C0087B57D572393E7002394E7007D57D8C746
:10B04C00379501007957238507002388070098C39B
:10B05C002382070013054570EFC01FE237A50100DE
:10B06C001305458DEF709FA7379501001305C56635
:10B07C00EF204023B240014541018280011106CEF0
:10B08C002AC622CCEFC00FBBEFE06F823245B72748
:10B09C000020938747B37D57372400209165230305
:10B0AC00A49E2390E7002392E7002394E7002381DA
:10B0BC00070023830700238507009385157013056C
:10B0CC00000C9750FE1FE78020F3B727002023A227
:10B0DC00A7A81304649E9307050C7D572310E50065
:10B0EC00231205002326050023180500232C050038
:10B0FC00231E050023220502231405022328050222
:10B10C00231A0502232E050213050504E398A7FC58
:10B11C00034704006244F240B72700202389E79ECE
:10B12C0037B501001305E5FB05616F20A017939758
:10B13C000501C18763D00738B727002003C5679E78
:10B14C00397122DC5AD006DE26DA4AD84ED652D4D1
:10B15C0056D25ECE2E8BEF609FB02A8429C903474E
:10B16C0005009307000B6311F704B72400208547F3
:10B17C009384C4A7A304F1009C4023150100B1E7FC
:10B18C00EF00F0099165938535709750FE1FE780AD
:10B19C00A0E688C01DE98347910099C78345440008
:10B1AC0013058400EFD0EFAD2285EF60BFA4F25001
:10B1BC00625421653345AB00D2544259B259225ADC
:10B1CC00925A025BF24B21618280B72A00206146C1
:10B1DC00814513850AB4EF605FC403494400894775
:10B1EC00938B0AB4D689138A0AB46310F90A83576D
:10B1FC0024001D476369F7023727002086071307D1
:10B20C00C7D3BA9783D7070099EFEF005001DD47FA
:10B21C0063FBA7000355240005661306868493057B
:10B22C00B00FEF505159EF00807F2310AA00035547
:10B23C002400938509B4EF80CF8F035724008357E4
:10B24C000A008356840011ED63E4F6002314F40025
:10B25C00835584003A85EFC0DFC22285EFC0BF94CE
:10B26C001DBF63E4F6002314F40083578400D94512
:10B27C00938609B40D463A852310FA00EFC0BFAA95
:10B28C008D4561DD138509B4D9A09947631AF9027C
:10B29C009305A1002285EFF04FC8AA845DDDD94744
:10B2AC006397F40E0509035524001379F90FD9455A
:10B2BC00938609B44A86EFC01FA7CA8559DDD9B752
:10B2CC00A1476318F9009305A1002285EFF05F9464
:10B2DC00E9B7A9476310F908035584006C00EFE047
:10B2EC002FE1AA84630E05140355240041669306CE
:10B2FC00E10055477D16AD45EFC0FFBE23A2AB0064
:10B30C00AA8649C1834844000358E1000356C10092
:10B31C0003552400A685814713870AB4EFE0BFFBD1
:10B32C00AA84631E050E0355240093850AB4EF808E
:10B33C000FA105D50355240093860AB42D46D94593
:10B34C00EFC07F9EE30B05F0AD4513850AB4EFD03B
:10B35C004F9321B7B147631BF90E035584006C0062
:10B36C00EFE00FD9AA8469CD0355240041669306FA
:10B37C00E10059477D16B545EFC0FFB62322AA0060
:10B38C00AA8629E983578400C5442315F100034795
:10B39C001400D147E303F7EC834744000355240022
:10B3AC00938509B42300FA008357A10023029A0065
:10B3BC002311FA00EF70BF97E30105EA035524004F
:10B3CC00938609B40546D945EFC0FF95E30705E818
:10B3DC0085454DBD834844000358E1008357A400C4
:10B3EC000356C10003552400A68513870AB4EFE069
:10B3FC009FEEAA840DE50355240093850AB4EF80D3
:10B40C00AF99E30C05E403552400D94593860AB49F
:10B41C003546EFC05F91B545E30105E4A5B5D947C5
:10B42C006393F400814403254A009750FE1FE78084
:10B43C0080CBE38404E2835784002315F10081BFA1
:10B44C008357840085442315F10091B7B9476318DD
:10B45C00F9009305A1002285EFF00F963DBDC14781
:10B46C006318F9009305A1002285EFF0CFD935B50B
:10B47C00C947631AF900130691009305A1002285B0
:10B48C00EFE00FF919BDD947631DF9009305A10031
:10B49C002285EFE00FE7AA84E31305E0A304010083
:10B4AC006DBBE147E31BF9DA9305A1002285EFE0C0
:10B4BC006FD3E5B301458280F9CE011152C42E8AB7
:10B4CC00854522CC4EC656C206CE26CA4AC8AA8A82
:10B4DC00B6893284EF10B065D1471DC5B72700205F
:10B4EC003727002083C747A9834657A9814419E011
:10B4FC00B684BE86372700200327C7A8939744003D
:10B50C00BA9763EDD400D547F2406244D244424925
:10B51C00B249224A924A3E85056182803E89C10722
:10B52C0003D727FF09C7850493F4F40FD9BF31CC97
:10B53C009565938525C0130500029750FE1FE78083
:10B54C00A0AB2326A90061D1130600028145938488
:10B55C000404EF609F8C231199002300090023132E
:10B56C0059011DC43727002083479400032647D078
:10B57C002304F900118C8327C90011841180238EB8
:10B58C00870023A02901814741B723260900F1B781
:10B59C0023044901FDB785473E858280B7270020EB
:10B5AC0083C547A9B727002003A7C7A88147639580
:10B5BC00F50081463685828003562700BA8619C26B
:10B5CC00E30AA6FE850793F7F70F4107CDB7B72718
:10B5DC00002003C647A9B727002003A7C7A88147A7
:10B5EC006315F60081463685828083552700BA861E
:10B5FC0089C583454700E388A5FE850793F7F70FB8
:10B60C004107F9BFB727002083C577A9B7270020CA
:10B61C0003A747D081476395F50081463685828024
:10B62C0003560700BA8619C2E30AA6FE850793F7EC
:10B63C00F70F4107CDB7B727002003C857A9B72785
:10B64C00002083A7C7A801476315E800814636850B
:10B65C00828003D62700BE8619CA03D667006318FA
:10B66C00A600D04709C603562600E302B6FE05071E
:10B67C001377F70FC107C9BF411122C4404526C239
:10B68C0006C6AA8415C0484409C59750FE1FE7801A
:10B69C0080A5484809C59750FE1FE780C0A42285A5
:10B6AC009750FE1FE78020A4268541468145EF6018
:10B6BC00CFF6B2402244FD57A384F40092444101DA
:10B6CC008280011122CC2A840355250006CE2EC679
:10B6DC00EF10B01A324622858145EF00B0732285F7
:10B6EC006244F24005616FF03FF90DC50357250028
:10B6FC00411122C406C62A8411CBDD45EF007075BA
:10B70C0022852244B24041016FF01FF7B24022441F
:10B71C00410182808280411126C2B1469304C5FF4B
:10B72C00B386D402B72700201387C7D006C622C41D
:10B73C0036978356A7006398B60248430DC5138409
:10B74C00C7D09307F00F6306F60083470500639C90
:10B75C00C7009750FE1FE7800099B147B387F402EA
:10B76C00A29723A20700B240224492444101828056
:10B77C00411122C42E8426C24946AA8481452285C1
:10B78C0006C6EF608FE9A5C083C7C40113974700B5
:10B79C00B727002083A747D0BA9703D707002310F9
:10B7AC00E40003D7270083D767002311E400372771
:10B7BC000020035727A92312E40003D70400231306
:10B7CC00E40003D724002314E40003D7440023151A
:10B7DC00E40003D764002316E40003D78400231885
:10B7EC00F4002317E400B2402244924441018280C9
:10B7FC00B727002083C547A9B727002003A847D047
:10B80C00B727002003A6C7A8014781476394E5002A
:10B81C003E8582808346060081CE544691CA83C6FB
:10B82C00C6019206C2966315D500850793F7F70FEC
:10B83C0005071377F70F4106D1BF4111B727002039
:10B84C0026C24AC006C622C4138747C00347470115
:10B85C00130600322A8993168701E1863386C502C6
:10B86C00938447C063D806041304204E3306860223
:10B87C0013545600B727002083A787C48297838769
:10B88C0044013306850063C90700B707C0A8636588
:10B89C00F600B70740573E962244B24092449306B6
:10B8AC009900CA85024937B501001305656F41013E
:10B8BC006F60AFE0058B11C713048002330486025E
:10B8CC0055BF05641304B4473306860213060604F9
:10B8DC001354760045B7411122C406C62A84034589
:10B8EC009500EF60FF93FD57A304F400B24022448F
:10B8FC0041018280011122CC4AC84EC652C456C2A4
:10B90C005AC006CE26CA2A89AE890144372A00209D
:10B91C00B72A00201D4B83475AA96365F404639929
:10B92C000902B7290020372A0020930AF00F83C799
:10B93C0049A96367F4061144A14422850504420415
:10B94C001306F00FCA854180EFF0FFDCE31794FE7D
:10B95C00F2406244D2444249B249224A924A024BD2
:10B96C000561828083A7CAA893144400BE9483C740
:10B97C0004009DC383D76400639027036396690119
:10B98C0003D52400EF10606F26854E868145EF00AD
:10B99C0070482685EFF05FCE05041374F40FA5BF35
:10B9AC008327CAA893144400BE9483C704009DC384
:10B9BC0083C794006380570383D76400639C27017B
:10B9CC002685EFF05FF12685D145EF00904826855E
:10B9DC00EFF09FCA05041374F40F91BF41677917F8
:10B9EC00630BE502411122C406C685472A8463997C
:10B9FC00F50022852244B240814541016FF09FEF52
:10BA0C0089476396F5008545EF1070127DD1B240E1
:10BA1C0022444101828082809D456FF0BFEDB727A3
:10BA2C00002003D527A98280B727002003C707A9C8
:10BA3C00011106CE2317A1002316B1008547631808
:10BA4C00F70070009305E1000545EF506003F240EC
:10BA5C0005618280A947631CF60483C7150003C7E0
:10BA6C000500A207D98F2310F50083C7350003C743
:10BA7C002500A207D98F2311F50083C7550003C7F2
:10BA8C004500A207D98F2312F50083C7750003C7A1
:10BA9C006500A207D98F2313F50083C7950003C750
:10BAAC008500A207D98F2314F50001458280054536
:10BABC00828091476314F60283C7150003C7050003
:10BACC00A207D98F2310F50083C7350003C72500C3
:10BADC00A207D98F2311F50001458280054582808C
:10BAEC009387C5FF93960701C1820D476360D70208
:10BAFC003147B387E702372700201307C7D0BA971F
:10BB0C002381A7002390B7000145828009458280DC
:10BB1C00B727002071152399A7A8B7270020238BDE
:10BB2C00B7A8B7270020238CB7A882801905956584
:10BB3C0042054111938535C0418106C69740FE1FD1
:10BB4C00E780804B11C5B240E95541016F602F85EC
:10BB5C00B24041018280B7270020238B07A8B7276A
:10BB6C000020238807A8B7270020A38807A8B72799
:10BB7C000020A38C07A8B72700200111239907A840
:10BB8C00B72700202384A7D04EC637250020B7291D
:10BB9C0000201305C5D022CC26CA4AC83724002061
:10BBAC00B724002037290020130600038145938910
:10BBBC0079A906CE52C4230A04A8A38A04A8232672
:10BBCC0009A823800900372A0020EF600FA5EF1089
:10BBDC0080530345CAD4130444A9938454A913096C
:10BBEC00C9A805CD9565938545C012059740FE1FE4
:10BBFC00E7808040372700202322A7D019CD0346A9
:10BC0C00CAD49307CAD483C717002380C9008145BF
:10BC1C0012062380F400EF604FA0B727002003C565
:10BC2C0047D883C704009565938555C03E95137519
:10BC3C00F50F2300A40012059740FE1FE780C03BC0
:10BC4C002320A90021C50346040081451206EF609C
:10BC5C00CF9C0327090083460400814725077D56A6
:10BC6C00639FF6006244F240D2444249B249224AF0
:10BC7C0037C501001305859E05616F10A06285070D
:10BC8C002300C70093F7F70F4107D9BF2300040027
:10BC9C0023800400C1BF41119397050126C206C63B
:10BCAC0022C44AC0C187AE8463D1070A3729002059
:10BCBC00034589D0EF50BFFA2A8429CD03470500EC
:10BCCC00930700096315F70403471500CD47631C60
:10BCDC00F706B72600200348250003C546C13727C1
:10BCEC000020834767A9130664008145814613072A
:10BCFC0067A9AA886318D80299C12300F700834763
:10BD0C00070091C7034589D08545EF600FAA2285AE
:10BD1C00EF505FEE2165258DB240224492440249DA
:10BD2C004101828083450600AE9793F5F70F93F798
:10BD3C00F80F63F4A50093F7F50F850693F6F60F4D
:10BD4C000906854545BF012DD9B793F71500014567
:10BD5C00E1D7EF00D06E09CDB727002083C767A9C4
:10BD6C0081CBB727002003C587D08545EF60EFA3B3
:10BD7C0013C5140055B785462A8763FBC60483C7D1
:10BD8C00150003C60500A207D18F2310F500639C94
:10BD9C00D70083C7350083C62500A207D58F231192
:10BDAC00F50001458280894601456394D70283C71B
:10BDBC00350083C62500A207D58F2311F70083C752
:10BDCC00550083C64500A207D58F2312F700828049
:10BDDC000545828091476314F60283C7150003C79B
:10BDEC000500A207D98F2310F50083C7350003C7C0
:10BDFC002500A207D98F2311F50001458280054546
:10BE0C00828091476314F60283C7150003C70500AF
:10BE1C00A207D98F2310F50083C7350003C725006F
:10BE2C00A207D98F2311F500014582800545828038
:10BE3C00A1476314F60483C7150003C70500A207C6
:10BE4C00D98F2310F50083C7350003C72500A2073F
:10BE5C00D98F2311F50083C7550003C74500A207EE
:10BE6C00D98F2312F50083C7750003C76500A2079D
:10BE7C00D98F2313F50001458280054582808947BF
:10BE8C00631CF60083C7150003C70500A207D98FF2
:10BE9C002310F500014582800545828083572600DA
:10BEAC0079714ECE06D622D426D24AD01307F0078B
:10BEBC00AE896372F70209473AC42316F1003000C9
:10BECC0093F5F50FEF10401AB250225492540259C8
:10BEDC00F2494561828003574600D9462A8932844B
:10BEEC0063F8E6008357660063F4F6006379F700A5
:10BEFC0023140100300093F5F90F4A85E1B703557F
:10BF0C00060002C4EFF00FF0AA8459C1EFF05F8E67
:10BF1C0083C784006369F5001146A246CE854A8525
:10BF2C00EF10400A55B7340026869305F00F4A856A
:10BF3C00EFF08FD875F1A24703578400DC472390AC
:10BF4C00E700035724002391E70003574400239292
:10BF5C00E700035764002393E70003D744002394BE
:10BF6C00E700DC4485CB93F4F90F2286A6854A853D
:10BF7C008297C167FD172A86E311F5FA2245994786
:10BF8C00F9452300F50023029500EFF01F8B2DBF20
:10BF9C00094661B7014651B7A947631CF60483C72C
:10BFAC00150003C70500A207D98F2310F50083C71E
:10BFBC00350003C72500A207D98F2311F50083C7CD
:10BFCC00550003C74500A207D98F2312F50083C77C
:10BFDC00750003C76500A207D98F2313F50083C72B
:10BFEC00950003C78500A207D98F2314F5000145DE
:10BFFC0082800545828083C705002300F50083C736
:10C00C001500A300F50083C7350003C72500A20760
:10C01C00D98F2311F50082802322050003C7450028
:10C02C0089476304F7000545828083D665000D4778
:10C03C00E37BD7FE9C45011106CE22CC26CA4AC80A
:10C04C004EC683C4170003C60700A204D18C138606
:10C05C0044006311D60403C4370083C72700AE899C
:10C06C0022045D8C9307C4FFC207C1832A89636FC6
:10C07C00F70003A589002311990023108900F155BD
:10C08C00EF50FFB12322A900014531A02285EFF02A
:10C09C00EFD065F10545F2406244D2444249B249C1
:10C0AC0005618280397122DC2E84834704004AD8D2
:10C0BC0006DE26DA4ED619472A89B285639AE70638
:10C0CC00034624002800EFF0FFD0AA8415E903559D
:10C0DC008100EFF0AFCCAA898345140015C937D77E
:10C0EC0001002E86130787FA34009D454A85EF0020
:10C0FC00F0404E8509468145312B4E85EFF0CFD768
:10C10C00F250625426854259D254B2592161828030
:10C11C0089472310F100835781000A862311F1000F
:10C12C008357A1002312F1004A85EF00F073C9BFB9
:10C13C004947639DE702035624002800EFF05FCFC8
:10C14C00AA845DFD372500201305C5D08357C50093
:10C15C0099E3814475B703471400834604000345F3
:10C16C00E5003C000146CA85812659BF51476390C2
:10C17C00E702035624002800EFF0DF8DAA8449F172
:10C18C008345140030004A85EFF05FD195BF5947C5
:10C19C006393E706035624002800EFF09F91AA84CE
:10C1AC0025F1835581004A85EFF0EFC81DC958452C
:10C1BC008356A10083570700B697C207C18323108B
:10C1CC00F700C1DB5C47D1D7B727002083C767A92D
:10C1DC00C9D3B727002003C587D08545EF50FFDCB6
:10C1EC0005B789473EC0835781000A8683451400F2
:10C1FC002312F10015BF834514000A862310010099
:10C20C00EF009066B9B75D71A6C256DA86C6A2C4B5
:10C21C00CAC04EDE52DCAA8A03C51500AE8432C6F3
:10C22C00EFF0EFBAB24501ED8144B64026442685C5
:10C23C0006499644F259625AD25A616182802302AD
:10C24C0005002311050083C9040085472A84639ADD
:10C25C00F90003C624002808EFF0FFB1AA840549B1
:10C26C002DA09D476394F904034705008D47E31DFA
:10C27C00F7FA03C6240028080549EFF09FB8AA84F2
:10C28C0009E505468145228571262285EFF0AFE44C
:10C29C00034584003C080147CE862686D685292492
:10C2AC00E30509F82285EFF02FBD41B7CD47639D1B
:10C2BC00F900034705009147E318F7F603C624007D
:10C2CC002808EFF0DFBB59BFD547E39FF9F4034AC9
:10C2DC0005008947E31AFAF403C624002808054927
:10C2EC00EFF09FCBAA8455F183570102BDE30357AE
:10C2FC0081011306F0035C44930607FCC206C1825D
:10C30C00636CD6000356A101D94663F7C600835669
:10C31C00C101D94563EFD500035524002391E700F3
:10C32C000549EF00905503560102D28522857924E8
:10C33C00A9BF8355E1012391E7002392C700239005
:10C34C00B7002393D70085472300F400014A014925
:10C35C00D9BF014AC9BF7971AA8522D426D2035408
:10C36C002500AA84280806D6EFF01FCBF24599E5E4
:10C37C0035E985452285EFF02FEBC1A0835781016C
:10C38C001547639BE7060357A1018D4763FCE70440
:10C39C006800EFF05FC60357E100DD4763FCE70080
:10C3AC008345D100B70717008507100822853EC8C2
:10C3BC00EF00904B8357E1000357A10191076305F0
:10C3CC00F7002285EFF04FE58347C10072466C0001
:10C3DC00858B1106228591CFEFF0FFE201C52285F6
:10C3EC00EFF08FE3884451D59740FE1FE780A0CF34
:10C3FC0049B7EFF03FCBDDB711476389E7001387EF
:10C40C00A7FF42074183854663EEE6023147F117E9
:10C41C00B387E702372700201307C7D0BA9703D793
:10C42C00070069D303C527003008A2850D205DF9EC
:10C43C00035781019147E31EF7F2B25022549254F4
:10C44C00456182802C082285352E49FDFDB70111EE
:10C45C004AC82A89314526CA06CE22CC2EC6B284B9
:10C46C00EF500FFC21C1B2459307000A2310F500D1
:10C47C002311B5002A84214611058DC0A68597404D
:10C48C00FE1FE78040E7A2854A85EF50FF830145F8
:10C49C00F2406244D2444249056182808145EF50AA
:10C4AC00DF97D5B70545EDB7797126D2AA84130568
:10C4BC00000206D622D42ECE32CC36CA3AC83EC69C
:10C4CC00EF500FF621C96246F2454247D246B247B9
:10C4DC002A84130520FA2300A400A300C40023110E
:10C4EC00B4002302E400A302D400130584006146C7
:10C4FC0091CFBE859740FE1FE780E0DFA2852254D6
:10C50C00B2502685925445616F500FFC8145EF5017
:10C51C00DF90EDB7B2502254925445618280584559
:10C52C00797122D406D62A84AE8649C38357270054
:10C53C00231DF10093072006639FF504B727002005
:10C54C0003D627A9835767006373F600B28713F6E7
:10C55C00F70F83552701834707018D8F93F7F70F4B
:10C56C0081E5890793F7F70FB297FD17B3C7C70299
:10C57C00231EF10083572400835564000345840077
:10C58C00231CF10001473C080146EFF0FFF1B250CB
:10C59C002254456182800347C701B727002083A737
:10C5AC0047D01207BA9783D76700D9B72EC619465A
:10C5BC0081452808EF507F86B2466DBF797122D431
:10C5CC0006D626D22A848DC18147014793060006E0
:10C5DC002E868355640003458400EFF0FFECB250C7
:10C5EC002254925445618280B28428005946EF50FF
:10C5FC00DF822314910089E88357240048446C009F
:10C60C002315F100EFF0CF963C000147930600068E
:10C61C000146C1B7797106D6814799ED835725003C
:10C62C0058452316C1002314F1003C0011C7835751
:10C63C0027002315F1003C002E8683556500034529
:10C64C008500014793060006EFF01FE6B2504561E6
:10C65C008280411122C406C68347050011472A84F3
:10C66C006395E7022E868355650003458500814757
:10C67C000147CD46EFF05FE3494683556400224401
:10C68C00B240154541016FF00F8913F7B70F89467A
:10C69C006317D7000146EFF07FF25146F9BF0D4703
:10C6AC006398E7002244B240014641016FF09FF6C7
:10C6BC00B24022444101828003D70500B146B7271E
:10C6CC00002071173307D7029387C7D0BA97D84386
:10C6DC0019EBD8412395A7000145D8C303D72500F2
:10C6EC002394E700828059458280797122D4404599
:10C6FC0026D24AD006D6AA842E8925C0484419C50C
:10C70C009740FE1FE780209E2326040083570400D9
:10C71C0083D5640003C584002315F10083572400DE
:10C72C000147930640062316F100835784004A867E
:10C73C002317F1001C483EC883D724002314F100B2
:10C74C003C00EFF07FD6A30E240123280400B25046
:10C75C002254925402594561828028003146814509
:10C76C00EF50AFEB83D7240083D5640003C584005E
:10C77C002314F10001473C00930640064A86EFF073
:10C78C00BFD2F1B7797152CC2A8A03D5050026D2D3
:10C79C0006D622D44AD04ECE56CAAE84EFE01FE065
:10C7AC0019E18547BDA84045AA8965DC835765001A
:10C7BC00E39947FF83578400638707128346C401BC
:10C7CC00B72A002003A74AD09206FD173697C20756
:10C7DC0003576700C1832314F4006316F700930515
:10C7EC003006EFF0DFD35C48A5EFC84003491500D5
:10C7FC008347050022093369F90083D72400130706
:10C80C002900631AF702F955EF506FB9C8C023918C
:10C81C00240103C589002686D285EFF05FC38147CA
:10C82C0021E1B250225492540259F249624AD24A3E
:10C83C003E85456182809565938515C04A85973004
:10C84C00FE1FE780607B48C8C840231C2401F955B3
:10C85C00EF50EFB483D72400C8C0F9172391F4002C
:10C86C00484859C503D624008356A4018357840134
:10C87C003308D60063C007090347C40183A74AD015
:10C88C0095451207BA9783D7270063CF0705CC408D
:10C89C0036959740FE1FE78000A60357A40183D767
:10C8AC002400BA97C20703578401C183231DF400E7
:10C8BC00E399E7EE03D7290003C589003000231460
:10C8CC00E1005848D2852315F1003AC6EFF03FB885
:10C8DC0011C548489740FE1FE780E080232A0400DA
:10C8EC00232C04007DBD99454E85EFE09FDD55BDA1
:10C8FC00A545DDBF9145CDBF03D725007DC3B72727
:10C90C00002083D627A9ED4763EEE60C011122CC5B
:10C91C002E8426CAAA844840914506CEEF502FA8F3
:10C92C0083572400AA862300F50083572400A18393
:10C93C00A300F500835704002301F500835704007E
:10C94C00A183A301F50003562400C167F917110652
:10C95C00420641826396F4042AC4314532C6EF5034
:10C96C002FACAA85CD471DC5930700F92300F50010
:10C97C003246F957A2462311F50089472302F500E8
:10C98C00B72700202313C50014C503C587D0EF506B
:10C99C00AFB38147F2406244D2443E850561828048
:10C9AC0081452685EF40A01AAA8711E9B7260020F9
:10C9BC0003C766A965D37D17238BE6A8E1BF09479A
:10C9CC006304E5021D476303E50249476302E50280
:10C9DC007D47E311E5FCB726002003C766A9814714
:10C9EC00D1BFED473E858280D1476DB791475DB78A
:10C9FC0089474DB701114AC831471309C5FF3307A1
:10CA0C00E902B727002026CA9384C7D006CE22CCD1
:10CA1C00BA94D84029CB1384C7D0B727002083C63B
:10CA2C0067A9854795CA2314A10083D7840003D531
:10CA3C00A4002C003AC62315F100EFF0FFEB11C552
:10CA4C00C8409730FE1FE780006AB147B307F90270
:10CA5C00A29723A207008547F2406244D244424980
:10CA6C003E85056182808147C5BF797126D24445D8
:10CA7C00372700204AD083D76400035927A952CC0A
:10CA8C0006D622D44ECE56CA2A8A63F327013E8993
:10CA9C0003D7240142091359090183D7040141CB5F
:10CAAC00998F4A8463D527011394070141808945E6
:10CABC002285EFF0AF87AA89CD4A25C183D7240000
:10CACC002AC6231581002314F10083D7240185E3A2
:10CADC0083D70401930925002300F50083D70401B3
:10CAEC00A183A300F5006376240503D4040183D746
:10CAFC002401CC4422864E85BE959730FE1FE780DC
:10CB0C00807F03556A002C00EFF01FDFAA8A15C541
:10CB1C004E859730FE1FE780005DB250225456853B
:10CB2C0092540259F249624AD24A4561828089077D
:10CB3C008DBF7914420441805DBF03D7240183D794
:10CB4C0004003A94FD17C207420403D70401C183C1
:10CB5C0041802390F400239984006377E400D5FF8F
:10CB6C00FD57A38EF40055BF81455285EFF0FFB7FA
:10CB7C006DB779714AD03729002052CC034A99A954
:10CB8C0022D456CA5AC85EC662C406D626D24ECE27
:10CB9C005284B72A0020054B930BF00F372C002042
:10CBAC0083A7CAA893144400BE9483C90400639D50
:10CBBC006907DC44B5CBD84725CB03D7070029CB75
:10CBCC00B727002083C767A999CF2685EFF0FFE927
:10CBDC00AA8515E9B727002083C757A90504635117
:10CBEC00F402A30C89A8B25022544E8592540259D7
:10CBFC00F249624AD24A424BB24B224C4561828086
:10CC0C00A30C09A8CDB72685EFF03FAE8149E1BF53
:10CC1C0083C7D701639A7701930520062685EFF029
:10CC2C001F90DC44A38E070083475CA90504137492
:10CC3C00F40F6363F4000144E31444F7C1BF4111E2
:10CC4C00154506C6EFF01FDB09C50545B24041018D
:10CC5C0082801945EFF01FDA6DF91145EFF09FD97D
:10CC6C006DF51D45EFF01FD96DF1B727002003C5F9
:10CC7C0057A969DDB24041016FF0BFEF83D70500C2
:10CC8C000D47F117C207C1836360F706DC41A9CFDA
:10CC9C00411122C42E84854526C206C6AA84412D84
:10CCAC0031C526856D23C167F9176381F40219ED2F
:10CCBC008357240081CF835604001947639EE602F4
:10CCCC0037270020035727A963F8E702B72700206E
:10CCDC0083C767A9594581CFA2852244B2402685D6
:10CCEC00924441016FF05FC1094582805145B240C9
:10CCFC0022449244410182806D45D5BF397126DAB8
:10CD0C004ED6AA84AE895D4589454AD806DE22DC1A
:10CD1C00328936C63AC4EFE07FE135C522472A8412
:10CD2C00014511C7B24613054400B68502979357C7
:10CD3C00850023003401A3002401A301F4009547CE
:10CD4C00231CF100B727002083C767A92301A40087
:10CD5C001105231DA10022CE2C08268595C3EFF0CA
:10CD6C00BFB9AA8411C522859730FE1FE780A03772
:10CD7C00F250625426854259D254B25921618280B4
:10CD8C00EFF09F93F9BFCD44E5B7797126D24AD025
:10CD9C0052CC56CA06D6BA8A22D44ECE19472E8900
:10CDAC00B284368A639CE506035526000944EFE0FD
:10CDBC00EFFE2AC625CD5C458359650083D7270035
:10CDCC002390F400B2471547B72600202380570163
:10CDDC002391E70003C716A91306F00F6312C706C9
:10CDEC000547A388E6A82382E7005147631AE900A8
:10CDFC0015472391E40083D68400D8472314D70029
:10CE0C0003C647005287A686CA854E85EFF01FEFF2
:10CE1C002A8432451DC8EFE03F8609A8428674007B
:10CE2C00BE85AA89EFE04FE92A8449DD2285B250FC
:10CE3C00225492540259F249624AD24A4561828084
:10CE4C0013061700A388C6A879BFF945EFE0FF9E2B
:10CE5C00F1BF83D705002300F50083D70500A1831C
:10CE6C00A300F50083D725002301F50083D7250007
:10CE7C00A183A301F5001145828083D7050023000F
:10CE8C00F50083D70500A183A300F50083D7250007
:10CE9C002301F50083D72500A183A301F50083D7D7
:10CEAC0045002302F50083D74500A183A302F500BA
:10CEBC0083D765002303F50083D76500A183A30303
:10CECC00F5002145828083D705002300F50083D728
:10CEDC000500A183A300F5000945828083D70500D6
:10CEEC002300F50083D70500A183A300F50083D7A9
:10CEFC0025002301F50083D72500A183A301F500AC
:10CF0C0083D745002302F50083D74500A183A302F4
:10CF1C00F50083D765002303F50083D76500A18353
:10CF2C00A303F50083D785002304F50083D7850080
:10CF3C00A183A304F5002945828003D7050085460B
:10CF4C00AA872300E50003D705002183A300E50091
:10CF5C0003D70500631DD70003D725002301E50087
:10CF6C0003D725002183A301E500114582800945E3
:10CF7C006315A70203D7250019452381E70003D7C2
:10CF8C0025002183A381E70003D745002382E70016
:10CF9C0003D745002183A382E700828083D7050055
:10CFAC002300F50083D70500A183A300F50083D7E8
:10CFBC0025002301F50083D72500A183A301F500EB
:10CFCC0011458280797126D24AD04ECEB2842A89FC
:10CFDC00AE8929468145480022D406D63684EF40D6
:10CFEC00DFE3231691008DEC835724002312F1000C
:10CFFC00B727002083D727A92314F1005C448DC3E5
:10D00C0083C6C70137270020032747D0920683D752
:10D01C0087003697035727002315F1002313E100EF
:10D02C0037D701004A85130787EE540013F6F90F22
:10D03C00D545EFF0BFCC2A8911C19DE0854723006F
:10D04C00F40023020400014681452285EFF00FD73E
:10D05C00B25022544A8592540259F2494561828059
:10D06C002285EFE06FE1EDB737D70100B2861307E9
:10D07C0067F42E8685456FF07FC801112317A10038
:10D08C00B7D601004165700001489307F00F0D47BA
:10D09C009386E6E599457D1506CEEFF01FCFF2405D
:10D0AC0005618280B7D60100B28701482E861147F0
:10D0BC00938666E8C9456FF05FCD37D70100B2861D
:10D0CC00130727ED2E86CD456FF05FC3011122CCDF
:10D0DC0037240020130444D526CA4AC84EC606CEAF
:10D0EC002A89AE89930404031C4081C7CE854A85E6
:10D0FC0082971104E31A94FEF2406244D2444249EE
:10D10C00B24905618280B727002003C507C24111CF
:10D11C0022C4937735000981AA973724002006C6CC
:10D12C002302F4D8A9C31305C0033385A702A56550
:10D13C0085059730FE1FE78020EC034744D8B727BE
:10D14C00002023A8A7D4FD560905814763C1E70237
:10D15C00B7270020938747D51387070323A0070021
:10D16C009107E39DE7FEB2402244410182802310E7
:10D17C00D500230105002325050285071305C503EA
:10D18C00F1B7B727002003C647D8B727002003A75D
:10D19C0007D581476315F600814636858280BA86AD
:10D1AC001307C703835567FCE389A5FE850793F72F
:10D1BC00F70FCDB7011122CC2EC632C406CE2A846D
:10D1CC00EFF03FFC2246B24511E9C167F917630342
:10D1DC00F4005145F2406244056182805455834706
:10D1EC00450095C213F7270141456314A700154567
:10D1FC0075F2C18B3D45F9DF83C7A6010145E3FB01
:10D20C00B7FC3145C1BFC18B0145E9F71545D9B70D
:10D21C00B727002083C547D8C166B727002003A7CE
:10D22C0007D5FD1681476395F5000146328582804E
:10D23C00035827003A866306D80003480700E30723
:10D24C00A8FE850793F7F70F1307C703E9BF411132
:10D25C0006C6EFF01FF311C503554501B24041015D
:10D26C0082800145E5BFB727002083C647D8B72782
:10D27C00002003A707D50145814711076393F600EA
:10D28C0082800346070001C605051375F50F850757
:10D29C0093F7F70F1307C703D5B7B727002003C5BC
:10D2AC0047D8828037270020930647D5814713073C
:10D2BC0047D531468C4291E58A07BA9788C3014518
:10D2CC00828085079106E397C7FE4D458280411108
:10D2DC0006C622C4EFF0FFEA0DCD2A8403552500C3
:10D2EC008545EFF0BFDE485409C59730FE1FE78037
:10D2FC0080DF22851306C0038145EF401FB2FD5726
:10D30C002311F400230204000145B24022444101E0
:10D31C0082800945DDBF411106C6EFF09FE611C5BD
:10D32C000345C500B240410182800145E5BFC1679C
:10D33C00F9176304F502411122C406C62E84EFF0DE
:10D34C005FE4AA87014591C703C54700698C333553
:10D35C008000B24022444101828005458280011147
:10D36C0006CE2EC6EFF0FFE1854711C903574501E4
:10D37C00B24585476305B700231AB5008147F240D3
:10D38C003E850561828021CD01114AC8416922CCBC
:10D39C0026CA4EC652C456C206CE0144AA84B72928
:10D3AC000020372A0020930AC0037D1983C749D86F
:10D3BC00634BF400F2406244D2444249B249224ADF
:10D3CC00924A056182803305540383270AD53E9522
:10D3DC00835725006383270182940504C1BF828093
:10D3EC00B727002003C647D8B727002083A707D547
:10D3FC00C166014589070147FD1691456313E60097
:10D40C00828003D807006309D80003C8A7006315FE
:10D41C00B80005051375F50F05071377F70F9387FC
:10D42C00C703E9BFB727002003C647D8B72700209A
:10D43C0083A607D50147814791066310E6028583D1
:10D44C0093C7F7FFC207C18305456364E5028547AF
:10D45C003395A70042054181828083C5060081C5B2
:10D46C0083D5C602CD8F05071377F70F9386C603B6
:10D47C00E9B793F61700E1FE050585831375F50FE3
:10D48C00E9B7797156CAAA8A2E8526D24AD04ECED1
:10D49C0052CC5AC85EC662C406D622D4AE84328B35
:10D4AC00368CBA8B3E8AC2894689EFF09FCD49E112
:10D4BC0041657D15EFF0FFCC2A84554531CC1946DA
:10D4CC00DE8513056400A30284019730FE1FE780FC
:10D4DC0080E2835701032311940023026401231972
:10D4EC00F400835741032300540123260402231A1A
:10D4FC00F400230644012317340123182401EFF010
:10D50C007FF22318A402232A04022685232C04026A
:10D51C008145EFF0BFBB0145B250225492540259E1
:10D52C00F249624AD24A424BB24B224C456182804C
:10D53C004545DDB7B727002083C647D8B72700205D
:10D54C0003A707D581476395F60041657D15828059
:10D55C003A861307C703835547FF6395A500035508
:10D56C0026008280850793F7F70FF1BFB7270020BD
:10D57C0003C847D84166B727002003A707D57D16F7
:10D58C00814785482D43314E6314F8000145828054
:10D59C00835627003A856382C602545B99CE83C5B5
:10D5AC0006006397150183C616006378DE0082803F
:10D5BC0089E583C61600E37CD3FC850793F7F70F48
:10D5CC001307C703D1B7B727002083C547D84166D7
:10D5DC00B727002003A707D57D16814725486394FC
:10D5EC00F50001458280835627003A85638BC6007F
:10D5FC00545B81CA83C61600E51693F6F60FE373E7
:10D60C00D8FE850793F7F70F1307C703C9BF8947E0
:10D61C0091C909C995472380F50083470500A3806C
:10D62C00F50081473E85828039714ED652D4AE8941
:10D63C002A8A93053005414526DA4AD856D206DEA9
:10D64C0022DC32C63689BA8A9730FE1FE780C09A30
:10D65C00CD4421C92A84894463800904324681451A
:10D66C00231AC1004146EF404FFB5686CE852285DA
:10D67C009730FE1FE78020C82146630E0902CA8539
:10D68C0028089730FE1FE78000C7A28650082C0898
:10D69C005285EF306042AA8422859730FE1FE780C6
:10D6AC0080A4F250625426854259D254B259225A5F
:10D6BC00925A2161828081452808EF400FF6F1B71C
:10D6CC0089478DC505C5411106C6AE871947AA8580
:10D6DC002380E7001385170041469730FE1FE78033
:10D6EC0080C1B24081473E85410182803E85828067
:10D6FC00894795C90DC9411106C625472380E50008
:10D70C0003470500AE871946A380E5009305150075
:10D71C00138527009730FE1FE780E0BDB24081479C
:10D72C003E85410182803E85828089478DC505C535
:10D73C00411106C6AE872147AA852380E7001385D1
:10D74C00170041469730FE1FE780E0BAB240814790
:10D75C003E85410182803E85828089479DCD15CDD5
:10D76C00411106C61D472380E50003570500AE870F
:10D77C002146A380E5000357050021832381E500A2
:10D78C0093052500138537009730FE1FE780A0B660
:10D79C00B24081473E85410182803E858280894727
:10D7AC008DC505C5411106C6AE870D47AA852380D8
:10D7BC00E7001385170041469730FE1FE780A0B3A2
:10D7CC00B24081473E85410182803E8582808947F7
:10D7DC008DC505C5411106C6AE871147AA852380A4
:10D7EC00E7001385170041469730FE1FE780A0B075
:10D7FC00B24081473E85410182803E8582808947C7
:10D80C008DC505C5411106C6AE872947AA8523805B
:10D81C00E7001385170041469730FE1FE780A0AD47
:10D82C00B24081473E85410182803E858280B72788
:10D83C00002023AE07A8B727002023A007AAB727EC
:10D84C00002023A207AA37F70100B72700209387EF
:10D85C00479B130707E098C337E70100130787CDF1
:10D86C00D8C337D701001307476398C7B7270020E1
:10D87C0037F701009387079C1307E75498C337E7E2
:10D88C0001001307E7E9D8C337E701001307876ADC
:10D89C0098C78280C14709CD144DC14791CA784DB4
:10D8AC0001CB83C73600BD4663F4F600834787017E
:10D8BC003E858280411122C43724002026C2930465
:10D8CC00C4A94AC02A89884006C649C51304C4A9FC
:10D8DC00631E0900834705002146B1CB290597300B
:10D8EC00FE1FE78040A11C400545B9CF4945EF40DC
:10D8FC002FB3AA840DC5930710FC2300F500A300D9
:10D90C0025010C400905414689059730FE1FE7802B
:10D91C00809E1C40A68503C51700EF40EFBA084057
:10D92C009720FE1FE780207C2320040029A80905EE
:10D93C009730FE1FE780209CEF30C017054945F556
:10D94C009C40238027010545B24022449244024961
:10D95C00410182800145CDBF1C4D639F07164111CB
:10D96C0022C426C22A84AE8441459305300506C6DE
:10D97C009720FE1FE780406808CCCD476304051054
:10D98C00A68541469730FE1FE780E096834504004C
:10D99C00F9ED7C4C184CD04B5443058A858A6307AF
:10D9AC00D60083D64701F99A239AD700D04B54431B
:10D9BC0005828582058A858A6307D60083D647014E
:10D9CC00F59A239AD700D04B544309828982058A51
:10D9DC00858A6307D60083D64701ED9A239AD70030
:10D9EC00D04B54430D828D82058A858A6307D600FD
:10D9FC0083D64701DD9A239AD700D04B544321821A
:10DA0C00A182058A858A6308D60083D6470193F6DE
:10DA1C00F6EF239AD700D04B54432582A582058A72
:10DA2C00858A6308D60083D6470193F6F6DF239ADE
:10DA3C00D700D04B54432982A982058A858A630872
:10DA4C00D60083D6470193F6F6BF239AD700D44B62
:10DA5C005843AD822D83858A058B638AE60003D7F4
:10DA6C004701FD769386F67F758F239AE70003C7EF
:10DA7C0014007C4C11CF03C7170019CB9547A30199
:10DA8C00F4008147B240224492443E854101828099
:10DA9C0003C72400118B19E703C72701118B19E366
:10DAAC008547F1BF03C7070083C6040081C5B6874D
:10DABC00BA863E871146E147E366E6FCE364D6FC92
:10DACC0095473307F702B7670300938747D6BA9792
:10DADC00B69783C7070065B7C5473E858280AE877A
:10DAEC0015C5784D05C7834607002380D5008346AE
:10DAFC001700A380D500834627012381D5008346D8
:10DB0C008701584BA381D500D8C1828041468145FD
:10DB1C003E856F408FB0B727002083A707AA91C717
:10DB2C0003A387006303030002830945828001116C
:10DB3C0022CC2A84494506CEEF60DFA015C12AC647
:10DB4C002285EFF00FE409CD6244B727002032465E
:10DB5C0083550503F24003C5A7D805616F40CFCBB1
:10DB6C00F240624405618280797126D29947231D67
:10DB7C00B100AA842E858D4522D406D632C636C471
:10DB8C00231CF100EFD09FFA2ACE4D441DC1324622
:10DB9C00A246AA85328582962A8419E52C08268508
:10DBAC00EFF0CF8D2A8411C572459720FE1FE780B8
:10DBBC0080532685EFF0BFF72285B2502254925441
:10DBCC0045618280011122CC9305C5012A8441460E
:10DBDC000A8506CE9720FE1FE780E07103554400AE
:10DBEC00B7D601000A869386A67AC545EFF0DFF713
:10DBFC00F240624405618280011122CC9305C5027A
:10DC0C002A8441460A8506CE9720FE1FE780A06E27
:10DC1C0003554400B7D601000A869386A67DC545F8
:10DC2C00EFF09FF4F240624405618280B7D60100A8
:10DC3C002E869386C66CC5456FF01FF30111B28713
:10DC4C0022CC2300B1002A84BE851305110019468D
:10DC5C0006CE9720FE1FE780006AB7D601000A8621
:10DC6C0022859386C66FA145EFF01FF0F240624407
:10DC7C0005618280B7D601002E8693866673C545F2
:10DC8C006FF09FEE0111B28722CC2310B1002A84D1
:10DC9C00BE8513052100214606CE9720FE1FE78086
:10DCAC008065B7D601000A86228593866676AD45D7
:10DCBC00EFF09FEBF240624405618280B7E6010011
:10DCCC002E869386A680C5456FF01FEA011106CEFD
:10DCDC0022CC26CA834405008547639BF404834702
:10DCEC00150019472A84639AE7041C4D83D7470013
:10DCFC0013F7071019C7784D03574701137707100F
:10DD0C0021E313F7072001CB784C03574701137716
:10DD1C0007206317071093F7074081CB7C4C83D700
:10DD2C00470193F70740639E0714C947A300F4000B
:10DD3C00F2406244D2440561828031476394E70A21
:10DD4C003C5091EF9305300571459720FE1FE780FD
:10DD5C00A02A28D009C571468145EF400F8C24506C
:10DD6C00A9C883C7A40191E72285EFF0BFB2238D28
:10DD7C00A400814526854146EF402F8A28503D4717
:10DD8C008345A5019387F5FF93F7F70F6364F700BD
:10DD9C00EF50FFC0EF408F833C50A1452398A70064
:10DDAC0013852701EF50BFBF2C5003554400EFF0F3
:10DDBC00FFE7B54703554400A300F400EFF06FBC38
:10DDCC00414611C58357E50013D617003E966244B1
:10DDDC00B7270020F240D24403C5A7D8854505617A
:10DDEC006F408FA33547639AE7023C5189CB83D5AB
:10DDFC0007010355450013862701EFF0BFE81C4CC3
:10DE0C0083D7470013F7072039CB784C03574701CA
:10DE1C001377072029C7B94771BF3947639BE700C0
:10DE2C00EF50FFE5AA8503554400EFF0BFE4BD4772
:10DE3C0051B73D476394E704EF50DFE3AA85630DC8
:10DE4C009502814526852EC6EF50DFE02A86B24525
:10DE5C0003554400EFF09FDE1C4C83D7470093F72B
:10DE6C000740E38407EC7C4C83D7470193F70740CA
:10DE7C00E38D07EAC1473DBF8144E9B74147E396CB
:10DE8C00E7EAEF507FE0AA8503554400EFF01FE36B
:10DE9C0069BD797106D622D426D283440500A5E447
:10DEAC008347150019472A846394E7067C4D83D772
:10DEBC00470113F7170011C7184D03574700058B7F
:10DECC0039EB13F7270019C7184C03574700098B78
:10DEDC0063110714918B99C71C4C83D74700918B06
:10DEEC00639807187C4C83D7470113F70710630915
:10DEFC000718184C035747001377071063020718CD
:10DF0C00B147A300F400B250225492544561828070
:10DF1C001D476393E70C3C5089EB93053005714525
:10DF2C009720FE1FE780400D28D02450ADCC2285D1
:10DF3C00EFF05F96238DA400814526854146EF3096
:10DF4C00DFED28503D478345A5019387F5FF93F7F7
:10DF5C00F70F636BF702B727002083C737F1B5CBF8
:10DF6C00414681450808EF305FEBB7250020194684
:10DF7C00938545C608089720FE1FE780C0373050B0
:10DF8C000C082E85EFF06004EF305FE43C50A145A7
:10DF9C002398A70013852701EF507FA02C50035521
:10DFAC004400EFF0BFC8A14703554400A300F400A0
:10DFBC00EFF02F9D414611C58357E50013D617008E
:10DFCC003E96B727002003C5A7D88545EF40CF84E0
:10DFDC001DBFEF50DF9C4DBF21476399E7023C51B9
:10DFEC0089CB83D507010355450013862701EFF034
:10DFFC007FC97C4C83D7470113F7270021CF184CDE
:10E00C0003574700098B39C7A54779BF2547639B41
:10E01C00E700EF50DFC6AA8503554400EFF09FC51B
:10E02C00A94759B729476392E704EF50BFC4854706
:10E03C00AA856304F5008145854426852EC6EF50DC
:10E04C007FC12A86B24503554400EFF03FBF7C4C9C
:10E05C0083D74701918BE38707E81C4C83D7470094
:10E06C00918BE38107E8AD4781B72D47E39CE7E649
:10E07C00EF509FC1AA8503554400EFF03FC49DB5F6
:10E08C0013F7072009CB184C0357470013770720C9
:10E09C0019C3B947BDB593F7074089CB1C4C83D73F
:10E0AC00470093F7074099C3C147A1BDC94791BD2C
:10E0BC0015CD01118A8522CC06CE2A84EFF03FA221
:10E0CC00834704000355440089CFB7F601009386BB
:10E0DC0086C00A869D45EFF03FA9F2406244056177
:10E0EC008280B7F60100938626C1E5B7054582808C
:10E0FC00B7270020AA8503C5A7D86F406F8F4111A1
:10E10C0022C4405926C206C6AA8431C4084C09C58B
:10E11C009720FE1FE78020FD285009C59720FE1F81
:10E12C00E78060FC685009C59720FE1FE780A0FBC4
:10E13C00285409C59720FE1FE780E0FA685409C5EA
:10E14C009720FE1FE78020FA22859720FE1FE7808C
:10E15C0080F923AA0402224403D50403B24092445A
:10E16C0041016FF0FFF8411126C206C622C4AE84ED
:10E17C00EFF02F8121C54C592A84A9C183A8C5066B
:10E18C0003A88506FC51B85183C6650003D645002B
:10E19C0083C505002685EF60CFC22285EFF03FF6E0
:10E1AC00EFF06FC201CD2244B7270020B240924459
:10E1BC0003C5A7D8854541016F303FDFB2402244EB
:10E1CC00924441018280411122C4405926C206C6A4
:10E1DC007C4CAA8483D7470113F7071019C7184C36
:10E1EC0003574700137707101DE313F7072019C7D0
:10E1FC00184C035747001377072011EB93F7074090
:10E20C009DCB1C4C83D7470093F707408DC799478C
:10E21C00A300F4002285EFF07FAB03471400C9473D
:10E22C00631FF700224403D52400B2409244814579
:10E23C0041016FF05FF3C947A300F400E5B7B240AA
:10E24C002244924441018280411106C622C426C256
:10E25C00EFF0CFB139C14059AA8421C083470400E3
:10E26C0085CBB727002083A707AA89C7DC4399C3AE
:10E27C002285829703471400C9476310F702224492
:10E28C0003D52400B2409244814541016FF0BFEDAB
:10E29C00B727002083A747AAC9BFB24022449244A3
:10E2AC0041018280411126C24AC006C622C4AA84FA
:10E2BC002E89EFE01FED0DCD405955C48357440016
:10E2CC006393970A8347140019476395E7088347BC
:10E2DC000400A5CF7C4C83D7470113F7170005C367
:10E2EC00184C03574700058B19CB9D47A300F4002E
:10E2FC00B24022449244024905454101828013F701
:10E30C00270001CB184C03574700098B19C3A547AD
:10E31C00F1BF918B81CB1C4C83D74700918B99C358
:10E32C00AD47E9B7B727002083A707AAF1D3DC4391
:10E33C00E1D32285829703471400C9478145E3192D
:10E34C00F7FA2685EFF03FE265B7B727002083A7E1
:10E35C0047AAE9BF45476398E7006304090013091E
:10E36C002003CA85F9BF631C09002685EFE07FE115
:10E37C0019C58347450093E707012302F500A685DD
:10E38C004A85EF507FB5ADB74111B7D6010022C415
:10E39C002E862E849386A661894506C626C24AC05F
:10E3AC002A89EFF06FFC83450400AA844A85EFF0BC
:10E3BC009FDBB2402244268502499244410182806F
:10E3CC00B727002083A747AA95CB9C4385CB7971AF
:10E3DC0022D406D6984110082A843AC8D8418545DB
:10E3EC003ACA829701C92306A100035524006C0088
:10E3FC00EFF09FF9B2502254456182808280011166
:10E40C0022CC06CE2A842EC6EFE0BFD75C5991CF22
:10E41C0083D74700B245639A870085476397F50019
:10E42C006244F24005616FF09FCDF2406244056199
:10E43C008280411106C6EFF0EF8FC167FD176307AD
:10E44C00F500B240DD4541016FF0FFD1B240410112
:10E45C0082802300B500828001114AC84EC62E89E5
:10E46C00AA89930530051305000326CA06CE22CCD3
:10E47C00B2849720FE1FE78020B821CD130600033D
:10E48C0081452A84EF307F994146CE852285EF3035
:10E49C00FF9E0D46CA851305D401EF303F9E13062F
:10E4AC000402930504012285EFE030320D469305FA
:10E4BC00D4022685EF309F9C22859720FE1FE78093
:10E4CC0080C20145F2406244D2444249B2490561DE
:10E4DC0082804D45C5BF81474146B306F500338761
:10E4EC00F5000347070003C80600850733470701FB
:10E4FC002380E600E393C7FE82805D714EDE62D41A
:10E50C00AE892A8C9305300513050003A6C2CAC038
:10E51C0052DC56DA5AD85ED686C6A2C4B28B368B7B
:10E52C00BA84BE8A4289468A9720FE1FE780C0AC17
:10E53C006301050E1306000381452A84EF30FF8D1D
:10E54C004146E2852285EF307F93414681450A851D
:10E55C00EF30BF8C1D46DE850A85EF303F921D469D
:10E56C00DA8513057100EF307F9133392001B33414
:10E57C00900041468145080823072101A30791001B
:10E58C00EF30BF891946D6854808EF303F8F1946C2
:10E59C00D2851305A101EF307F8E9304040141460F
:10E5AC00CE852685EF309F8D8A852685EFF0BFF2CC
:10E5BC00930904024E86A6852285EFE010212A8954
:10E5CC001DE54146CE8526859720FE1FE780A0D20B
:10E5DC000C082685EFF03FF04E86A6852285EFE0ED
:10E5EC00D01E2A8946454146CE85EF303F8922858B
:10E5FC009720FE1FE78020AFB64026444A859644FC
:10E60C000649F259625AD25A425BB25B225C616192
:10E61C0082804D49D5B7011126CA52C4AA842E8ACC
:10E62C0013050003930530054AC84EC606CE22CC0E
:10E63C003289B6899720FE1FE780009C31CD2A8451
:10E64C00A6854146EF309F83930404012146D28571
:10E65C002685EF30BF82CA85214613058401EF3031
:10E66C00FF8113090402A6854A862285EFE0F01586
:10E67C00AA844146CA854E85EF305F80228597205B
:10E68C00FE1FE78040A6F240624426854249D244F0
:10E69C00B249224A05618280CD44F5B75D71A2C4AE
:10E6AC00A6C24EDE52DC86C6CAC0AE89328AAA84A5
:10E6BC00EFE03FAD4059414681450A85EF30EFF51B
:10E6CC0049C4035944006312990883470400B5EF09
:10E6DC00034714009947631CF70214081306C4047B
:10E6EC009305C40213057400EFF0FFF239ED228597
:10E6FC00EFF04F9A2A860C080A859720FE1FE780B8
:10E70C0080BF8A854A85EF20203C05456DA02C50A2
:10E71C008DCDC54683D705016317D70A6312FA025C
:10E72C002146C9054E859720FE1FE78040C08547CE
:10E73C006318F5002285EFF0EF952A862C506DBFFB
:10E74C00930520032685EFF01FA22685EFE07FA31B
:10E75C002A8449CD4C55D9C983D7050163984709FB
:10E76C002146C9054E859720FE1FE78040BC854792
:10E77C002A89631DF5064C540A8503C6A50197200A
:10E78C00FE1FE78040B7B727002083C757A091C76B
:10E79C005C5483C7B70163982705BD452685EF20D8
:10E7AC00E02DB727002083A747C3014589C71D4526
:10E7BC00894582970145B640264496440649F2594C
:10E7CC00625A61618280E312FAF82146C9054E85CE
:10E7DC009720FE1FE780A0B58547E318F5F62C506F
:10E7EC0003C6A50111BF8A85268531BFB727002036
:10E7FC0003C747F1372400208947130444C0631D25
:10E80C00F700BD452685EF2060271C589145E38E07
:10E81C0007EE1D458297D5BDB727002083C737F17A
:10E82C008DCF414681450810EF302FDFB7250020F2
:10E83C001946938545C608109720FE1FE780A0ABAC
:10E84C000C100A862E85EFE040788A852685EF200D
:10E85C00A0271C588D45D5FF4DBD2685EF200027E0
:10E86C001C58E38407EA85456DB78147C1463307D9
:10E87C00F500B388F5000347070083C80800330888
:10E88C00F6008507334717012300E800E391D7FE14
:10E89C0082800147BD471308F00F3306F50083460D
:10E8AC000600B388F500FD178606558F2380E80017
:10E8BC000347060093F7F70F1D83E39007FF828051
:10E8CC008147930800F8414893F6F70F3387F5001A
:10E8DC0063FCC600B306F50083C606002300D70010
:10E8EC008507E39307FF82806395C6002300170119
:10E8FC00C5BF23000700EDB701114AC856C22E89C7
:10E90C00AA8A93053005414506CE22CC26CA4EC6AE
:10E91C0052C4328A9710FE1FE780006EAA849305BA
:10E92C00300541459710FE1FE780006D2A84CD49C4
:10E93C00B5C021CD41468145EF302FCE2686A2852C
:10E94C005685EFE08068AA8929E18387040063D3A8
:10E95C000706A2852685EFF0DFF3B76503004A862C
:10E96C00938505D82285EFF05FF08307090063D803
:10E97C000704A2854A85EFF0DFF1B76503005286E4
:10E98C00938505D82285EFF05FEE26859710FE1F44
:10E99C00E780607511C422859710FE1FE780A07474
:10E9AC00F24062444E85D2444249B249224A924ACC
:10E9BC0005618280CA852685EFF0BFED7DB7D285D3
:10E9CC004A85EFF01FEDD1B739715AD05ECE2A8B44
:10E9DC00AE8B41459305300506DE26DA52D456D26D
:10E9EC0062CC66CA6AC8368C328DBA8C22DC4AD8A4
:10E9FC004ED69710FE1FE7802060AA8A930530053B
:10EA0C0041459710FE1FE780205F2A8ACD44638C16
:10EA1C000A0849C52A86D6855A85EFF0FFEDAA84E7
:10EA2C0035ED9305300541459710FE1FE780C05C1E
:10EA3C002A899305300541459710FE1FE780C05B7E
:10EA4C00AA896308090E6304050E1304FD001184E2
:10EA5C001376FD003DCC7D144204418025EE131548
:10EA6C0044004E86D6855E95EFF03FE041468145E9
:10EA7C004A85EF308FBA014D93170D01C18363F4B2
:10EA8C008708BDC04A859710FE1FE780C065638765
:10EA9C0009004E859710FE1FE780E064568597109D
:10EAAC00FE1FE780406463070A0052859710FE1F23
:10EABC00E7806063F250625426854259D254B259B1
:10EACC00225A925A025BF24B624CD24C424D21615B
:10EADC0082800144131544008A855E95EFF05FDE59
:10EAEC004E86D2850A8549B793154D000A86DE9568
:10EAFC004A85EFF09FD74A868A855A85EFE0E04C2D
:10EB0C00AA84050D95BFBDFC0A86CE854A85EFF01B
:10EB1C00DFD54A868A855A85EFE0204BAA84668623
:10EB2C00CA8562859710FE1FE780E07CA1BFCD44AB
:10EB3C0091BFCD44A9BF894761C2DDCD2300A6009A
:10EB4C0083C70500A300F60083C715002301F60058
:10EB5C0083C72500A301F60083C73500A302060076
:10EB6C002302F60083D74500A183858BA302F60010
:10EB7C0003D745001377072009C793E72700A302A3
:10EB8C00F60083D7450093F7074099C78347560093
:10EB9C0093E74700A302F60083D74500139747017C
:10EBAC00635807008347560093E78700A302F600DB
:10EBBC002303060083C74500858B2303F60003D788
:10EBCC004500098B09C793E727002303F60083D779
:10EBDC004500918B99C78347660093E74700230351
:10EBEC00F60003D745008147218B19C70347660000
:10EBFC00136787002303E6003E8582802E86AA8554
:10EC0C0005456FF05FF32E86AA8509456FF0BFF2BC
:10EC1C004DC95971A2D42A8403554500A6D2CAD035
:10EC2C00CECED6CA86D6D2CCDAC8DEC6B68AB289E1
:10EC3C002E89EFE00FD5AA8439C50C182285EFE098
:10EC4C001FEA83470400138A6400A9CBEF508F821C
:10EC5C002A8B014583CB5400EF40DFFFAA840C10B4
:10EC6C000818EFF0BFF9084C2C10EFF0DFF9D28840
:10EC7C00268A56C05E88D2875A8714103010CE85EB
:10EC8C004A85EFF09F87B650265496540659F6499C
:10EC9C00664AD64A464BB64B65618280EF409FFD73
:10ECAC00AA8B014503CB5400EF40DFFA2ACE084C67
:10ECBC000C10EFF0BFF42C100818EFF0DFF4F24852
:10ECCC004DBF8280894791C909C9AD472380F500A2
:10ECDC0083470500A380F50081473E8582800111A2
:10ECEC0022CC4AC806CE26CA2A84EFE0FFC62A895F
:10ECFC0001CDE147630EF50E2149F24062444A858D
:10ED0C00D2444249056182807C4C83C72701858BA4
:10ED1C0091CF1C4C054783C727008D8B6398E70068
:10ED2C008347640093E717002303F4008344340003
:10ED3C0089476391F402035544008545EF50FFA0C9
:10ED4C008347640093E747002303F4008D47A30037
:10ED5C00F40065B70D476390E40203554400894500
:10ED6C00EF50BF9E83476400A300940093E74700D5
:10ED7C002303F40059B71147E38FE4FA0547639E68
:10ED8C00E40293047400A300F400414681452685F7
:10ED9C00EF30AF881306C4023285C14532C6EF404E
:10EDAC001FC0324622859306C401A685EFF05FE6AC
:10EDBC002285EFE03FE131D181B71547E39FE4F2C3
:10EDCC0093047400A300F400414681452685EF307E
:10EDDC00CF846C4C4146268589059710FE1FE78031
:10EDEC0080518347640093E747002303F4005DB729
:10EDFC000D4921B7397122DC405926DA4AD84ED652
:10EE0C0006DEAA89AE8432896308042003552500E6
:10EE1C0083574400638BA700A144F25062542685AB
:10EE2C004259D254B259216182808347040099E33C
:10EE3C009D44E5B7AD47E3EDB7FE9387E5FF93F748
:10EE4C00F70F2547E366F7FE376703008A071307BA
:10EE5C0087CEBA979C438287B2852285EFF03FE834
:10EE6C00AA8465BF4146CA851305C4039710FE1FCB
:10EE7C00E78060482285EFE03FD8AA8411C1A14405
:10EE8C009547A300F40051BF9309C404CA854146B9
:10EE9C004E859710FE1FE780004613097400140876
:10EEAC004E86CA852285EFF0BFD641469305C40332
:10EEBC0008089710FE1FE78080478547E31FF5F48D
:10EECC008A861306C402CE854A85EFF0CFF411ED85
:10EEDC002285EFE03F9C2A8703554400814601467A
:10EEEC008A85EFE06FF4AA8411C1A144994751BF00
:10EEFC00034714009D47E31DF7F27C5089EB930503
:10EF0C00300571459710FE1FE780000F68D06850E0
:10EF1C0005D14146CA859710FE1FE780C03D22856A
:10EF2C00EFE05F977C50238DA700A147A300F4006E
:10EF3C008144E5B56850E30D05EE03471400A14785
:10EF4C00E318F7EE83570600930529002146231892
:10EF5C00F50049059710FE1FE780E0397C4C83D7FC
:10EF6C00470113F727002DC3184C03574700098B93
:10EF7C0021CFA54765BF03471400A547E31AF7EA5D
:10EF8C003C5481EB854559459710FE1FE780C00620
:10EF9C0028D4285419C54146CA859710FE1FE7800E
:10EFAC008035A94761B703471400A947E312F7E876
:10EFBC00285419469305190041059710FE1FE78048
:10EFCC0080337C4C83D74701918B95CF1C4C83D7D6
:10EFDC004700918B8DCBAD4791BF7C5489EB93054A
:10EFEC00300551459710FE1FE780000168D4685426
:10EFFC00E30405E24146CA859710FE1FE780A02F67
:10F00C007C547D5798CB4E85EFF0EF9B15B783451D
:10F01C000600EFF04F9529BFAD47E39BF5F0834613
:10F02C000600835525001306650003450500EF40D7
:10F03C00DFFAFDBD15C1AA8709458DC141112E8589
:10F04C0041469385170006C69710FE1FE780A02A3D
:10F05C00B240014541018280094582808280894706
:10F06C001DC595C5411106C603471500AE87194647
:10F07C002380E50093052500138517009710FE1FCC
:10F08C00E7806027B24081473E85410182803E8502
:10F09C00828015C1AA8709458DC141112E85414633
:10F0AC009385170006C69710FE1FE780C024B24058
:10F0BC0001454101828009458280828089471DC9B2
:10F0CC0095C9411106C60347250083461500AE8736
:10F0DC002207558F2390E5002146930535001385B3
:10F0EC0027009710FE1FE7800021B24081473E8524
:10F0FC00410182803E85828015C1AA8709458DC158
:10F10C0041112E8541469385170006C69710FE1FA8
:10F11C00E780601EB2400145410182800945828032
:10F12C008280094711CD89CD83471500A14601473F
:10F13C002380F500FD1793F7F70F63F3F600614793
:10F14C003A85828015C1AA8709458DC141112E854A
:10F15C0041469385170006C69710FE1FE780A0193D
:10F16C00B2400145410182800945828082808947F5
:10F17C006309051063870510411106C622C426C217
:10F18C00834715002E842380F50083472500A38038
:10F19C00F500834735002381F50083474500A381A3
:10F1AC00F50083475500858B9396870083D74500E0
:10F1BC0093F7F7EFD58F2392F5008346550093F71D
:10F1CC00F7DFA20693F60620DD8E2392D5000347C7
:10F1DC00550093F6F6BF220713770740558F2392FD
:10F1EC00E50083475500FD769386F67F8D83858BEE
:10F1FC00758FAE07D98F2392F50083466500F99B76
:10F20C00858ADD8E2392D50003476500937727000E
:10F21C0013F7D6FF5D8F2392E5008347650093F6C5
:10F22C0047009377B7FFD58F2392F500034765000E
:10F23C00DD9B4D45218BD98F2392F500EF508FB07C
:10F24C00AA845145EF500FB00347340093F4F40FE8
:10F25C001375F50FC94763609702636EE50083462B
:10F26C0004001147E1476368D70083461400054743
:10F27C006363D7008147B240224492443E854101EA
:10F28C0082803E85828015C1AA8709458DC14111B6
:10F29C002E8541469385170006C69710FE1FE78002
:10F2AC008005B240014541018280094582808280FF
:10F2BC00797122D42A84084506D626D22306010069
:10F2CC008344050029479387F4FF93F7F70F636294
:10F2DC00F70C376703008A07130707D1BA979C43CB
:10F2EC0082870C08EFF0BFE8C9476312F502994713
:10F2FC002306F100035524006C00EFF0EF88B250A8
:10F30C0022549254456182800C08EFF0FFDE29C92B
:10F31C008347C100E5F303552400EFE05F81C5B7D7
:10F32C000C08EFF03FE2E5B70C08EFF09FDFC5B734
:10F33C000C08EFF03FD0E1BF0C08EFF03FD8C1BF95
:10F34C000C08EFF01FD5E1B70C08EFF05FD1C1B797
:10F35C000C08EFF05FF365BF834715002308F1003D
:10F36C0003552400EFD0FFE1A1470DC10347C500B1
:10F37C006313F702B727002003A707AA9D4719C7F5
:10F38C00184309C71008A6850297AA872306F1001F
:10F39C0041B79D47B1BFB727002003A747AAF9BFC4
:10F3AC00411122C406C603470500930720092A848D
:10F3BC00631EF7088347150039476393E7028356AA
:10F3CC004500096761078147639DE6021C4522449D
:10F3DC00B24003C507009385170041016FE08FCD44
:10F3EC001307E0036392E708034725009547631270
:10F3FC00F70403554500EFD01FF291476308F50061
:10F40C008547B24022443E8541018280B7270020C7
:10F41C0083A747AAF5D703A38700E30303FE03568C
:10F42C00E40003554400930564002244B2404101BA
:10F43C000283A1468147E316D7FC2244834565002D
:10F44C00B2400355450041016FE0DFE59306000A29
:10F45C008147E318D7FAEFF0BFE5084455D1971070
:10F46C00FE1FE78040C869BF814761BF411122C4BC
:10F47C0026C206C62A84EFE02FCEAA8419C9E1471A
:10F48C00630FF50AA144B2402244268592444101FF
:10F49C0082802285EFE0DFC16C4C83C72501858B10
:10F4AC0091CF1C4C054783C727008D8B6398E700D1
:10F4BC008347640093E717002303F4008347340069
:10F4CC0009476391E702894503554400EF50EFA7C4
:10F4DC008347640093E747002303F4009147A3009C
:10F4EC00F40055B79386D7FF93F6F60F0546636481
:10F4FC00D6008545D1BF6390C702A300E400414606
:10F50C00814513057400EF205F91C1451305C402BA
:10F51C00EF40EFC88DBF9546E397D7F6A300E40004
:10F52C0041468905130574009710FE1FE780A0DC87
:10F53C008347640093E747002303F400F9B78D4435
:10F54C0099B7797122D4405926D24AD04ECE06D6DC
:10F55C00AA89AE843289630A042003552500835797
:10F56C004400638BA700A144B25022542685025953
:10F57C009254F24945618280034704008547631425
:10F58C00F7009D44D5B79387F5FF93F7F70F254701
:10F59C00E369F7FE376703008A071307C7D3BA97E7
:10F5AC009C438287B2852285EFF05FECAA846DBF05
:10F5BC004146CA851305C4039710FE1FE780A0D3EC
:10F5CC000347140091476305F7029306C401130621
:10F5DC00C402930574002285EFF08FE32285EFE0DF
:10F5EC006FDEAA8411C1A1449547A300F400ADBFFE
:10F5FC008D47A300F400814485BF9307C4043E8566
:10F60C00CA8541463E899710FE1FE780C0CE8A8688
:10F61C004A86930574002285EFF08FDF41469305EF
:10F62C00C4030A859710FE1FE78060D08547E31D51
:10F63C00F5F22285EFE04FDCAA8415F5994775B7F2
:10F64C0003471400B147E31EF7F27C5089EB930596
:10F65C00300571459710FE1FE780009A68D06850FE
:10F66C000DD14146CA859710FE1FE780C0C8228580
:10F67C00EFE04FA27C50238DA700B5479DBF68508B
:10F68C00E30105F003471400B547E31CF7EE83577D
:10F69C0006009305290021462318F500490597100B
:10F6AC00FE1FE78040C57C4C83D7470113F707202A
:10F6BC003DC3184C035747001377072029CFB94790
:10F6CC000DBF03471400B947E31DF7EA3C5489EB1F
:10F6DC009305300559459710FE1FE780E09128D41B
:10F6EC00285419C54146CA859710FE1FE780A0C053
:10F6FC00BD4701B703471400BD47E314F7E828548E
:10F70C0019469305190041059710FE1FE780A0BE0E
:10F71C007C4C83D7470193F707409DCF1C4C83D774
:10F72C00470093F707408DCBC147E1B57C5489EB7B
:10F73C009305300551459710FE1FE780E08B68D488
:10F74C006854E30205E24146CA859710FE1FE78024
:10F75C0080BA7C547D5798CB03D529008145EFE0C6
:10F76C009FA051BD83450600DDBF8547E395F5E8B5
:10F77C0003284600834736000347260083461600BD
:10F78C0083552500034606000145EF40EFFBA5B568
:10F79C00011126CA06CE22CC89441DCD95CDAA8452
:10F7AC002E8468008D45EF408F9F8347E1002685AE
:10F7BC00228693F7F70393E707046C002307F10005
:10F7CC00EFE09FC9AA8409E90D466C0013053400CB
:10F7DC009710FE1FE78020B2F24062442685D24487
:10F7EC00056182805D714EDE86C6A2C4A6C2CAC007
:10F7FC0052DC56DA5AD85ED6894955C54DC6138B9C
:10F80C004500420B135B0B01AE8A2A8A9305300527
:10F81C005A85B2849700FE1FE780007E2A84CD496A
:10F82C0059C1EF400FC72A895686D285935A890051
:10F83C00135A0901937BF90F1305440093FAFA0F3D
:10F84C00137AFA0F13598901EF204FE3A3017401C6
:10F85C0023015401A300440123002401EF40CFC233
:10F86C00AA8541460808EF206FE1214734005A86EB
:10F87C00A2850808EFF04F95AA890DE121462C00CE
:10F88C0023807401A380540123814401A3812401AA
:10F89C0013854400EF208FDEEF406FC02285971058
:10F8AC00FE1FE7804084B64026444E8596440649A8
:10F8BC00F259625AD25A425BB25B61618280011189
:10F8CC0006CE2AC6EFD0BFF63245B72700209945A1
:10F8DC002385A7D8EFC0CFA0F24037E50100130570
:10F8EC00A54005616FD01F9CB727002083C7B7D8F0
:10F8FC00A18B89C7B72700209387479B3727002008
:10F90C002320F7AA01458280797152CC2A8A2E8550
:10F91C0006D622D426D24AD04ECE2EC6EFD07F8623
:10F92C0045C5405945C4834734008949F91793F7B5
:10F93C00F70F63EDF90883574400B245894463948B
:10F94C00B706130974004146D2854A859710FE1FED
:10F95C00E780609A1306C4023285C14532C6EF4077
:10F96C000F8432469306C401CA852285EFF04FAA54
:10F97C0003470400834714000DC30D47814463946F
:10F98C00E702A300340122852254B250925402594A
:10F99C00F249624A45616FE0EFA21147639EE700AE
:10F9AC00A30094008144B2502254268502599254EB
:10F9BC00F249624A456182800D478144E395E7FE36
:10F9CC009547A300F400C1B78944F1BFC944E1BF16
:10F9DC0079719397050122D406D626D24AD04ECE01
:10F9EC00C1872E8463D50704B7240020938484D860
:10F9FC0003C52400EF20AFA62AC611CDEFF05F9A05
:10FA0C00B24519E503C514009307F00F631EF5000A
:10FA1C002E85EF202F9E2165218DB25022549254B9
:10FA2C000259F24945618280EF200FAAEDB793F796
:10FA3C00150091C7EFE05F8113451400F9BF8DE904
:10FA4C000145E1BF850493F4F40FEFD01F85E3F972
:10FA5C00A4FE339599001319050113590901B377C5
:10FA6C002401EDD34A85EFE0DF9C3345240175B7C3
:10FA7C0085448549D9BF29CD011126CA06CE22CC91
:10FA8C00AA840945A9C10D4628002E848D0597101E
:10FA9C00FE1FE78040868347A10070002C0093F77F
:10FAAC00F70393E7070426852305F100EFE0DF9ABF
:10FABC0019E90D46A28568009710FE1FE780208784
:10FACC007D153335A000F2406244D244056182803A
:10FADC0009458280B727002083C7B7D8918B89C787
:10FAEC00B72700209387079C372700202322F7AAEB
:10FAFC0001458280011152C42A8A32854EC656C2F3
:10FB0C005AC006CE22CC26CA4AC82E8BB28AB689D7
:10FB1C00EFD02FE709ED8944F24062442685424933
:10FB2C00D244B249224A924A024B056182805C5906
:10FB3C002A89C544F5F34D45EF40DFA01374F50F4A
:10FB4C005145EF403FA0E38809FC83C78901E3E4FA
:10FB5C0087FC1375F50FE360F5FC93053005130571
:10FB6C0000079700FE1FE7802049232AA9022A8458
:10FB7C00CD445DD1130600078145EF200FAAA300E9
:10FB8C000400230044012301640123125401232E99
:10FB9C003405232C0400A301040063170A008547D5
:10FBAC00A300F40081448DBF2285EFE06FD0854720
:10FBBC00A300F400AA842DD14A85EFE04FD4A9BF4D
:10FBCC00397122DC06DE26DA4AD84ED652D456D209
:10FBDC005AD05ECE62CC66CA094463010610630F2C
:10FBEC00070EAA8B3A89368BB28A2E8CEFD06FD93E
:10FBFC002A8A51446304050E93053005414597004C
:10FC0C00FE1FE780603FAA894D4469C983441900EF
:10FC1C0083472900A204C207BE9483470900BE94FF
:10FC2C0083473900E207BE9483278A0263E6970074
:10FC3C007D570944639FE70863070C0083474A001C
:10FC4C000544898BD9C7930C4B00214681450A8505
:10FC5C00C20CEF208F9C93DC0C019305300566855C
:10FC6C009700FE1FE78040392A8C4D443DC15A86CF
:10FC7C00D6851105EF208FA01146CA856285EF202D
:10FC8C00EF9F414693058A014E85EF202F9F214718
:10FC9C008A866686E2854E85EFE01FD32A840DE5C1
:10FCAC0021468A852800EF206F9D21469305490047
:10FCBC0028009700FE1FE78080678547631EF502CA
:10FCCC00A6855E85EF40BFB362859700FE1FE78077
:10FCDC0080414E859700FE1FE780E0402285F25060
:10FCEC006254D2544259B259225A925A025BF24B84
:10FCFC00624CD24C216182800544F9B739715ECED9
:10FD0C00AA8B594526DA4AD84ED652D456D25AD056
:10FD1C0006DE22DCAE84328BB68A3AC63E8AC289B3
:10FD2C004689EF10FFEF25C99167938717E92310D8
:10FD3C00F50085472301F5002A84324721056387A6
:10FD4C000B0693071003A301F40019468145EF201D
:10FD5C00CF8C834701042312940023036401230AEC
:10FD6C00F400B727002003C587D8A3035401231739
:10FD7C0044012318340123192401A285EF10DFF468
:10FD8C009D4763EA9700B727002086049387C7D363
:10FD9C00BE9423900400F2506254D2544259B2598A
:10FDAC00225A925A025BF24B21618280A301040019
:10FDBC001946BA859700FE1FE780E05359BF797149
:10FDCC0056CAAA8A1305100326D24AD04ECE52CC5C
:10FDDC0006D622D42EC6328AB684BA893E89EF1052
:10FDEC003FE42DC1B2453746020193078500130647
:10FDFC0016E92A845CC110C123045501A304B50083
:10FE0C001946D28529059700FE1FE780C04ECE8586
:10FE1C00230894001305140126869700FE1FE78023
:10FE2C00804D23082403A285B72700202254B2500A
:10FE3C0092540259F249624AD24A03C587D84561A5
:10FE4C006F109FE8B250225492540259F249624A00
:10FE5C00D24A45618280011122CC2A84314506CEDA
:10FE6C002EC632C436C23AC0EF109FDB29C191674F
:10FE7C00938717E92310F500B245224692460247B4
:10FE8C008D472301F500A30185006244B7270020AC
:10FE9C002312B5002313C5002314D5002315E50048
:10FEAC00F240AA8503C587D805616F10FFE1F240C7
:10FEBC0062440561828001114AC82A89394526CAE3
:10FECC0006CE22CC2EC6B284EF109FD531C1B245DE
:10FEDC009167938727E92310F50091472301F500DB
:10FEEC00A30125012312B5002A84A68519052146F4
:10FEFC009700FE1FE7802040A285B72700206244B0
:10FF0C00F240D244424903C587D805616F10DFDB4C
:10FF1C00F2406244D24442490561828001114AC8D0
:10FF2C002A89414526CA06CE22CC2EC6B284EF10B1
:10FF3C003FCF29C19167B245938727E92310F5007C
:10FF4C0095472A842301F500231225012146190522
:10FF5C009700FE1FE780203AA28523179400B7274D
:10FF6C0000206244F240D244424903C5A7D805613F
:10FF7C006F109FD5F2406244D244424905618280A1
:10FF8C00011122CC2A84394506CE2EC632C436C283
:10FF9C003AC0EF10FFC829C19167938717E9231066
:10FFAC00F500B24522469246024799472301F500D7
:10FFBC0023128500B727002062442313B5002314B5
:10FFCC00C5002315D5002316E500F240AA8503C50C
:10FFDC0087D805616F105FCFF24062440561828063
:10FFEC00797122D406D62A842EC632C436C23AC0BF
:04FFFC00EFD02F997A
:020000022000DC
:100000001DC1B245224692460247231CB100231D62
:10001000C1002C081306F00F2285231ED100231FD8
:10002000E100EFD0EF88B250225445618280011187
:1000300022CC2A84394506CE2EC632C436C23AC0F6
:10004000EF10DFBE29C19167938717E92310F500F0
:10005000B2452246924602479D472301F5002312EE
:100060008500B727002062442313B5002314C50080
:100070002315D5002316E500F240AA8503C587D8CD
:1000800005616F103FC5F24062440561828039719D
:1000900066CAAA8C1305200226DA52D456D25AD048
:1000A0005ECE62CC06DE22DC4AD84ED6AE84328BDF
:1000B000B68A3AC63E8CC28B468AEF103FB751C90A
:1000C0009166938616E9A9472A842310D500230157
:1000D000F5009309E40021051309440132476387C1
:1000E0000C0893071003A301F40019468145EF1093
:1000F0009FD3194681454E85EF10FFD219468145A1
:100100004A85EF105FD28357010423129400230322
:100110006401231EF40083574104A3035401231DEB
:100120004401231FF40083478104A2852300F402C5
:10013000B727002003C587D8EF10DFB99D4763EAD2
:100140009700B727002086049387C7D3BE942390D7
:100150000400F2506254D2544259B259225A925A6F
:10016000025BF24B624CD24C21618280BA85A301C2
:10017000040019469700FE1FE780A018E2854E850F
:1001800019469700FE1FE780C0171946DE854A858D
:100190009700FE1FE780E016BDB779715EC6AA8B97
:1001A00061454ECE52CC56CA5AC862C406D622D435
:1001B00026D24AD02E8BB28A368ABA893E8CEF106C
:1001C000FFA62DCD37470B01130717E91304850050
:1001D000AA8418C140C101491305240023007401F9
:1001E000A30064011946D6859700FE1FE7806011C1
:1001F00013059400230444011946CE859700FE1F81
:10020000E7802010A307840103C734000509137990
:10021000F90F4104E362E9FC2254B7270020B250F1
:100220000259F249624AD24A424BB24B224CA6854D
:1002300003C587D8925445616F10DFA9B25022548C
:1002400092540259F249624AD24A424BB24B224C72
:1002500045618280011122CC2A84214506CE2EC61A
:1002600032C436C2EF109F9C15CD2246924691674C
:10027000938717E92310F500B245B1472301F50034
:10028000A30185002303C500A303D5006244B7275B
:1002900000202312B500F240AA8503C587D8056166
:1002A0006F105FA3F2406244056182805D71A6C257
:1002B0008344C1052AC6CAC0138544024EDE52DCFF
:1002C00056DA5AD85ED662D466D26AD06ECE86C668
:1002D000A2C42EC4B28D368DBA8C3E8CC28B468B96
:1002E000835A0105034A4105E6490659EF101F9458
:1002F00049CD3243A24537460D01930785001306C9
:1003000016E92A845CC12304650010C1A304B5006A
:100310001946EE8529059700FE1FE78080FECE85F1
:100320002308A401A308940123098401A3097401EB
:10033000230A6401231B5401230C44011305940177
:1003400019469700FE1FE780C0FB13054402A30F68
:10035000940008D0CA8526869700FE1FE78060FAC1
:10036000A285B72700202644B64096440649F25994
:10037000625AD25A425BB25B225C925C025DF24DE1
:1003800003C587D861616F10FF94B6402644964438
:100390000649F259625AD25A425BB25B225C925CC5
:1003A000025DF24D6161828001112AC6514506CE7F
:1003B00022CCEF10BF871DC9B2459167938717E91B
:1003C0002310F500B9472A842380F5000905494622
:1003D0009700FE1FE780E0F2A285B7270020624465
:1003E000F24003C587D805616F10DF8EF24062448A
:1003F00005618280797126D2AA841385070106D609
:1004000022D42ECE32CC36CA3AC842C63EC4EF10F1
:10041000FF8125C12A841165A247F2456246D24672
:1004200042473248130515E92310A4003D45230136
:10043000A40013050401231294002303B400A303B2
:10044000C4002305F40048C42304D400A304E4003A
:100450003E86C2859700FE1FE780A0EAA285B727E7
:1004600000202254B250925403C587D845616F10C2
:100470007F86B2502254925445618280411122C439
:100480002A84194506C6EF106FFA0DC59167938748
:1004900017E92310F500C1472301F5002312850059
:1004A000B72700202244B240AA8503C587D841015E
:1004B0006F105F82B24022444101828041110D459C
:1004C00006C6EF10AFF60DC5930710F92300F5002F
:1004D0009307E003A300F500C5472301F500B72704
:1004E0000020B240AA8503C587D841016F108FFE56
:1004F000B24041018280011122CC2A84294506CED6
:100500002EC632C436C2EF106FF215CDB2459246F8
:100510009167938717E92310F5002246C947230105
:10052000F5002302B500A30185002304D500624431
:10053000B72700202313C500F240AA8503C587D83A
:1005400005616F102FF9F24062440561828001114C
:100550004AC82A892D4526CA06CE22CC2EC6B28488
:10056000EF10CFEC29C5B245930710F92300F50031
:100570009307E003A300F500CD472301F500A30195
:1005800025012302B5002A84A68515051946970082
:10059000FE1FE78000D7A285B72700206244F24003
:1005A000D244424903C587D805616F10AFF2F240CB
:1005B0006244D244424905618280011122CC2A84DE
:1005C000214506CE2EC6EF106FE605C9B2459167EC
:1005D000938717E92310F500D1472301F500230382
:1005E000B50023128500B72700206244F240AA8597
:1005F00003C587D805616F10EFEDF24062440561D5
:10060000828001112AC6614506CE22CCEF100FE28E
:100610001DC9B2459167938717E92310F500E1479B
:100620002A842380F500090561469700FE1FE780B4
:1006300040CDA285B72700206244F24003C587D889
:1006400005616F102FE9F24062440561828001115B
:1006500022CC2A84214506CE2EC632C4EF100FDDEF
:100660001DC52246B245930710592310F5002301FA
:1006700085002303C5006244B72700202312B5007C
:10068000F240AA8503C587D805616F10AFE4F24038
:10069000624405618280011122CC2A84214506CE64
:1006A0002EC632C4EF108FD81DC92246916793879A
:1006B00027E92310F500B245A1472301F5002303E4
:1006C0008500A303C5006244B72700202312B500AC
:1006D000F240AA8503C5A7D805616F10AFDFF240CD
:1006E000624405618280011122CC2A84314506CE04
:1006F0002EC632C436C23AC0EF104FD315CD2246B3
:100700008567B24592460247938717C92310F500C3
:10071000230185002303C5006244B727002023126C
:10072000B5002314D5002315E500F240AA8503C5C2
:1007300087D805616F100FDAF2406244056182804C
:10074000011126CAAE844AC82A891385C40006CE80
:1007500022CC32C6EF108FCD1DCD8567938717E968
:10076000B2452310F50023019500231225012A84A8
:10077000310508C426869700FE1FE78080B8A28551
:10078000B72700206244F240D244424903C587D8CB
:1007900005616F102FD4F2406244D2444249056192
:1007A0008280011122CC2A84194506CE2EC6EF1074
:1007B000EFC705C98567938717F92310F500B24580
:1007C0008547A301F500230185006244B727002077
:1007D0002312B500F240AA8503C587D805616F10C2
:1007E0006FCFF240624405618280411122C42A84A5
:1007F0000D4506C6EF108FC305C5930710F92300FA
:10080000F500E947A300F500230185002244B7273E
:100810000020B240AA8503C587D841016F108FCB55
:10082000B240224441018280011122CC2A84194520
:1008300006CE2EC6EF108FBF0DC58D67B2459387CC
:1008400017092310F500230185006244B727002013
:100850002312B500F240AA8503C587D805616F1041
:100860006FC7F2406244056182800111214506CEC6
:100870002EC632C4EF108FBB05C98567B24522462C
:10088000938707392310F50085472301F500B72723
:1008900000202312B5002313C500F240AA8503C52A
:1008A00087D005616F100FC3F240056182803971F6
:1008B00022DC4ED652D45AD006DE26DA4AD856D298
:1008C0005ECE094B2A8A3284B6896398651183C744
:1008D000160003C706009306C6FFA207D98F372765
:1008E00000202318F7D8BA846399D70831452EC65B
:1008F000EF10CFB3AA8425CDB24542044180230234
:10090000B50023138500930700F91504A165231092
:10091000F500231145018505228597F0FD1FE7802D
:10092000606E88C421C19385E9FF135624009700A7
:10093000FE1FE780009F9C44A68589079CC4B727BB
:10094000002003C587D0EF10EFB88144F250625405
:1009500026854259D254B259225A925A025BF24B1E
:1009600021618280268597F0FD1FE7808078B72778
:100970000020239907D88544D1BF1307D6FFE3C8C9
:10098000E7FEB727002003C787AA138A87AA37295B
:10099000002001CB0325C9D809C597F0FD1FE780CA
:1009A000407503D504D9A16585051105420541812E
:1009B00097F0FD1FE78000652326A9D84DDD22862C
:1009C000CE859700FE1FE780C093B72700202399AC
:1009D00087D885472300FA008DBF37290020835729
:1009E00029D9CA8BC9DBB724002003D704D9B72A79
:1009F0000020B386C700110703A5CAD86348D706ED
:100A00003E95CE859700FE1FE780A08F035629D91B
:100A100083D704D98144329442044180231989D870
:100A20009107E315F4F23145EF104FA0AA850DCDE3
:100A3000930700F92310F500835729D923114501A5
:100A4000230265012313F50083A7CAD81CC5B72765
:100A5000002003C587D0EF10EFA7B7270020231988
:100A600009D8238407AADDB503A5CAD809C597F01C
:100A7000FD1FE7800068B727002023990BD8238447
:100A800007AAD5BD6FF0206E6FF0606F411106C6EA
:100A9000EFF0206FB2400145410182806FF0A071FC
:100AA0006FF0C0736FF000776FF020796FF0207BEC
:100AB0006FF0207D6FF0007F6FF010016FF010037A
:100AC0006FF0B0048347160003460600A2075D8E50
:100AD0006FF0F0056FF030076FF0F0096FF0701DE8
:100AE0006FF050206FF030236FF050256FF07027BB
:100AF0006FF090296FF0B02B6FF0D02D0343010001
:100B0000030E4100834E8100034FC100834F01015A
:100B100083424101834381017EC816CA1ECC7AC636
:100B200076C472C21AC06FF0F02C6FF0F0316FF023
:100B300010346FF030366FF050386FF0703A6FF05D
:100B4000903C6FF0B03E6FF0D0406FF0F0426F100D
:100B500051166F10111F6F1031216FF0D044130721
:100B6000A5FF420785672A8841831385A7C7636C61
:100B7000E502138707C801456368B70263E605030A
:100B80001307301F6362C702138766FF4207418362
:100B9000938767C763EAE70005063306B6028E0649
:100BA0003325D600828001458280B76603008147E5
:100BB000938606D91308F00F3387F6000346070023
:100BC0001317060141836364E50063130601828005
:100BD00003D605006365C7002390E5008280850782
:100BE00093F7F70FD1BF41119397050122C406C6B1
:100BF00026C2C1872E8463D50702EF100F87AA840F
:100C000009CD83470500054793C707086364F700CC
:100C1000EF80A05F2685EF00BFFE2165218D21A812
:100C200093F7150091CFB727002083A707E191C361
:100C3000829713451400B2402244924441018280BD
:100C400093F7250091CBB727002083A747E191C3F5
:100C5000829713452400C5B793F7850081CFB72746
:100C6000002083A7C7E183A7470B91C38297134551
:100C70008400D1B793F7450081CFB727002083A721
:100C8000C7E183A7070B91C382971345440065B75B
:100C900093F7050281CFB727002083A7C7E283A778
:100CA000070991C382971345040271B793F70501B1
:100CB00081CFB727002083A7C7E283A7C70891C3C6
:100CC00082971345040185BF9397250163D20702DC
:100CD000B7270020938707DA83C6F70103C6E70129
:100CE00083C5D70103C5C701EFF0303C09653DB7A7
:100CF000939715010145E3D007F4B72700209387A8
:100D000007DA83C6170203C6E70183C5D70103C507
:100D1000C701EF00F12C116511B7411122C4B727AB
:100D200000203724002026C223AC07E8AA84B72776
:100D30000020130504DA1306800F814506C623AC94
:100D400007D8EF104F8E37270020130747C0834680
:100D5000770103468701B7270020A2064206B29614
:100D600003466701A38197BC930704DAB296B4CB1C
:100D70000346B7018346A7019D454206A206B296E7
:100D800003469701A381B700A3820700B296F4C778
:100D900083A6870C375601031306F69FD18E23A432
:100DA000D70C835647000347F7007976A982A38AB8
:100DB000D70AA38ED70AA382D7088546A385D70072
:100DC0007D16B706F6FF2399C70E239AC70E239DFB
:100DD000E702239FE7027D4689061167238BC70E32
:100DE000D4C71306707013070729B706411423935D
:100DF000C7002394C700239EE7022390E70413064D
:100E0000E00ED9163707D707239DC70694CB238A50
:100E1000B700290798D737970A0A13070710D8D7BA
:100E20003797D7071307071098DB37971B0013076F
:100E30000710D8DB0567130707A9239CE7023707CC
:100E4000160013070790F8CBEFC0B02CEF30F04638
:100E5000EFB0B05A2244B240924441016F80301B3F
:100E6000397122DC3704400026DA4AD84ED606DE35
:100E7000AA89AE841309F4FFCA850145EF10AFF8C3
:100E800065DDE30B25FF498C1317040141832183A2
:100E90009317840013590401D98F23160100137985
:100EA000F90F10088A854E852317F100A30621014A
:100EB00002C002C202C402C802CA02CC02CEEFC003
:100EC00080118347E1010347D101A3818400A20778
:100ED0004207BA970347F101218023828400BA9721
:100EE000F25062542380F40013D78700C183A38299
:100EF0002401A380E4002381F4004259D254B25962
:100F000021618280011122CC37240020930704DA6A
:100F100003D7070506CE26CA4AC84EC6239AE70C51
:100F200003D7270511699305F9FF238BE70CF847D1
:100F30000145130404DAA38BE70C93568700418321
:100F4000238CD70CA38CE70CEF10AFE9AA84FD55D6
:100F50000145EF104FEBA6877D19FD5933F72701A7
:100F6000B366E500C5C6631435016301270B230290
:100F7000F40EA18393E707FC9169C1642320A40EBA
:100F8000A302F40EFD19FD14CE850145EF106FE5A7
:100F90002A89FD550145EF100FE7B3672501EDD70D
:100FA000FD576314F500E30139FF9357050123044E
:100FB000F40E93578501A304F40E8317440D2313F5
:100FC000A40E2305240F4205135989001379F90350
:100FD0004185A305240F658DE58F6312F502031784
:100FE000840E8317640D658FE58F631AF70003176E
:100FF000A40E8317840D658FE58FE307F7F8F240A1
:101000006244D2444249B24905618280CA850145A1
:10101000EF102FDDAA84FD550145EF10CFDEA68726
:1010200035BF411126C2B724002006C622C44AC0DB
:10103000938704DA03C7A70083C7B700636AF70082
:1010400001442285B24022449244024941018280F7
:101050002A89930510201305000A97F0FD1FE780E9
:1010600060FA2A8471DD938404DA63150900C1579C
:101070002304F500FC4CB1EBA0CCE0CCA0D02320A5
:10108000040085471306000A814522852385F40064
:10109000EF007FD98547A304F400930700F9A30567
:1010A000F400B7270020938787ECD84B9C4F38C4B7
:1010B0007CC4FD57230BF400B727002003C567C18C
:1010C000EFC0E00DA307A400ADBFBC5080C3A0D00B
:1010D0002320040083C7A40085076DB741114AC0CF
:1010E00037290020930709DA83A7C70A06C622C456
:1010F00026C2638F071EAA84130909DAEFC0804253
:101100008327C90A8297EF30C0752A846302051EBF
:101110009C501307A0092320F50A83C6B400FC44A1
:101120006395E6140547A304E50203C754052307A6
:10113000E502A307E50203C7F70083C607010145DF
:101140002207C206369783C6E700214E1303F00F2D
:10115000369783C61701E20636972328E40A03C7A9
:10116000370183C647012207C206369783C6270187
:101170003697232AE40A03C75701A307E40403C7E9
:10118000770183C667012207558F2318E40403C73C
:10119000970183C687012207558F2319E40403C6EC
:1011A000B70183C6A7012206558E231AC40483C63D
:1011B000D70183C5C701232CA412A206CD8E814579
:1011C000232EB412231BD404A30604129145032535
:1011D00084130328C41393588501220833E80801B7
:1011E00022059388E501232CA412232E0413BE9814
:1011F00003C808003365A800232CA412014803C5C6
:10120000080033550541058911C50345D41205056C
:10121000A306A4120508E314C8FFFD1593F5F50F06
:10122000E39765FA83C5370269174207FD892306EC
:10123000B40483C7370241839583A306F40485670A
:101240009385A7C763EAE5001307301F6366C700ED
:10125000938707C863FCD702035584002244B24039
:101260009244024941016F30807D0327890C931617
:101270001701E3D206ECB8448346070003C7070012
:10128000758F1583058BA304E50275B58327090BBC
:101290002285829783D7240681E783D7640691CB82
:1012A00083C644060356840083C584000145EF10BD
:1012B000014E8327090D03558400294693F7072023
:1012C00091E3054693050008EF80200D8327890CE4
:1012D00013971701635E0700035584002244B24050
:1012E0009244024951469305000841016F80E00A8B
:1012F000B24022449244024941018280B727002033
:1013000083C717DA411122C406C62A84C5C783479A
:101310001504CDC3834775041307000493F7070C26
:10132000639AE7085C559DCF03C7270105CF03C724
:1013300037001306240413672700A300E50403D530
:10134000270003D7470083D5670083D7870022444F
:10135000B2404207C207598DDD8D41011703FE1FC0
:10136000670083DE034704018547631EF70093058A
:1013700024041305A4032244B2401946410117F383
:10138000FD1F670083FB83472405918B8DCF1305D9
:1013900004049700FE1FE78060D348D401CD834743
:1013A000350093E72700A300F404B240224405452A
:1013B00041018280034704018547E30AF7FA834726
:1013C0002405918BCDF78347D40013F7170019CF6D
:1013D000834634010D47639BE60028406C4022445D
:1013E000B24041011703FE1F670023E6898BD5DF5A
:1013F000034734019547E31AF7FAC5B78347A500B9
:10140000130750026392E7028347550113F7270041
:1014100015C3930760022305F500B727002003C515
:1014200037BC89456F003FB9130760026399E70035
:1014300083475501918B91CF93077002E9BFB7277E
:101440000020938707DA238C0706930710F9A3057A
:10145000F50082806C45411106C622C426C24AC0EE
:1014600083C71500314793F7F7032309F500638B12
:10147000E70093040008B2402244268502499244C2
:101480004101828083C405008D47BD88A309950072
:10149000E391F4FE130925032A841946A1054A8520
:1014A00097F0FD1FE78060E9630805166C4413059B
:1014B0002404194683C7050089059987858BA300F5
:1014C000F40497F0FD1FE780C0E32285EFF01FE3EF
:1014D0005DD124449D472308F4002380F400854710
:1014E0002381F400A381F4001946CA8513854400C2
:1014F00097F0FD1FE780E0E083C7240003C73400B6
:10150000990793F7F70F136787002381F400A381EE
:10151000E4003844BA9703570406A381E70083C761
:1015200024003844834634053E97835704069206C8
:10153000A183BD8BD58F2302F70003C72400814709
:1015400009071377F70F2381E4000356A4018346AC
:10155000240501CA93F70604D5EFF957998F93F73D
:10156000F70F93F606048DC203C6340034441366A5
:1015700006043697A381C400E956A301D70003C728
:10158000240005072381E4000356A401014719CE76
:1015900063EEC70083C7240028440C548D073E9592
:1015A00097F0FD1FE780E0D50347A40183C6240020
:1015B00093F7F60385073E97A308E4002381D40040
:1015C00083471403858B91E7034704038947631915
:1015D000F70038448347070093E707042300F70028
:1015E0003C44834514018144A380B700034554055E
:1015F000930790F9A305F400EFB0F04503461401FA
:10160000834554050D459700FE1FE780E0F8EFB0D5
:10161000707195B5F55799B78944B1BD6C451307FD
:10162000200283C7150093F7F7032309F500639998
:10163000E71C411122C406C626C24AC083C7050062
:1016400015472A84BD8BA309F500639CE702194660
:10165000A1051305250397F0FD1FE78000CE8947FC
:10166000630D05146C4419461305240483C7050053
:1016700089059987858BA300F40497F0FD1FE78007
:1016800040C82285EFF09FC78D47630805123729B0
:101690000020930749C083C7470183455405094685
:1016A00093968701E186130949C037270020639D7F
:1016B000C5109304500763C80600858B9304800708
:1016C00099E39304B007832787C4829703074901EE
:1016D00026959307E5FF634A07003707C0A863E62E
:1016E000E700B7074057F917AA9724441CD0A14731
:1016F0002308F4002380F40085472381F400A381AC
:10170000F4001946930524031385440097F0FD1F48
:10171000E78020BF83C7240099072381F40083C793
:10172000340093E72700A381F4008347140481CB9E
:1017300038448347070093E707F82300F70019466A
:10174000930524041385A40097F0FD1FE78060BB78
:1017500083C72400990793F7F70F13F7F7030507DB
:10176000A308E4002381F40083471403858B91E7E9
:101770000347040389476319F70038448347070088
:1017800093E707042300F7003C4483451401A3803A
:10179000B700034554059307A0F9A305F400EFB083
:1017A000902B03461401834554050D459700FE1FF9
:1017B000E78080DEEFB010578147B2402244924468
:1017C00002493E85410182809304E00463C806001B
:1017D000858B9304000599E393042005832787C430
:1017E00082970307490126959307F5FFE34F07EE1C
:1017F0003707C0A8E3EBE7EEB7074057FD17EDB595
:10180000930700083E858280B727002083A707E45E
:101810006395072641114AC037290020832749EEE6
:1018200006C622C4984326C20D8B05C3B84B619BE4
:10183000B8CB98431367870098C39C438D83858BEF
:1018400089C701000100010001003726002083271D
:1018500006EAB725002037083300D857B7080082BA
:10186000FD18719B13671700D8D798431377F7E7D4
:1018700098C398431377F7E71367071098C383A6B5
:1018800045F098463367070198C6032749EE93064B
:10189000A00D3728002034CB9306000A74D354439C
:1018A000130848C0F99A54C3034728011377F70374
:1018B00093169701D85733771701558FD8D7371715
:1018C0000040930770052300F704930780FA230074
:1018D000F70483462801AD4763F9D71883572702D9
:1018E00093E707012311F70203A745F05C57F59B27
:1018F0005CD783471507032706EA93F6F7071C43CF
:1019000093F707F8D58F1CC38327050824451CC708
:10191000832745085CC39D472308F5002380F40016
:101920008547A38104002381F4007C5593F70702C7
:1019300085CFA147A381F4003C450357E5072382E7
:10194000E70083C724003845834625073E97835721
:10195000E5079206A183BD8BD58F2302F70083C7CD
:10196000240089072381F40083C7340003C72400BF
:101970002A8493E70704A381F4003C45BA97034700
:10198000F500A381E70003C5240081470505137511
:10199000F50F2381A400035684071DC21307160008
:1019A0002A979306F00F63CDE6003C448325840913
:1019B0000D053E9597F0FD1FE780A09483478407AF
:1019C00083C6240013F7F6030507BA97A308F400AB
:1019D0002381D40083471403858B91E703470403D5
:1019E00089476319F70038448347070093E70704E2
:1019F0002300F7003C4403471401A380E70093074A
:101A000070F93844A305F400832749EEB8DBEFB042
:101A1000B025373502008145130585BDEF009F9045
:101A2000B7270020938787EC238107001147A38104
:101A30000700A383E70023820700B727002003A73E
:101A400047EA11C7144318479C42D98F9CC20346EA
:101A50001401834554052244B24092440249014591
:101A600041011703FE1F670023B383572702C207F4
:101A7000C183BD9BC207C183B5B58280FD572308D2
:101A8000F5067C55918B638E071E011122CC26CA68
:101A90002A844EC606CE4AC8EF3020038357C407B7
:101AA000B7290020B72400208507231EF40693875A
:101AB00009DA03C78707938909DA938444C0620768
:101AC0006187635C070603C787071377F703238CD7
:101AD000E70603C74401832784080356A407931627
:101AE0008701E18663D706161307204E3306E60208
:101AF0003D0615823E9663C90600B707C0A8636518
:101B0000F600B70740573E962324C40883C7E40174
:101B100063D106161D8E3725020093060407A285A1
:101B20001305C5A7EF002FBA22856244F240D244C4
:101B30004249B24905616FF03FCDB727002083A726
:101B400087C403298408829703C74401931587013A
:101B5000E18563D60506B307A9409386F7FF130610
:101B60007002637CD6080356A40763D005061307EA
:101B7000204E3306E6023D061582032784083A9676
:101B800063C905003707C0A86365E60037074057FB
:101B90003A962324C40803C7E401930604073725B3
:101BA000020063D40504198EA2856244F240D24437
:101BB0004249B2491305C5A705616F00CFB0E37C68
:101BC000A9F8B707C0A83E9979B7058B11C71307C5
:101BD00080023306E60255B705671307B747330699
:101BE000E602130606041D8249BFE37EE6FAB70744
:101BF000C0A83387E7403A9645BF83C6890793E676
